:020000040800F2
:1000000000500020B53B0008FD3B00084D010008F2
:10001000FD3B0008FD3B0008FD3B00080000000020
:10002000000000000000000000000000FD3B000890
:10003000FD3B000800000000FD3B000859010008DE
:10004000FD3B0008FD3B0008FD3B0008FD3B0008B0
:10005000FD3B0008FD3B0008FD3B0008FD3B0008A0
:10006000FD3B0008FD3B0008FD3B0008FD3B000890
:10007000FD3B0008FD3B0008FD3B0008FD3B000880
:10008000FD3B0008FD3B0008FD3B0008FD3B000870
:10009000FD3B0008FD3B0008FD3B0008FD3B000860
:1000A000FD3B0008FD3B0008FD3B0008FD3B000850
:1000B000FD3B0008FD3B0008FD3B0008FD3B000840
:1000C000FD3B0008FD3B0008FD3B0008FD3B000830
:1000D000FD3B0008FD3B0008FD3B0008FD3B000820
:1000E000FD3B0008FD3B0008FD3B00080000000050
:1000F0000000000000000000000000000000000000
:1001000000000000000000005FF808F110B5054C89
:10011000237833B9044B13B10448AFF300800123B3
:10012000237010BDEC01002000000000147B0008CB
:1001300008B5034B1BB103490348AFF3008008BD6A
:1001400000000000F0010020147B000880B400AF24
:1001500000BFBD4680BC704780B400AF00BFBD4645
:1001600080BC704780B500AF00F0AAF800BF80BD2A
:1001700080B500AFFFF7F6FF02F0B6FA00F056F9CF
:100180000A2000F027F900F009F80121024800F0E8
:1001900071F800F08BF8FEE7F06F000880B584B0CE
:1001A00000AF2C4B2C4A1A612A4B00221A73294BA0
:1001B0000022DA72274B02221A754FF400512748A9
:1001C00000F066F90346DAB2224B1A714FF480410F
:1001D000224800F05DF90346DAB21E4B9A714FF4E3
:1001E00000411E4800F054F90346DAB2194B5A7127
:1001F0004FF480711A4800F04BF90346DAB2154B00
:10020000DA714FF48051154800F042F90346DAB232
:10021000104B5A720F4BFF221A720E4BFF229A722A
:100220000C4800F0F3FA0F4B0F4A1049104800F049
:1002300077FD0F4B074ADA620D4802F0E2F8002121
:100240000B4802F0EDF80A4800F0ECFC00BF103754
:10025000BD4680BDA002002080969800000C0140A1
:1002600000080140C50A0008B5090008F876000832
:100270000802002080B582B000AF7860396009497B
:10028000094801F0F7FA3B6801339BB2DB009AB2F0
:100290007B680021044801F04FFA00BF0837BD46D3
:1002A00080BD00BFFC6F00080802002080B500AFD1
:1002B000024800F02AFD00BF80BD00BF08020020F8
:1002C00080B594B000AF07F13C0300221A605A6079
:1002D0009A60DA601A6107F1140328220021184697
:1002E00003F0C0FC3B1D00221A605A609A60DA607D
:1002F00001237B614FF48033BB610023FB614FF42A
:10030000E013BB6302233B634FF480337B6307F14D
:100310001403184602F048FB10237B6000233B6166
:100320003B1D184602F05AFF0F23FB6302233B6478
:1003300000237B644FF48063BB640023FB6407F1FC
:100340003C030221184602F0B1FD02F0CDF900BFD6
:100350005037BD4680BD000080B483B000AF7860E8
:10036000044B1B68C01AFBD800BF0C37BD4680BCCD
:10037000704700BF0400002080B487B000AF7860F1
:10038000124BDB687B61114A7B6943F08073D36059
:100390000F4B1B683B610E4A3B6943F0010313603E
:1003A0000B4B5B68FB6000BF094B5A68FB68D31AB4
:1003B0007A689A42F8D8064A3B691360034A7B6917
:1003C000D36000BF1C37BD4680BC7047F0ED00E035
:1003D000001000E080B582B000AF7860084B1B6869
:1003E000084A12680849A1FB0212920C796801FBC5
:1003F00002F21046984700BF0837BD4680BD00BFD7
:10040000000000200800002083DE1B4380B582B07E
:1004100000AF78607B684FF47A7202FB03F31846F2
:10042000FFF7D8FF00BF0837BD4680BD80B483B05A
:1004300000AF124B5B6803F00103002B07D0104B99
:100440001B6803F00073002B01D1012300E000239F
:10045000FB71FB7903F00103FB71FB79002B03D0E7
:10046000084B094A1A6002E0064B084A1A6000BFAE
:1004700018460C37BD4680BC704700BF00F00FE047
:10048000001000E000000020790300085903000874
:1004900080B485B000AF78600B467B800023FB738F
:1004A0000023BB6011E07A88BB6842FA03F303F0D3
:1004B0000103002B06D0FB7B002B01D0FF2331E092
:1004C000BB68FB73BB680133BB60BB680F2BEADD05
:1004D0007B68174A934201D1FB7B23E07B68154A76
:1004E000934204D1FB7B43F01003DBB21AE07B683C
:1004F000114A934204D1FB7B43F02003DBB211E0AD
:100500007B680E4A934204D1FB7B43F03003DBB29D
:1005100008E07B680A4A934204D1FB7B43F0400326
:10052000DBB2FFE718461437BD4680BC704700BFFA
:1005300000080140000C014000100140001401407F
:100540000018014080B485B000AF0346B9607A60FE
:10055000FB73FB7B03F00F03012202FA03F39AB251
:100560007B681A80BB6800221A60FB7B03F0F003F3
:10057000002B02D1BB68134A1A60FB7B03F0F00327
:10058000102B02D1BB68104A1A60FB7B03F0F0030A
:10059000202B02D1BB680D4A1A60FB7B03F0F003ED
:1005A000302B02D1BB680A4A1A60FB7B03F0F003D0
:1005B000402B02D1BB68074A1A6000BF1437BD4602
:1005C00080BC704700080140000C01400010014051
:1005D000001401400018014080B584B000AF03460C
:1005E0000A46FB711346BB710023FB604FF6FF7395
:1005F0007B8107F10A0207F10C01FB791846FFF72E
:10060000A1FFFB68002B05D0FB687989BA791846F1
:1006100003F01EF800BF1037BD4680BD80B58AB01C
:1006200000AF7860734B9B69724A43F00803936193
:10063000704B9B6903F008037B617B696D4B9B6981
:100640006C4A43F0040393616A4B9B6903F0040313
:100650003B613B697B681B7D012B02D0022B16D0CE
:100660002CE0654B654A9A65654B7B6202F084FD20
:1006700003463B625F4B9B695E4A43F48053936140
:100680005C4B9B6903F48053FB60FB6819E05A4B99
:100690005C4AC3F8B02002F05BFD03463B625A4B54
:1006A0007B62544BDB69534A43F48043D361514B23
:1006B000DB6903F48043BB60BB6802E04FF0FF33AB
:1006C00093E07B687A6A1A607B6A4FF482725A60A0
:1006D0007B6A00229A607B6A0022DA607B6A4FF4B0
:1006E00000729A617B6A00225A627B681B7B002B36
:1006F00003D07B6A80221A6202E07B6A00221A62BF
:100700003A6A7B681B69B2FBF3F3FB613B6A7A6868
:100710001269B3FBF2F101FB02F29B1ABB61BB69E8
:10072000002B02D0FB690133FB617B6A3822DA615E
:10073000FB69802B02DC7B6A3022DA61FB69402B8B
:1007400002DC7B6A2822DA61FB69202B02DC7B6AEF
:100750002022DA61FB69102B02DC7B6A1822DA6145
:10076000FB69082B02DC7B6A1022DA61FB69042B2F
:1007700002DC7B6A0822DA61FB69022B02DC7B6AFD
:100780000022DA617B68DB7A032B27D801A252F8BA
:1007900023F000BFA5070008B3070008C107000841
:1007A000CF0700087B6A00221A617B6A00225A6127
:1007B00017E07B6A00221A617B6A01225A6110E00D
:1007C0007B6A00221A617B6A01225A6109E07B6A16
:1007D00002221A617B6A01225A6102E04FF0FF3364
:1007E00003E0786A02F04CFF034618462837BD46FE
:1007F00080BD00BF00100240B80200200030014060
:1008000010030020003800406803002080B58AB043
:1008100000AF78607868FFF701FF78627B6A002B91
:1008200001D07B6AAAE00023FB6103233B62002323
:100830003B614FF6FF73FB817B685B7907F10E022A
:1008400007F110011846FFF77DFE3B69002B02D12E
:100850004FF0FF3392E00223BB61FB897B613B6970
:1008600007F114021146184602F06EFD7B681B79F1
:1008700007F10E0207F110011846FFF763FE3B690E
:10088000002B02D14FF0FF3378E00223BB61FB89DC
:100890007B613B6907F114021146184602F054FDD2
:1008A0007B689B7907F10E0207F110011846FFF7EC
:1008B00049FE3B69002B0AD00023BB61FB897B61A9
:1008C0003B6907F114021146184602F03DFD7B68B2
:1008D000DB7907F10E0207F110011846FFF732FE2F
:1008E0003B69002B0AD00123BB61FB897B613B691B
:1008F00007F114021146184602F026FD7B68DB79E9
:1009000001211846FFF768FE7B681B7A07F10E028B
:1009100007F110011846FFF715FE3B69002B0AD0BE
:100920000123BB61FB897B613B6907F1140211461E
:10093000184602F009FD7B681B7A01211846FFF773
:100940004BFE7B685B7A07F10E0207F11001184637
:10095000FFF7F8FD3B69002B0AD00123BB61FB893F
:100960007B613B6907F114021146184602F0ECFC6A
:100970007B685B7A01211846FFF72EFE1846283760
:10098000BD4680BD80B586B000AFF860B9607A60C2
:10099000FB70FB6818687B689AB24FF47A73B96889
:1009A00002F003FF03467B617B6918461837BD469A
:1009B00080BD000090B587B000AFF8607B600B464B
:1009C000FB721346BB72FB68DB6A7B61FB7A143BEC
:1009D0000C2B70D801A252F823F000BF1F0A0008A8
:1009E000B70A0008B70A0008110A0008470A0008F9
:1009F0008F0A0008B70A0008B70A0008B70A0008FB
:100A0000B70A0008B70A0008B70A0008350A000844
:100A1000BA7A002379687869FFF7B4FF4DE07B6903
:100A2000DB791A46FB681B685B7819461046FFF7AE
:100A3000D3FD42E07B691B7A1A46BB7A1946104601
:100A4000FFF7CAFD39E0FB681B689A687B691A6189
:100A50007B6900221A73FB681B681A7B7B69DA7258
:100A60007869FFF7D3FE7B69DB791A46FB681B6860
:100A70001B7819461046FFF7AFFDFB685C69FB6801
:100A80001B689A7800232C21F868A04715E0FB68C2
:100A90005C69FB681B68DA7800232C21F868A047A2
:100AA0007B69DB791A46FB681B685B781946104640
:100AB000FFF792FD01E0002300E0012318461C37F8
:100AC000BD4690BD80B584B000AFF8607B600B463A
:100AD000FB721346BB72FB7A283B2B2B00F29380F0
:100AE00001A252F823F000BF110C0008D50B00083A
:100AF000C30B0008AF0B0008990B0008110C00088D
:100B0000070C0008070C0008070C0008070C000879
:100B1000070C0008070C0008070C0008070C000869
:100B2000070C0008070C0008070C0008070C000859
:100B3000070C0008070C0008070C0008070C000849
:100B4000070C0008070C0008110C0008110C000825
:100B5000110C0008110C0008110C0008110C000801
:100B6000110C0008110C0008110C0008110C0008F1
:100B7000110C0008110C0008110C0008110C0008E1
:100B8000110C0008110C0008DF0B0008E90B00082D
:100B9000F30B0008FD0B0008BB7A204A82FB03120E
:100BA0009211DB17D31A1846FFF714FC31E0BB7A19
:100BB0001B4AA2FB0323DB08DBB21846FFF70AFC43
:100BC00027E0BA7A13469B0013445B001846FFF7F0
:100BD00001FC1EE0BB7A1846FFF718FC19E0FB6821
:100BE000002283F8272014E0FB68002283F82720E6
:100BF0000FE0FB68002283F827200AE0FB68002250
:100C000083F8272005E0FB68012283F8272000E015
:100C100000BF012318461037BD4680BDD34D62107A
:100C2000CDCCCCCC80B584B000AF78607B681B683D
:100C30001B7CFB607B6893F83C301A46FB6802FB28
:100C400003F3FB60FB68DB00FB607B689B6BFA686F
:100C50000021184603F006F800BF1037BD4680BDDE
:100C600080B586B002AF78600B46FB701346BB7050
:100C70007B681B681B7CFB73FB78BB817B689B6B71
:100C8000BB60FB7B9BB2BA8902FB03F3BB81BB89D0
:100C9000DB00BB81BB89BA681344BB60F97BBA78BF
:100CA000BB6800930B460021786801F079FB00BF18
:100CB0001037BD4680BD80B584B000AF786000239A
:100CC000FB737B6893F83C307B737B6893F83D3013
:100CD000BB737B681B685B7C3B73BA7BFB7B1946F1
:100CE0007868FFF7BDFFFB7B0133FB73BB7B0133F0
:100CF000BB73FA7B7B7B9A4203D2BA7B3B7B9A42E3
:100D0000EBD300BF1037BD4680BD80B582B000AFC9
:100D100078607868FFF7CFFF00BF0837BD4680BD19
:100D200080B588B002AFF860B9607A603B603B681C
:100D300000937B680B4A0C49F86801F07DFC07F1D1
:100D40001303184601F096FC7861FA7CBB680093A7
:100D5000064B7969F86800F0A6FF00BF1837BD465A
:100D600080BD00BF8121000859250008591B0008DB
:100D700080B483B000AF78600B46FB70FB787A6874
:100D800013447B607B681B7818460C37BD4680BCDB
:100D9000704780B485B000AF78600B46FB70FB787D
:100DA0007A6813447B607B681B78FB817B68013326
:100DB0007B60FB891B02FB817B681B789AB2FB89F5
:100DC0001344FB81FB8918461437BD4680BC70472D
:100DD00080B582B000AF7860396000213868FFF7D5
:100DE000C7FF03461A467B681A7001213868FFF76F
:100DF000BFFF03461A467B685A7002213868FFF726
:100E0000B7FF03461A467B689A7003213868FFF7DC
:100E1000AFFF03461A467B68DA7004213868FFF793
:100E2000A7FF03461A467B681A7105213868FFF749
:100E30009FFF03461A467B685A7106213868FFF700
:100E400097FF03461A467B689A7107213868FFF7B7
:100E50008FFF03461A467B68DA7108213868FFF76E
:100E600087FF03461A467B681A7209213868FFF724
:100E70007FFF03465AB27B685A720A213868FFF72F
:100E800077FF03465AB27B689A720B213868FFF7E6
:100E90006FFF03465AB27B68DA720C213868FFF79D
:100EA00067FF03465AB27B681A730D213868FFF753
:100EB0005FFF03465AB27B685A730E213868FFF70A
:100EC00057FF03465AB27B689A730F213868FFF7C1
:100ED0004FFF03465AB27B68DA7310213868FFF778
:100EE00047FF03465AB27B681A7411213868FFF72E
:100EF00050FF03461A467B685A8213213868FFF771
:100F000048FF03461A467B689A8215213868FFF726
:100F100040FF03461A467B68DA8200BF0837BD46A9
:100F200080BD80B485B000AF78600B46FB707B68F5
:100F30001B7B7B737B681B681B78FB73FA7B7B7B5B
:100F400042FA03F3FB737B7BBB73BA7BFB781344DE
:100F5000BB73BB7B072B1AD908233B733A7B7B7B84
:100F6000D31A3B737B681B685A1C7B681A607B68CA
:100F70001B681B781A463B7B02FA03F35AB297F9B7
:100F80000F3013435BB2FB73BB7B083BBB73FB7837
:100F90004FF0FF3202FA03F3DBB2DB43DAB2FB7B42
:100FA0001340FB737B68BA7B1A73FB7B18461437BC
:100FB000BD4680BC704780B584B000AF78600B46FA
:100FC000FB70FB7819467868FFF7ABFF0346FB73AD
:100FD0000123BB73FB78013BFB7097F90E20FB7874
:100FE00002FA03F3BB73FA7BBB7BD31ADBB2FB734E
:100FF00097F90F3018461037BD4680BD90B482B0C7
:1010000000AF0446084611461A462346FB800346B5
:101010007B710B463B711346FB70FB78022B14D09F
:10102000022B19DC002B02D0012B07D014E097F91A
:1010300004309AB2FB881344FB8014E097F9053022
:101040009AB2FB881344FB800DE097F904309BB201
:10105000FA88D31AFB8006E097F905309BB2FA882C
:10106000D31AFB8000BFFB8818460837BD4690BCEA
:10107000704790B482B000AF0446084611461A4645
:101080002346FB8003467B710B463B711346FB7086
:10109000FB78022B14D0022B19DC002B02D0012B81
:1010A00007D014E097F905309AB2FB881344FB800F
:1010B00014E097F904309BB2FA88D31AFB800DE054
:1010C00097F905309BB2FA88D31AFB8006E097F9AE
:1010D00004309AB2FB881344FB8000BFFB8818469B
:1010E0000837BD4690BC704780B588B002AF7860C5
:1010F0000B46FB701346BB707B6864333B61FB7827
:10110000FB753B6993F908307B753B6993F90930AE
:101110003B753B6993F90A30FB73FA7B7B7DD31AED
:10112000FB73FB7BBB75FA7DFB7B9A4201D2FB7D97
:10113000BB753B699B88BB813B69DB887B8197F9E9
:10114000151097F914203B691B7CB889FFF791FFB4
:101150000346BB8197F9151097F914203B691B7C56
:101160007889FFF74BFF03467B81BB78002B10D0BB
:101170003B699A7B7B6883F89620BB7D98B23B697C
:101180001B7C7A89B98900930346786800F0FBFBE1
:1011900013E03B695B7B002B0FD13B69DA7B7B68FB
:1011A00083F89620BB7D98B23B691B7C7A89B9890C
:1011B00000930346786800F0E6FBFA7DFB7B9A42D9
:1011C00009D3FA7DFB7BD31AFB7500237B753B7D2E
:1011D00001333B759DE700BF7A7DFB7D13447B7532
:1011E00097F915203B691A7297F914203B695A72D6
:1011F00000BF1837BD4680BD80B584B000AF7860B1
:1012000039607B686433FB60FB683A681A60FB688E
:1012100000221A737B6893F87C301946F868FFF750
:1012200080FE03465AB2FB689A727B6893F87D3061
:101230001946F868FFF775FE03465AB2FB68DA7282
:101240007B6893F89620FB689A73FB689B7B002B66
:101250000CBF01230023DBB21A46FB68DA7300BF20
:101260001037BD4680BD000080B58AB002AF7860FF
:1012700039607B6864337B6139687868FFF7BCFF4D
:101280007B6893F86F30FB747B6893F87E30194667
:101290007869FFF790FE0346BB747B6893F87F3054
:1012A00019467869FFF787FE03467B747B6893F8DD
:1012B000803019467869FFF77EFE03463B747B69F0
:1012C00093F90A30002B40F3D7807B699888FA7C29
:1012D0007B7C1344DBB25B42DBB25AB27B691B7C82
:1012E00097F91210FFF7C5FE03461A467B699A80EC
:1012F0007B69D888FA7C7B7C1344DBB25B42DBB22F
:101300005AB27B691B7C97F91210FFF777FE0346F0
:101310001A467B69DA807B699B88FB837B69DB8863
:101320007B83FB8BBB837B8B3B837B691B7C032B8E
:101330005AD801A252F823F0491300086513000897
:101340008D130008C11300087B6993F90A309AB223
:10135000BB8B1344BB8397F913309AB23B8B134476
:101360003B8341E097F913309BB2FA8BD31AFB838E
:10137000FB8B0133FB83BB8B0133BB837B6993F90D
:101380000A309AB23B8B13443B832DE07B6993F97F
:101390000A309BB2FA8BD31AFB83FB8B0133FB839E
:1013A000BB8B0133BB8397F913309BB27A8BD31A73
:1013B0007B837B8B01337B833B8B01333B8313E04C
:1013C00097F913309AB2BB8B1344BB837B6993F9B3
:1013D0000A309BB27A8BD31A7B837B8B01337B835E
:1013E0003B8B01333B8300BFB88B7A8BF98B3B8BF4
:1013F00000930346786800F084FB0346002B02D17B
:1014000097F910303AE07B6900221A727B6900225A
:101410005A727B6893F87A3019467869FFF781FD34
:101420000346FB737B6893F87B3019467869FFF7B6
:1014300078FD0346BB73FB7B002219467868FFF7F3
:1014400053FEBB7B012219467868FFF74DFE012150
:101450007869FFF766FD0346002BECD17B6993F9B1
:10146000093097F913209A4200DDD2E700BF7B696B
:101470009A7B7B6883F8962097F9103018462037BE
:10148000BD4680BD80B586B000AF78600B467B80DE
:101490007B68DB6D7B617B6917337B617B88FF2B0E
:1014A0002AD87B88602B07D97B68B3F88C301A4622
:1014B0007B6913447B6109E07B88402B06D97B68FC
:1014C000B3F88A301A467B6913447B617B69013328
:1014D0001B78002B4ED07B691B789BB27A889A428E
:1014E00002D17B69023349E07B6901331B781A46DC
:1014F0007B6913447B61E9E77B68B3F88E301A4659
:101500007B6913447B617B693B6100213869FFF78C
:1015100040FC03461A467B6913447B61022138690B
:10152000FFF737FC0346FB813B6904333B61FA89D3
:101530007B889A42E9D37B691B78FB81FB891B027C
:10154000FB817B6901331B789AB2FB891343FB81D2
:10155000FB89002B10D0FA897B889A4202D17B69E3
:1015600003330BE07B6902331B781A467B69134413
:101570007B61E0E700BF00E000BF0023184618379A
:10158000BD4680BD80B586B000AFF8600846114604
:101590001A4603467B810B463B811346FB800023A2
:1015A000FB82FB687A89A3F86820FB683A89A3F874
:1015B0006A20FB881946F868FFF764FF38613B69C9
:1015C000002B05D03969F868FFF74EFE0346FB8211
:1015D000FB8A18461837BD4680BD000080B584B030
:1015E00000AFF860084611461A4603467B810B4659
:1015F0003B811346FB80FB6893F87430032B33D890
:1016000001A252F823F000BF191600082D16000899
:101610004116000855160008FB681B6EF8689847CD
:1016200003461A463B8913443B811DE0FB681B6E51
:10163000F868984703461A467B899B1A7B8113E01A
:10164000FB681B6EF868984703461A463B899B1A4D
:101650003B8109E0FB681B6EF868984703461A4611
:101660007B8913447B8100BFFB883A897989F868BC
:10167000FFF788FF034618461037BD4680BD00BF00
:1016800080B586B000AFF8607B600B467B81134667
:101690003B81F86800F04CFC0023FB82FB685B6830
:1016A0007A6812781146F86898470346BB82BB8A6D
:1016B0004FF6FF72934238D07B6801337B60BB8A60
:1016C0004FF6FE729342E9D0BB8A3A897989F8686D
:1016D000FFF784FF03467B82FB6893F87430032B8B
:1016E0001ED801A252F823F0F916000803170008CB
:1016F0000D170008171700087A897B8A13447B812D
:101700000EE03A897B8A13443B8109E07A897B8A1F
:10171000D31A7B8104E03A897B8AD31A3B8100BFCC
:10172000FA8A7B8A1344FB82B8E700BFFB8A18461B
:101730001837BD4680BD00BF80B584B000AFF860EB
:101740007B600B467B8113463B81FB68064A5A60EF
:101750003A8979897B68F868FFF792FF0346184653
:101760001037BD4680BD00BF4B1F000880B483B05A
:1017700000AF78607B68DB6D002B5DD07B6893F9F0
:1017800085207B6883F892207B6893F986207B68AC
:1017900083F893207B6893F89130002B4DD07B68C1
:1017A00093F89130012B1CD17B6893F992207B68D0
:1017B00093F987309A4205DA7B6893F987207B6832
:1017C00083F892207B6893F993207B6893F98830A3
:1017D0009A4232DD7B6893F988207B6883F89320F6
:1017E0002BE07B6893F992301A467B6893F982303C
:1017F00019467B6893F984300B449A420DDA7B6872
:1018000093F98230DAB27B6893F98430DBB2134407
:10181000DBB25AB27B6883F892207B6893F99320FD
:101820007B6893F984309A4207DD7B6893F98420C2
:101830007B6883F8932000E000BF0C37BD4680BC76
:10184000704780B483B000AF7860002318460C372F
:10185000BD4680BC7047000080B483B000AF7860A4
:101860007B68034A1A6600BF0C37BD4680BC7047D0
:101870004318000880B582B000AF786039607B689B
:10188000DB6D3A689A420BD07B683A68DA657B6810
:10189000783339681846FFF79BFA7868FFF766FFD8
:1018A00000BF0837BD4680BD80B487B000AFF86088
:1018B000B96011461A460B46FB801346BB80FB6895
:1018C0001B88FB82FB8ABB82BB681A88BB8A1344D5
:1018D000BB82FA8ABB8A9A420BD9FA8ABB889A429F
:1018E00005D2BB88BB82BB8A013BBB8201E0FB887F
:1018F000FB82FA8ABB889A4201D300231CE0BA8A91
:10190000FB889A4201D8002316E0FA8AFB889A42A3
:1019100001D2FB88FB82BA8ABB889A4201D9BB8874
:10192000BB82FB68FA8A1A80BA8AFB8AD31ABB8206
:10193000BB68BA8A1A80012318461C37BD4680BC92
:10194000704790B587B002AFF860084611461A4656
:1019500003467B810B463B811346FB80FB68B3F853
:1019600042303A89D31A3B81FB681C6BF8883A896C
:10197000798997F8203000930346F868A04700BFA4
:101980001437BD4690BD90B587B002AFF8600846E9
:1019900011461A4603467B810B463B811346FB806A
:1019A000FB6893F89030002B75D0FB88002B72D029
:1019B000FB88012B1AD997F82030022B09D17A899C
:1019C000FB88D31A9BB27B817B8901339BB27B81DD
:1019D0000CE097F82030032B08D13A89FB88D31A02
:1019E0009BB23B813B8901339BB23B8197F820300E
:1019F00003F0010387F8203097F82030002B1AD12C
:101A0000FB68B3F850203B899A423BD8FB68B3F897
:101A100052203B899A4237D9FB68B3F84C20FB68C7
:101A2000B3F84E30B91D07F10A00FFF73DFF03463A
:101A3000002B1AD12FE0FB68B3F84C207B899A4227
:101A400024D8FB68B3F84E207B899A4220D9FB68E2
:101A5000B3F85020FB68B3F85230B91D07F1080005
:101A6000FFF722FF0346002B14D0FB685B6B9C68DA
:101A700079893A89F88897F8203000930346F86806
:101A8000A04708E000BF06E000BF04E000BF02E09E
:101A900000BF00E000BF1437BD4690BD90B482B0D7
:101AA00000AF0446084611461A462346FB8003460B
:101AB000BB800B467B8013463B807A88BB889A426A
:101AC0000DD23A88FB889A4201D9012314E07A8822
:101AD0003B889A4201D901230EE000230CE03A88AA
:101AE000FB889A4207D97A883B889A4201D9012318
:101AF00002E0002300E0002318460837BD4690BCF2
:101B0000704780B584B000AFF860084611461A46A9
:101B100003467B810B463B811346FB80FB68B3F891
:101B20005000FB68B3F852103B8B3A89FFF7B6FFC1
:101B30000346002B01D100230AE0FB68B3F84C00F8
:101B4000FB68B3F84E10FB887A89FFF7A7FF0346BE
:101B500018461037BD4680BD80B489B000AFF8602C
:101B6000084611461A4603467B810B463B811346C5
:101B7000FB80FB681B681B7CBB767B897B767B7E4E
:101B800003F007037B768023FB76FA7E7B7E42FAA6
:101B900003F3FB763B89FB82BB7E9BB2FA8A02FB96
:101BA00003F3FB827B89DB089AB2FB8A1344FB8236
:101BB000FB689B6BFB61FB8AFA691344FB6197F836
:101BC0002830002B29D1FB6893F89630012B06D8DA
:101BD000FB691A78FB7E1343DAB2FB691A70FB6863
:101BE00093F89630012B06D0FB691A78FB7E5340A0
:101BF000DAB2FB691A70FB7E5B08FB76FB7E002B7A
:101C000004D18023FB76FB690133FB61FB88013B38
:101C1000FB80FB88002BD6D121E0FB6893F896303F
:101C2000012B06D8FB691A78FB7E1343DAB2FB69F5
:101C30001A70FB6893F89630012B06D0FB691A786E
:101C4000FB7E5340DAB2FB691A70BB7EFA6913441B
:101C5000FB61FB88013BFB80FB88002BDDD100BFD3
:101C60002437BD4680BC704780B582B000AF786035
:101C70007B680022A3F854207B680022A3F8582038
:101C80007B684FF6FF72A3F856207B684FF6FF7211
:101C9000A3F85A207B685B6B5B687868984700BF45
:101CA0000837BD4680BD80B584B000AFF860B9602C
:101CB0003B601346FB71FB680022DA65FB683A68FB
:101CC0001A63FB68BA689A63FB68FA7983F83C2068
:101CD000FB68002283F83D20FB68002283F8712016
:101CE000FB68002283F89520FB68012283F8962088
:101CF000FB68012283F89720FB68BA695A63FB6886
:101D00005B6B1B68F8689847F868FFF7ADFFF868E9
:101D1000FFF7A2FDFB68002283F8742000BF103794
:101D2000BD4680BD80B485B000AF78607B681B681D
:101D3000BB607B6893F83C30FB81FB89DB00FB8157
:101D40007B68FA89A3F84020BB681B7CFB81FB8978
:101D5000DB00FB817B68FA89DA877B6893F83D308A
:101D6000FB81FB89DB00FB817B68FA89A3F84220B9
:101D70007B6893F83C30FB81FB897A6892F83D20C0
:101D80001344BA68527C934208DDBB685B7C9AB20C
:101D90007B6893F83D309BB2D31AFB81FB89DB0053
:101DA000FB817B68B3F842207B68A3F844207B6802
:101DB000B3F844207B68A3F846207B68B3F846203C
:101DC000FB8913449AB27B68A3F84620BB689A8AC1
:101DD0007B68A3F84820BB68DA8A7B68A3F84A20AE
:101DE00000BF1437BD4680BC704780B584B002AFD9
:101DF00078607B68B3F854107B68B3F858207B6830
:101E0000B3F856007B68B3F85A30009303467868FD
:101E1000FFF777FE0346002B04D17B68002283F88E
:101E200090203BE07B68012283F890207B68B3F828
:101E30004C207B68B3F854309A4205D27B68B3F8E3
:101E400054207B68A3F84C207B68B3F84E207B6855
:101E5000B3F856309A4205D97B68B3F856207B68B0
:101E6000A3F84E207B68B3F850207B68B3F8583055
:101E70009A4205D27B68B3F858207B68A3F85020BB
:101E80007B68B3F852207B68B3F85A309A4205D980
:101E90007B68B3F85A207B68A3F8522000BF08374C
:101EA000BD4680BD80B582B000AF78607868FFF72E
:101EB00039FF00BF0837BD4680BD80B582B000AF96
:101EC00078607B680022A3F84C207B68B3F8482038
:101ED0007B68A3F84E207B68B3F844207B68A3F8A6
:101EE00050207B68B3F846207B68A3F852207868BE
:101EF000FFF77BFF00BF0837BD4680BD80B586B0C9
:101F000002AFF860084611461A4603467B810B462D
:101F10003B811346FB80F8883A8979893B7E0093A0
:101F20000346F868FFF70DFD00BF1037BD4680BDC2
:101F300080B483B000AF78607B68002283F82620ED
:101F400000BF0C37BD4680BC704780B483B000AF83
:101F500078600B46FB70FB78002B02D0FB780A2BD5
:101F600002D14FF6FF736EE07B6893F82630002BAA
:101F700045D1FB78FB2B08D97B68052283F8262006
:101F8000FB7803F00103FB7032E0FB78F72B08D9F4
:101F90007B68042283F82620FB7803F00303FB70A0
:101FA00026E0FB78EF2B08D97B68032283F82620F4
:101FB000FB7803F00703FB701AE0FB78DF2B08D9EE
:101FC0007B68022283F82620FB7803F00F03FB7066
:101FD0000EE0FB78BF2B08D97B68012283F826200E
:101FE000FB7803F01F03FB7002E0FB789BB22AE052
:101FF000FB789AB27B681A844FF6FE7323E07B6805
:1020000093F82630013BDAB27B6883F826207B68A0
:102010001B8C9B019AB27B681A84FB7803F03F0308
:10202000FB707B681A8CFB789BB213439AB27B6877
:102030001A847B6893F82630002B02D04FF6FE738B
:1020400001E07B681B8C18460C37BD4680BC70478E
:1020500090B583B000AF78600B46FB707B68DC689E
:10206000FA78002315217868A047034618460C37F4
:10207000BD4690BD90B585B000AFF8600B467A6064
:10208000FB72FB68DC68FA7A7B681721F868A04766
:10209000034618461437BD4690BD90B583B000AFD7
:1020A00078607B68DC680023002218217868A047EC
:1020B000034618460C37BD4690BD90B583B000AFBF
:1020C00078607B68DC680023002219217868A047CB
:1020D000034618460C37BD4690BD90B585B000AF9D
:1020E000786039603B681B78FB733B6801333B6069
:1020F000FB7BFE2B31D0FE2B3DDC192B3BDC182B60
:1021000023DA162B02DC152B03DA34E0172B0ED062
:1021100031E03B681B78BB737B68DC68BA7BF97B7A
:1021200000237868A0473B6801333B6022E03B68AE
:102130001B78BB7307F10E031A4601217868FFF77D
:1021400099FF3B6801333B6014E07B68DC68F97BF6
:10215000002300227868A0470CE03B681B78BB7323
:10216000BB7B1A462921786800F016FA3B680133D8
:102170003B6000BFB6E700BF1437BD4690BD00000E
:1021800090B589B000AFF8607B600B46FB721346D8
:10219000BB72FB7A143B052B00F2A88001A252F817
:1021A00023F000BFDB220008BD2100080322000845
:1021B0002B220008DB220008DB220008F821F86847
:1021C00000F07BFA01222C21F86800F0E5F9BB7AD7
:1021D00023F00F03DBB21946F86800F06EFA012213
:1021E0002C21F86800F0D8F9BB7A1B01DBB2194644
:1021F000F86800F062FA01222C21F86800F0CCF9AE
:1022000076E0F821F86800F058FABB7A23F00F0363
:10221000DBB21946F86800F050FABB7A1B01DBB25A
:102220001946F86800F049FA62E0FA21F86800F00F
:1022300044FA01222C21F86800F0AEF97B68FB61BA
:1022400026E00823FB762D4B7B61FB695A1CFA6163
:102250001B78FB747B695A1C7A61FA7C22F00F02AE
:10226000D2B21A70FB7C1B01FB747B695A1C7A6129
:10227000FA7C1A70FB7E013BFB76FB7E002BE4D1DF
:10228000BB7A083BBB721D4A1021F86800F002FAC5
:10229000BB7A072BD5D817E0FB691B78FB74FB7C56
:1022A00023F00F03DBB21946F86800F006FAFB7C56
:1022B0001B01DBB21946F86800F0FFF9FB69013336
:1022C000FB61BB7A013BBB72BB7A002BE4D10122DC
:1022D0002C21F86800F060F90AE0FB681C69BA7A02
:1022E000F97A7B68F868A047034602E0002300E023
:1022F000012318462437BD4690BD00BF18040020B6
:1023000080B483B000AF786039607B683A681A6047
:102310007B681B689A7C7B6883F8222000BF0C379F
:10232000BD4680BC704790B583B000AF78607B68D5
:102330005C690023002228217868A0477B68DC685C
:102340000023002214217868A04701224B217868DD
:1023500000F022F97B681B681B791A4629217868EE
:1023600000F01AF900224B21786800F015F97B681B
:102370001B681B791A462921786800F00DF90122A3
:102380004B21786800F008F97B681B685B791A4676
:102390002921786800F000F900BF0C37BD4690BDD8
:1023A00090B585B000AF7860084611461A460346DE
:1023B000FB700B46BB7013467B70FB787B73BB785E
:1023C000BB737B783B733B6ABB607B689C6807F19F
:1023D000080301220F217868A047034618461437E6
:1023E000BD4690BD90B583B000AF78607B689C68B7
:1023F0000023002209217868A04700BF0C37BD46A2
:1024000090BD90B583B000AF78607B689C68002376
:1024100000220A217868A04700BF0C37BD4690BD56
:1024200090B583B000AF78600B46FB707B689C680A
:10243000FA7800230B217868A04700BF0C37BD460F
:1024400090BD000080B588B000AFF8607B600B469F
:10245000FB721346BB72FB7A0F2B1BD00F2B6EDC6B
:102460000A2B02D00B2B08D069E0F868FFF75BFF5E
:102470003649F868FFF731FE63E0BB7A002B04D1E0
:102480003349F868FFF729FE5BE03249F868FFF747
:1024900024FE56E07B689B79BB77BB7FDB00BB7774
:1024A0007B685B79FB77FB7F5B08FB77BB7F1F2B30
:1024B00005D9BB7F203BBB77FB7F0833FB77F868F0
:1024C000FFF7EBFD7B681B79FB757B681B68BB61C5
:1024D0003E21F868FFF7BCFD3E21F868FFF7B8FD24
:1024E00000237B7724E0BA7F7B7F1344DBB25BB2AF
:1024F00063F07F035BB2DBB21946F868FFF7A8FD13
:10250000FB7F63F07F03DBB21946F868FFF7A0FD9D
:102510007B681B79FB75FB7DBA691946F868FFF784
:10252000A9FDFB7DBA691344BB617B7F01337B77D7
:102530007B7F072BD7D9F868FFF7BFFD01E00023A9
:1025400000E0012318462037BD4680BD047700080F
:10255000187700082077000880B584B000AFF860D5
:102560007B600B46FB721346BB72FB7A092B06D1CC
:102570000849F868FFF7C4FE00BF012306E0BA7AF5
:10258000F97A7B68F868FFF75DFF03461846103755
:10259000BD4680BD2C77000890B583B000AF786051
:1025A0000B46FB701346BB707B685C69BA78F978A0
:1025B00000237868A04700BF0C37BD4690BD80B4AB
:1025C00085B000AFF8607B600B46FB721346BB72B0
:1025D000002318461437BD4680BC704780B483B0D2
:1025E00000AF78607B6800221A607B68114A9A60AD
:1025F0007B68104ADA607B680E4A1A617B680D4A74
:102600005A617B68002283F823207B68002283F8CC
:1026100026207B6800229A617B68FF2283F82420B1
:102620007B68FF2283F8282000BF0C37BD4680BCA2
:10263000704700BFBF25000880B584B000AFF860C8
:10264000B9607A603B60F868FFF7C8FFFB68BA685A
:102650009A60FB687A68DA60FB683A681A61FB681E
:10266000BA695A61F868FFF7BDFE00BF1037BD4672
:1026700080BD000080B483B000AF78607B68082222
:102680001A70034B18460C37BD4680BC704700BF1C
:102690002804002090B585B000AFF8600B467A6042
:1026A000FB72FB681C69FA7A7B681721F868A047FF
:1026B000034618461437BD4690BD80B582B000AFC2
:1026C00078600B46FB70FB1C1A4601217868FFF707
:1026D000E1FF034618460837BD4680BD80B400AF11
:1026E00000BFBD4680BC704780B485B000AF0023FA
:1026F000FB600023BB6000237B602F4B5B6803F013
:102700000C03FB60FB68082B11D0FB68082B3AD840
:10271000FB68002B03D0FB68042B04D033E0274B6D
:10272000274A1A6033E0254B254A1A602FE0224BD6
:102730005B6803F47013BB601F4B5B6803F480336A
:102740007B60BB689B0C0233BB607B68002B06D1AF
:10275000BB681C4A02FB03F3184A136017E0164BD0
:102760005B6803F40033002B06D0BB68154A02FBFC
:1027700003F3124A13600AE0BB68114A02FB03F339
:102780000E4A136003E00D4B0D4A1A6000BF0A4B5E
:102790005B681B0903F00F030B4AD35CFB60074B1C
:1027A0001A68FB6822FA03F3044A136000BF143767
:1027B000BD4680BC704700BF0010024008000020EA
:1027C00000127A0000093D004477000880B582B00D
:1027D00000AF7860124B1A68124B1B7819464FF401
:1027E0007A73B3FBF1F3B2FBF3F3184600F0D0F8C1
:1027F0000346002B01D001230EE07B680F2B0AD883
:10280000002279684FF0FF3000F0A6F8064A7B6896
:102810001360002300E0012318460837BD4680BD41
:1028200008000020100000200C00002080B400AF41
:10283000024B1B681846BD4680BC70472808002024
:1028400080B400AF044BDB681B0A03F00703184693
:10285000BD4680BC704700BF00ED00E080B483B08F
:1028600000AF03463960FB7197F90730002B0ADB94
:102870003B68DAB20C4997F907301201D2B20B4427
:1028800083F800230AE03B68DAB20849FB7903F0D9
:102890000F03043B1201D2B20B441A7600BF0C376F
:1028A000BD4680BC704700BF00E100E000ED00E0E5
:1028B00080B489B000AFF860B9607A60FB6803F05B
:1028C0000703FB61FB69C3F10703042B28BF042343
:1028D000BB61FB690433062B02D9FB69033B00E0B3
:1028E00000237B614FF0FF32BB6902FA03F3DA4346
:1028F000BB681A407B699A404FF0FF317B6901FA4F
:1029000003F3D9437B680B40134318462437BD4675
:1029100080BC704780B582B000AF78607B68013BB7
:10292000B3F1807F01D301230FE00A4A7B68013BAA
:1029300053600F214FF0FF30FFF790FF054B00224F
:102940009A60044B07221A60002318460837BD46D8
:1029500080BD00BF10E000E080B586B000AF034648
:10296000B9607A60FB7300237B61FFF769FF7861D0
:102970007A68B9687869FFF79BFF024697F90F30CC
:1029800011461846FFF76AFF00BF1837BD4680BDE5
:1029900080B582B000AF78607868FFF7BBFF034670
:1029A00018460837BD4680BD80B586B000AF786058
:1029B0007B68002B01D1012372E27B681B6803F066
:1029C0000103002B00F08780924B5B6803F00C033F
:1029D000042B0CD08F4B5B6803F00C03082B12D137
:1029E0008C4B5B6803F48033B3F5803F0BD1894B8C
:1029F0001B6803F40033002B6CD07B685B68002BF2
:102A000068D101234CE27B685B68B3F5803F06D157
:102A1000804B1B687F4A43F4803313602EE07B6851
:102A20005B68002B0CD17B4B1B687A4A23F4803304
:102A30001360784B1B68774A23F4802313601DE0F2
:102A40007B685B68B3F5A02F0CD1724B1B68714A91
:102A500043F4802313606F4B1B686E4A43F480334A
:102A600013600BE06B4B1B686A4A23F480331360DE
:102A7000684B1B68674A23F4802313607B685B689C
:102A8000002B13D0FFF7D2FE386108E0FFF7CEFE2F
:102A900002463B69D31A642B01D9032300E25D4B44
:102AA0001B6803F40033002BF0D014E0FFF7BEFEE8
:102AB000386108E0FFF7BAFE02463B69D31A642B7F
:102AC00001D90323ECE1534B1B6803F40033002BC3
:102AD000F0D100E000BF7B681B6803F00203002B0D
:102AE00063D04C4B5B6803F00C03002B0BD0494BBD
:102AF0005B6803F00C03082B1CD1464B5B6803F4A6
:102B00008033002B16D1434B1B6803F00203002BCC
:102B100005D07B681B69012B01D00123C0E13D4B2F
:102B20001B6823F0F8027B685B69DB0039491343BB
:102B30000B603AE07B681B69002B20D0364B0122EA
:102B40001A60FFF773FE386108E0FFF76FFE024678
:102B50003B69D31A022B01D90323A1E12D4B1B683A
:102B600003F00203002BF0D02A4B1B6823F0F8027D
:102B70007B685B69DB00274913430B6015E0264B3C
:102B800000221A60FFF752FE386108E0FFF74EFEA0
:102B900002463B69D31A022B01D9032380E11D4B66
:102BA0001B6803F00203002BF0D17B681B6803F065
:102BB0000803002B3AD07B689B69002B19D0174B78
:102BC00001221A60FFF732FE386108E0FFF72EFE9F
:102BD00002463B69D31A022B01D9032360E10D4B56
:102BE0005B6A03F00203002BF0D0012000F0D8FA5A
:102BF0001CE00A4B00221A60FFF718FE38610FE054
:102C0000FFF714FE02463B69D31A022B08D90323AF
:102C100046E100BF001002400000424280044242F0
:102C2000924B5B6A03F00203002BE9D17B681B68BF
:102C300003F00403002B00F0A6800023FB758B4BF0
:102C4000DB6903F08053002B0DD1884BDB69874A89
:102C500043F08053D361854BDB6903F08053BB6045
:102C6000BB680123FB75824B1B6803F48073002B48
:102C700018D17F4B1B687E4A43F480731360FFF7C3
:102C8000D5FD386108E0FFF7D1FD02463B69D31A54
:102C9000642B01D9032303E1754B1B6803F4807394
:102CA000002BF0D07B68DB68012B06D16F4B1B6AD1
:102CB0006E4A43F0010313622DE07B68DB68002B52
:102CC0000CD16A4B1B6A694A23F001031362674BFC
:102CD0001B6A664A23F0040313621CE07B68DB680E
:102CE000052B0CD1614B1B6A604A43F0040313624D
:102CF0005E4B1B6A5D4A43F0010313620BE05B4BC2
:102D00001B6A5A4A23F001031362584B1B6A574A45
:102D100023F0040313627B68DB68002B15D0FFF7F8
:102D200085FD38610AE0FFF781FD02463B69D31A51
:102D300041F28832934201D90323B1E04B4B1B6A25
:102D400003F00203002BEED014E0FFF76FFD3861B3
:102D50000AE0FFF76BFD02463B69D31A41F2883265
:102D6000934201D903239BE0404B1B6A03F002030B
:102D7000002BEED1FB7D012B05D13C4BDB693B4A9F
:102D800023F08053D3617B68DB69002B00F08780E0
:102D9000364B5B6803F00C03082B61D07B68DB6962
:102DA000022B46D1334B00221A60FFF73FFD3861FA
:102DB00008E0FFF73BFD02463B69D31A022B01D91D
:102DC00003236DE0294B1B6803F00073002BF0D147
:102DD0007B681B6AB3F5803F08D1244B5B6823F402
:102DE00000327B689B68214913434B601F4B5B6833
:102DF00023F474127B68196A7B685B6A0B431B4976
:102E000013434B601B4B01221A60FFF70FFD386123
:102E100008E0FFF70BFD02463B69D31A022B01D9EC
:102E200003233DE0114B1B6803F00073002BF0D02F
:102E300035E0104B00221A60FFF7F8FC386108E01B
:102E4000FFF7F4FC02463B69D31A022B01D9032396
:102E500026E0064B1B6803F00073002BF0D11EE048
:102E60007B68DB69012B07D1012319E000100240C8
:102E700000700040600042420B4B5B68FB60FB68E7
:102E800003F480327B681B6A9A4206D1FB6803F424
:102E900070127B685B6A9A4201D0012300E0002334
:102EA00018461837BD4680BD0010024080B584B07A
:102EB00000AF786039607B68002B01D10123D0E03E
:102EC0006A4B1B6803F007033A689A4210D9674BB4
:102ED0001B6823F0070265493B6813430B60634B93
:102EE0001B6803F007033A689A4201D00123B8E057
:102EF0007B681B6803F00203002B20D07B681B68F3
:102F000003F00403002B05D0594B5B68584A43F487
:102F1000E06353607B681B6803F00803002B05D057
:102F2000534B5B68524A43F460535360504B5B68A9
:102F300023F0F0027B689B684D4913434B607B682C
:102F40001B6803F00103002B40D07B685B68012BFA
:102F500007D1474B1B6803F40033002B15D1012325
:102F60007FE07B685B68022B07D1414B1B6803F055
:102F70000073002B09D1012373E03D4B1B6803F064
:102F80000203002B01D101236BE0394B5B6823F076
:102F900003027B685B68364913434B60FFF746FCCE
:102FA000F8600AE0FFF742FC0246FB68D31A41F2E0
:102FB0008832934201D9032353E02D4B5B6803F021
:102FC0000C027B685B689B009A42EBD1274B1B6825
:102FD00003F007033A689A4210D2244B1B6823F08F
:102FE000070222493B6813430B60204B1B6803F028
:102FF00007033A689A4201D0012332E07B681B68DC
:1030000003F00403002B08D0194B5B6823F4E06243
:103010007B68DB68164913434B607B681B6803F0D1
:103020000803002B09D0124B5B6823F460527B68C5
:103030001B69DB000E4913434B6000F021F8024688
:103040000B4B5B681B0903F00F030A49CB5C22FAA8
:1030500003F3094A1360094B1B681846FFF7B6FBD8
:10306000002318461037BD4680BD00BF0020024037
:103070000010024044770008080000200C000020E7
:1030800090B48AB000AF294B3C1D0FCB84E80F00F1
:1030900040F201233B800023FB610023BB6100233E
:1030A0007B6200237B6100233B62214B5B68FB61F9
:1030B000FB6903F00C03042B02D0082B03D02BE098
:1030C0001C4B3B622BE0FB699B0C03F00F03283386
:1030D0003B4413F8243C7B61FB6903F48033002BF1
:1030E00012D0134B5B685B0C03F0010328333B44A5
:1030F00013F8283CBB617B690E4A03FB02F2BB69F3
:10310000B2FBF3F37B6204E07B690B4A02FB03F33F
:103110007B627B6A3B6202E0064B3B6200BF3B6A1C
:1031200018462837BD4690BC704700BF5C77000842
:103130000010024000127A0000093D0080B400AF88
:10314000024B1B681846BD4680BC70470800002033
:1031500080B500AFFFF7F2FF0246054B5B681B0A24
:1031600003F007030349CB5C22FA03F3184680BD42
:10317000001002405477000880B500AFFFF7DEFF73
:103180000246054B5B68DB0A03F007030349CB5C8F
:1031900022FA03F3184680BD00100240547700085D
:1031A00080B485B000AF78600A4B1B680A4AA2FB66
:1031B00003235B0A7A6802FB03F3FB6000BFFB6832
:1031C0005A1EFA60002BF9D100BF00BF1437BD466C
:1031D00080BC704708000020D34D621080B586B0D7
:1031E00000AF786000233B610023FB607B681B68B5
:1031F00003F00103002B7DD00023FB754F4BDB69EF
:1032000003F08053002B0DD14C4BDB694B4A43F04C
:103210008053D361494BDB6903F08053BB60BB68CB
:103220000123FB75464B1B6803F48073002B18D1F8
:10323000434B1B68424A43F480731360FFF7F6FA6E
:10324000386108E0FFF7F2FA02463B69D31A642BB3
:1032500001D903236DE03A4B1B6803F48073002B04
:10326000F0D0364B1B6A03F44073FB60FB68002B05
:103270002ED07B685B6803F44073FA689A4227D0CB
:103280002E4B1B6A23F44073FB602E4B01221A6005
:103290002C4B00221A60294AFB681362FB6803F07A
:1032A0000103002B14D0FFF7C1FA38610AE0FFF7E1
:1032B000BDFA02463B69D31A41F28832934201D9E2
:1032C000032336E01D4B1B6A03F00203002BEED0F4
:1032D0001A4B1B6A23F440727B685B6817491343DF
:1032E0000B62FB7D012B05D1144BDB69134A23F0E4
:1032F0008053D3617B681B6803F00203002B08D066
:103300000E4B5B6823F440427B689B680B49134378
:103310004B607B681B6803F01003002B08D0074B41
:103320005B6823F480027B68DB68044913434B60CD
:10333000002318461837BD4680BD00BF001002406C
:10334000007000404004424280B48BB000AF78600F
:10335000396000237B6200233B6269E101227B6AC2
:1033600002FA03F3FB613B681B68FA691340BB6117
:10337000BA69FB699A4240F058813B685B689A4A97
:1033800093425ED0984A934275D8984A934258D057
:10339000964A93426FD8964A934252D0944A9342A7
:1033A00069D8944A93424CD0924A934263D8924A45
:1033B000934246D0904A93425DD8122B2AD8122BC2
:1033C00059D801A252F823F0433400081D340008F4
:1033D0002F3400087134000877340008773400086F
:1033E0007734000877340008773400087734000811
:1033F0007734000877340008773400087734000801
:103400007734000877340008773400082534000842
:1034100039340008794A934213D02CE03B68DB68CA
:103420003B6229E03B68DB6804333B6224E03B6895
:10343000DB6808333B621FE03B68DB680C333B62B0
:103440001AE03B689B68002B02D104233B6213E027
:103450003B689B68012B05D108233B627B68FA69B6
:103460001A6109E008233B627B68FA695A6103E04C
:1034700000233B6200E000BFBB69FF2B01D87B68E3
:1034800001E07B6804337B61BB69FF2B02D87B6A58
:103490009B0002E07B6A083B9B003B617B691A68EA
:1034A0000F213B6901FA03F3DB431A40396A3B6998
:1034B00001FA03F31A437B691A603B685B6803F007
:1034C0008053002B00F0B1804D4B9B694C4A43F078
:1034D000010393614A4B9B6903F00103BB60BB6826
:1034E000484A7B6A9B08023352F82330FB607B6AB0
:1034F00003F003039B000F2202FA03F3DB43FA6895
:103500001340FB607B68404A934213D07B683F4A7C
:1035100093420DD07B683E4A934207D07B683D4A78
:10352000934201D1032306E0042304E0022302E0D6
:10353000012300E000237A6A02F003029200934024
:10354000FA681343FB602F497B6A9B080233FA68D1
:1035500041F823203B685B6803F48033002B06D0DE
:103560002D4B1A682C49BB6913430B6006E02A4BAC
:103570001A68BB69DB43284913400B603B685B68F2
:1035800003F40033002B06D0234B5A682249BB6951
:1035900013434B6006E0204B5A68BB69DB431E496E
:1035A00013404B603B685B6803F48013002B06D02C
:1035B000194B9A681849BB6913438B6006E0164B98
:1035C0009A68BB69DB43144913408B603B685B68B6
:1035D00003F40013002B21D00F4BDA680E49BB69AE
:1035E0001343CB6021E000BF000032100000311017
:1035F0000000221000002110000012100000111025
:10360000001002400000014000080140000C014091
:103610000010014000140140000401400B4BDA6827
:10362000BB69DB4309491340CB607B6A01337B6292
:103630003B681A687B6A22FA03F3002B7FF48EAE94
:1036400000BF00BF2C37BD4680BC7047000401405E
:1036500080B483B000AF78600B467B8013467B70EC
:103660007B78002B03D07A887B681A6103E07B8823
:103670001A047B681A6100BF0C37BD4680BC7047D6
:1036800080B582B000AF78607B68002B01D1012348
:103690007EE07B685B6A002B08D17B685B68B3F5D2
:1036A000827F09D07B680022DA6105E07B68002216
:1036B0001A617B6800225A617B6893F85130DBB253
:1036C000002B06D17B68002283F85020786800F038
:1036D00063F87B68022283F851207B681B681A68B4
:1036E0007B681B6822F040021A607B685B6803F409
:1036F00082727B689B6803F404431A437B68DB682F
:1037000003F400631A437B681B6903F002031A4346
:103710007B685B6903F001031A437B689B6903F4D0
:1037200000731A437B68DB6903F038031A437B6834
:103730001B6A03F0800342EA03017B689B6A03F47F
:1037400000527B681B680A431A607B689B691A0CED
:103750007B681B6802F004025A607B689B6AB3F5C1
:10376000005F05D17B68DA6A7B681B6892B21A61D8
:103770007B681B68DA697B681B6822F40062DA6187
:103780007B6800225A657B68012283F85120002360
:1037900018460837BD4680BD80B483B000AF78605E
:1037A00000BF0C37BD4680BC704780B588B000AF05
:1037B000F860B9603B601346FB800023FB77FB6831
:1037C00093F85030012B01D1022348E1FB6801221C
:1037D00083F85020FFF72AF8B861FB88FB82FB686A
:1037E00093F85130DBB2012B02D00223FB772DE19D
:1037F000BB68002B02D0FB88002B02D10123FB7792
:1038000024E1FB68032283F85120FB6800225A65FB
:10381000FB68BA681A63FB68FA889A86FB68FA88BC
:10382000DA86FB6800229A63FB6800229A87FB68AD
:103830000022DA87FB6800225A64FB6800221A64BF
:10384000FB689B68B3F5004F0FD1FB681B681A68D3
:10385000FB681B6822F040021A60FB681B681A684C
:10386000FB681B6842F480421A60FB689B6AB3F5F0
:10387000005F0FD1FB681B681A68FB681B6822F4A5
:1038800000521A60FB681B681A68FB681B6842F4E8
:1038900000521A60FB681B681B6803F04003402B52
:1038A00007D0FB681B681A68FB681B6842F040027F
:1038B0001A60FB68DB68B3F5006F4BD1FB685B688F
:1038C000002B02D0FB8A012B3ED1FB681B6B1A88B0
:1038D000FB681B68DA60FB681B6B9A1CFB681A6349
:1038E000FB68DB8E9BB2013B9AB2FB68DA862BE069
:1038F000FB681B689B6803F00203022B12D1FB6874
:103900001B6B1A88FB681B68DA60FB681B6B9A1CD0
:10391000FB681A63FB68DB8E9BB2013B9AB2FB68C3
:10392000DA8611E0FEF782FF0246BB69D31A3A68D5
:103930009A4203D83B68B3F1FF3F02D13B68002BAA
:1039400002D10323FB7781E0FB68DB8E9BB2002B67
:10395000CED14CE0FB685B68002B02D0FB8A012BC8
:1039600040D1FB681A6BFB681B680C3312781A7025
:10397000FB681B6B5A1CFB681A63FB68DB8E9BB2EF
:10398000013B9AB2FB68DA862CE0FB681B689B68F7
:1039900003F00203022B13D1FB681A6BFB681B6850
:1039A0000C3312781A70FB681B6B5A1CFB681A6385
:1039B000FB68DB8E9BB2013B9AB2FB68DA8611E0B2
:1039C000FEF734FF0246BB69D31A3A689A4203D81D
:1039D0003B68B3F1FF3F02D13B68002B02D10323C8
:1039E000FB7733E0FB68DB8E9BB2002BCDD1FB680D
:1039F0009B6AB3F5005F07D1FB681B681A68FB6818
:103A00001B6842F480521A60BA693968F86800F09D
:103A1000B3F80346002B02D0FB6820225A65FB68EE
:103A20009B68002B0AD100233B61FB681B68DB68A5
:103A30003B61FB681B689B683B613B69FB685B6D96
:103A4000002B02D00123FB7700E000BFFB680122BE
:103A500083F85120FB68002283F85020FB7F184632
:103A60002037BD4680BD000080B588B000AFF8604B
:103A7000B9603B601346FB71FEF7D8FE0246BB6A95
:103A80009B1A3A681344FB61FEF7D0FEB861394BCC
:103A90001B685B011B0DFA6902FB03F37B6154E0B9
:103AA0003B68B3F1FF3F50D0FEF7C0FE0246BB6952
:103AB000D31AFA699A4202D9FB69002B3DD1FB68FF
:103AC0001B685A68FB681B6822F0E0025A60FB68BA
:103AD0005B68B3F5827F11D1FB689B68B3F5004F3B
:103AE00004D0FB689B68B3F5806F07D1FB681B6847
:103AF0001A68FB681B6822F040021A60FB689B6A28
:103B0000B3F5005F0FD1FB681B681A68FB681B6880
:103B100022F400521A60FB681B681A68FB681B6875
:103B200042F400521A60FB68012283F85120FB68BE
:103B3000002283F85020032317E07B69002B01D17A
:103B40000023FB617B69013B7B61FB681B689A6812
:103B5000BB681340BA689A420CBF01230023DBB252
:103B60001A46FB799A429BD1002318462037BD465E
:103B700080BD00BF0800002080B586B002AFF860AD
:103B8000B9607A607B680093BB6800228021F86886
:103B9000FFF76AFF0346002B07D0FB685B6D43F01D
:103BA0002002FB685A65032300E000231846103703
:103BB000BD4680BD0C480D490D4A002302E0D45893
:103BC000C4500433C4188C42F9D30A4A0A4C002367
:103BD00001E013600432A242FBD3FEF77FFD00F048
:103BE0000FF8FCF7C5FA704700000020EC01002038
:103BF000187B0008EC01002040080020FEE70000D0
:103C000070B500260C4D0D4C641BA410A64209D1C2
:103C100003F0E2F900260A4D0A4C641BA410A642E8
:103C200005D170BD55F8043B98470136EEE755F8CD
:103C3000043B98470136F2E7E4010020E40100204C
:103C4000E4010020E80100200A44914200F1FF3322
:103C500000D1704710B511F8014B914203F8014FA4
:103C6000F9D110BD03460244934200D1704703F8D6
:103C7000011BF9E7002B2DE9F0471F46BBBF03F1FD
:103C800000431F4600232D2388B01446129A109D2E
:103C90001370149BDDF84CA023F02008B8F1460FF8
:103CA00005D0B8F1450F00D10135022300E0032310
:103CB00007AA049206AACDE902A2CDE90035224660
:103CC0003B4600F0CDFCB8F1470F064602D1119BF0
:103CD000DB0722D5B8F1460F06EB050910D1337882
:103CE000302B0AD1002200232046394603F0B4F8D5
:103CF00018B9C5F10105CAF80050DAF80030994446
:103D0000002200232046394603F0A6F808B1CDF87A
:103D10001C903022079B4B4507D33046079B159AD2
:103D20009B1B136008B0BDE8F087591C07911A70FF
:103D3000F0E70346F7B5002903F8022BB6BF2D22A2
:103D40002B224942092942702BDD0DF10704A446BC
:103D50000A2791FBF7F60A46A64607FB1615632AC3
:103D600005F13005314604F1FF340EF8015CF0DC5A
:103D70003031AEF1020504F8011C2946441C6145AE
:103D80000AD30DF10902A2EB0E02654588BF00229D
:103D90001344181A03B0F0BD11F8012B04F8012FD9
:103DA000EDE7302330318370C170031DF1E700006F
:103DB0002DE9F04F91B00C46DDF8688016461F469D
:103DC000054601F03BFA03681846099300F0B2FB80
:103DD00000230E93D8F800300A90073323F007032E
:103DE00003F1080294F81890D4F800B0C8F8002045
:103DF000D3E90023C4E91223D4E9128A2AF000434C
:103E00000B934FF0FF3240469C4B0B9903F056F852
:103E100070BB4FF0FF324046984B0B9903F030F8DF
:103E200030BB002200234046514603F01FF810B17A
:103E30002D2384F84330924B9248B9F1470F94BF39
:103E40009846804603234FF0000A23612BF00403B9
:103E5000236033462146284600970FAA00F0D4F984
:103E6000013040F090804FF0FF3011B0BDE8F08F8E
:103E7000424653464046514603F020F848B1BAF155
:103E8000000FB8BF2D238048B8BF84F843307F4B64
:103E9000D3E7636809F0DF015A1C42D1062363604F
:103EA000002206920EAACDE904920DAA4BF480637B
:103EB00003920DF13302CDE901322360636842467B
:103EC0000093284653460B91FFF7D4FE0B9980468A
:103ED00047290D9908D1C81C02DB6368994240DD6F
:103EE000A9F102095FFA89F9B9F1650F1FD84A46AD
:103EF000013904F150000D91FFF71BFF0E9A824625
:103F00001318012A236102DC2268D20701D501338C
:103F100023619DF83330002B9BD02D2384F8433050
:103F200097E74729BCD1002BBAD10123B7E7B9F1F4
:103F3000660F18D1002963680BDD216113B922686F
:103F4000D00702D501330B4423614FF0000AA1656D
:103F5000DFE713B92268D20701D50233F4E7012362
:103F6000F2E74FF067090E9B994205DB2368216158
:103F7000D807EAD54B1CE7E70029CCBF0122C1F1E5
:103F800002021344E0E723685A0507D42369424636
:103F900031462846B84701302BD164E7B9F1650FA7
:103FA00040F2DD80D4E912010022002302F054FF28
:103FB000002833D0012331462846354AB84701301E
:103FC0003FF451AFDDE90D239A4202DB2368D807A5
:103FD0000FD5DDE9092331462846B84701303FF4C3
:103FE00042AF4FF0000804F11A090E9B013B434514
:103FF00009DC23689B0700F10281E0680F9B98426F
:10400000B8BF184631E701234A4631462846B8472B
:1040100001303FF428AF08F10108E6E70D9B002BC3
:1040200038DC012331462846194AB84701303FF4AD
:104030001AAFDDE90D23134302D12368D907D8D580
:10404000DDE9092331462846B84701303FF40BAF7C
:104050004FF0000904F11A0A0D9B5B424B4501DC4D
:104060000E9B94E70123524631462846B84701305B
:104070003FF4F9AE09F10109EEE700BFFFFFEF7F62
:1040800070770008747700087C770008787700085C
:10409000807700080E9AA36D9A42A8BF1A46002A9C
:1040A000914637DC4FF0000B29EAE97904F11A0256
:1040B000D4F858A0AAEB09035B4533DCDDE90D23F6
:1040C0009A423BDB2368DA0738D40E9B0D99A3EBA9
:1040D0000A02A3EB01099145A8BF9146B9F1000F6F
:1040E00034DC4FF0000829EAE97904F11A0ADDE925
:1040F0000D239B1AA3EB090343457FF77AAF0123F6
:10410000524631462846B84701303FF4ACAE08F17C
:104110000108ECE71346314642462846B8470130CD
:10412000C0D1A0E60123314628460B92B8470130A2
:104130003FF499AE0B9A0BF1010BB9E73146DDE97B
:1041400009232846B8470130BFD18CE64B4631469B
:10415000284608EB0A02B8470130C2D183E60E9A1E
:10416000012A01DCDB0737D50123424631462846C8
:10417000B84701303FF477AEDDE9092331462846E0
:10418000B84701303FF46FAED4E91201002200239A
:1041900002F062FED8B90E9B08F10102013B3146E4
:1041A0002846B84701300ED15DE601234A46314624
:1041B0002846B84701303FF456AE08F101080E9B7F
:1041C000013B4345F1DC534604F15002E0E64FF079
:1041D000000804F11A09F2E701234246DFE7012350
:1041E0004A4631462846B84701303FF43CAE08F114
:1041F0000108E3680F995B1A4345F0DCFDE64FF0D8
:10420000000804F11909F4E72DE9F047164699462C
:104210008A680B6907469342B8BF1346336091F82A
:1042200043200C46DDF820800AB101333360236857
:10423000990642BF336802333360256815F00605DE
:1042400006D104F1190AE36832689B1AAB4228DCF4
:1042500094F84320131E226818BF012392062DD420
:104260004946384604F14302C047013020D0236854
:10427000E56803F00603042B18BF002532684FF0F1
:104280000006A36808BFAD1A226908BF25EAE575D4
:104290009342C4BF9B1AED181A34B5421AD10020BC
:1042A00008E00123524649463846C047013003D151
:1042B0004FF0FF30BDE8F0870135C4E73020E1184A
:1042C00081F843005A1C94F845102244023382F8C6
:1042D0004310C5E70123224649463846C04701300E
:1042E000E6D00136D9E700002DE9FF470F7E914661
:1042F000782F80460C469A460C9D01F1430207D860
:10430000622F0AD8002F00F0D980582F00F0A48027
:1043100004F1420584F842703AE0A7F16303152BDB
:10432000F6D801A151F823F0814300089543000815
:10433000114300081143000811430008114300080D
:104340009543000811430008114300081143000879
:1043500011430008A3440008C54300088544000831
:104360001143000811430008C54400081143000828
:10437000C543000811430008114300088D4400089C
:104380002B681A1D1B682A6004F1420584F842302C
:104390000123A4E020682968060601F104030AD578
:1043A0000E682B60002E03DA2D23764284F843300A
:1043B0000A235E4819E00E6810F0400F2B6018BF0A
:1043C00036B2EFE72B682068191D2960010601D578
:1043D0001E6802E04606FBD51E886F2F0CBF08231F
:1043E0000A235248002184F843106568002DA8BFB5
:1043F0002168A560A4BF21F0040121600EB9002D41
:104400004DD01546B6FBF3F103FB1167C75D05F808
:10441000017D3746BB420E46F4D9082B0BD12368E9
:10442000DE0708D5236961689942DEBF302305F8AD
:10443000013C05F1FF35521B22614B4621464046A7
:10444000CDF800A003AAFFF7DFFE01304CD14FF0FA
:10445000FF3004B0BDE8F087344881F84570296822
:10446000236851F8046B29601D0614D5DF0744BF8B
:1044700043F0200323601EB9236823F02003236048
:104480001023AFE7236843F02003236078232848F4
:1044900084F84530E3E7590648BFB6B2E6E715466B
:1044A000BBE72B682668181D6169286035061B6804
:1044B00001D5196002E07006FBD51980002315466E
:1044C0002361BAE72B6800211A1D2A601D68626803
:1044D000284600F0D5FE08B1401B60606368236188
:1044E000002384F84330A8E72A464946404623691A
:1044F000D0470130ABD023689B0713D4E068039BFF
:104500009842B8BF1846A4E70123324649464046C0
:10451000D04701309BD00135E36803995B1AAB4269
:10452000F2DCEBE7002504F11906F5E782770008D5
:1045300093770008034613F8012B002AFBD1181AC1
:10454000013870472DE9F74F03690C690746A3420C
:10455000C0F28280013C00F1140501F1140805EB62
:104560008403019358F8243055F8242001339A42EB
:10457000B2FBF3F64FEA840B08EB840931D34FF01A
:10458000000E4046AC46F24650F8042B93B206FBB0
:1045900003E3120C4FEA134E9BB206FB02E2AAEBB6
:1045A0000303DCF800A04FEA124E1FFA8AFA5344C4
:1045B000DCF800A092B2C2EB1A4202EB23429BB29B
:1045C00043EA024381454FEA224A4CF8043BDBD2DE
:1045D00055F80B302BB9019B043B9D421A462FD353
:1045E0003C61384601F0D8F8002825DB28464FF01A
:1045F000000C013658F8041BD0F800E08BB2ACEB8D
:1046000003031FFA8EF213440A0CC2EB1E4202EBA4
:1046100023429BB243EA0243C1454FEA224C40F891
:10462000043BE7D255F8242005EB840322B9043B70
:104630009D421A460AD33C61304603B0BDE8F08F74
:104640001268043B002ACBD1013CC6E71268043B48
:10465000002AF0D1013CEBE70020EEE7000000006B
:104660002DE9F04F16461F46446A99B00546CDE93C
:104670000467DDF8948074B9102000F0E7FD02466D
:10468000686220B9EA21A84BA84801F05DFAC0E9A8
:1046900001440460C4606B6A196851B15A6801230F
:1046A00093404A608B60284600F038FE00226B6A17
:1046B0001A603B1EAFBF0023012223F00043059385
:1046C000A8BFC8F80030DDF81490994BB8BFC8F8FF
:1046D000002033EA090319D142F20F73249A1360C0
:1046E000C9F31303334300F07F85269B53B9914BE5
:1046F00022E0914B03930833269A1360039819B074
:10470000BDE8F08F8B4B03930333F5E7DDE9043409
:10471000CDE90C34DDE90C010022002302F09CFB02
:10472000804658B10123249A1360269B002B00F089
:10473000588582481860431E0393DFE716AB019348
:1047400017AB00932846DDE90C2301F0CDF8C9F33F
:104750000A548346002C7FD0DDE90C010D9BA4F2A6
:10476000FF34C3F3130343F07F5141F44011CDF8FC
:104770004C800022724B01F04FFF65A3D3E9002368
:1047800002F002F964A3D3E9002301F047FF0646D3
:1047900020460F4602F08EF861A3D3E9002302F011
:1047A000F3F802460B463046394601F037FF06461D
:1047B0000F4602F099FB002282460023304639461C
:1047C00002F054FB48B1504602F074F832463B46C2
:1047D00002F042FB08B90AF1FF3ABAF1160F58D8B5
:1047E000DDE90C01574B03EBCA03D3E9002302F0C8
:1047F0003DFB00284FD000230AF1FF3A0F93169B90
:104800001C1B631E099349BFC4F1010300230693D7
:10481000002354BF06930993BAF1000F3DDB099BB7
:10482000CDF838A05344099300230A93229B092B07
:1048300000F28C80052BC4BF043B2293229BC8BF8F
:104840000024A3F10203D8BF0124032B00F28A80C5
:10485000DFE803F02D4F4D5BDDE916431C4404F205
:104860003243202BC3BFC3F1400304F2124009FAC4
:1048700003F3C3F12003C6BF26FA00F0184306FA7B
:1048800003F002F007F80123A1F1F871013C139342
:104890006FE70123B2E70F90B1E7069BA3EB0A0392
:1048A0000693CAF100030A9300230E93BEE7002388
:1048B0000B93239B002B58DC4FF001094B46CDF89E
:1048C0002090CDF88C900022686A4260042202F1A8
:1048D00014069E4241684ED9284600F0DFFC039042
:1048E00000284CD102464FF4D571174BCCE601237A
:1048F000DEE700230B93239B0AEB030909F1010375
:10490000012B0893B8BF0123DDE70123F2E700BFC5
:1049100061436F63A787D23FB3C8608B288AC63FC5
:10492000FB799F501344D33FB1770008C877000844
:104930000000F07FAD770008A477000881770008B9
:104940000000F83F90780008077800080124002351
:104950000B9422934FF0FF3900221223CDF82090C0
:104960002392B0E701230B93F4E7DDF88C904B46DC
:10497000CDF82090A7E7013141605200A7E76B6AAC
:10498000039A1A60089B0E2B00F2A880002C00F0FE
:10499000A580BAF1000F34DD9A4A0AF00F0302EB4A
:1049A000C3031AF4807FD3E90034CDE910344FEA11
:1049B0002A1416D0DDE90C01934B0327D3E9082311
:1049C00002F00CF9CDE9040104F00F048E4E54B945
:1049D000DDE91023DDE9040102F000F9CDE904016D
:1049E00029E00227F2E7E10708D5DDE91001D6E961
:1049F000002301F0C9FFCDE910010137641008362A
:104A0000E5E700F0A580DDE90C01CAF100047D4B6B
:104A100004F00F0203EBC203D3E9002301F0B4FF5B
:104A200002270023CDE90401774E2411002C40F029
:104A30008480002BD2D10F9B002B00F08B80DDE90E
:104A40000434CDE91034DDE9100100226F4B02F08F
:104A50000DFA00287ED0089B002B7BD0B9F1000F07
:104A600038DDDDE910010022694B01F08DFF4C4675
:104A7000CDE904010AF1FF380137384601F01AFF89
:104A8000DDE9042301F080FF0022624B01F0C6FD46
:104A9000A1F15076CDE910011196002C5DD1DDE930
:104AA000040100225C4B01F0B7FD02460B46CDE944
:104AB00004233346109A02F0F7F9002840F09C8254
:104AC000DDE90401109A06F1004302F0CFF9002855
:104AD00040F09082DDE90C34CDE90434179B002BC3
:104AE000C0F25281BAF10E0F00F34E81454B03EB39
:104AF000CA03D3E90034CDE90634239B002B80F2AE
:104B0000DB80089B002B00F3D78040F07282DDE948
:104B100006010022404B01F037FFDDE9042302F0DB
:104B2000B9F9089C2646002840F048823123039FAB
:104B30000AF1010A07F8013B44E2E20705D5D6E98C
:104B4000002301F021FF01230137641008366DE7CF
:104B5000022770E7D046089C8FE70399294B214430
:104B600012910B9903EBC403DDE9106753E90223AB
:104B7000002955D00020294902F030F83B46324642
:104B800001F04AFDCDE91001039FDDE9040102F0C7
:104B9000ABF9044601F08EFE02460B46DDE9040146
:104BA00001F03AFD02460B463034CDE90423DDE93D
:104BB000102307F8014B02F059F9002874D1DDE900
:104BC00004230020114901F027FDDDE9102302F044
:104BD0004DF9002840F0B780129B9F423FF47AAF16
:104BE000DDE9100100220A4B01F0CEFE0022CDE9E2
:104BF0001001DDE90401064B01F0C6FECDE9040118
:104C0000C3E700BF90780008687800080000F03F14
:104C10000000244000001C40000014400000E03F61
:104C20003046394601F0B0FE129BCDE91001039CDD
:104C30001493DDE9040102F057F9159001F03AFEF2
:104C400002460B46DDE9040101F0E6FC159B064631
:104C5000303304F8013B129B0F469C424FF0000298
:104C600024D1DDE91001B04B01F0D8FC02460B461F
:104C70003046394602F018F9002863D1DDE91023E7
:104C80000020A94901F0C8FC02460B4630463946CF
:104C900002F0ECF800283FF41DAF149F7B1E149324
:104CA00017F8013C302BF8D0C2463BE09F4B01F097
:104CB0006BFECDE90401BCE7039FDDE90489DDE972
:104CC00006234046494601F089FF02F00DF90446EB
:104CD00001F0F0FDDDE9062301F056FE02460B4629
:104CE0004046494601F098FC04F1300607F8016B94
:104CF000039EDDF820C0BE1BB44502460B4636D1EC
:104D000001F08CFCDDE906238046894602F0CCF8F0
:104D100058BBDDE906234046494602F09DF808B13C
:104D2000E10722D42846594600F0F8FA00233B70E8
:104D3000249B0AF101001860269B002B3FF4DEAC97
:104D40001F60DBE427463B461F4613F8012D392A36
:104D500007D1039A9A42F7D13022039908F101084A
:104D60000A701A7801321A709EE7D046EBE70022EB
:104D70006E4B01F009FE002200238046894602F0B6
:104D80006BF800289BD0CDE70B9A002A00F0D0806A
:104D9000229A012A00F3AE80139A002A00F0A6801E
:104DA00003F233430A9C069F069A01211A44069295
:104DB000099A28461A44099200F066FB0646002F1D
:104DC0000CDD099B002B09DDBB42A8BF3B46069AC0
:104DD000FF1AD21A0692099AD31A09930A9BF3B1C1
:104DE0000B9B002B00F0A880002C10DD31462246E2
:104DF000284600F007FC5A4601460646284600F0C1
:104E000059FB80465946284600F088FAC3460A9B5B
:104E10001A1B04D05946284600F0F4FB83460121B2
:104E2000284600F031FB0E9B0446002B40F38680A1
:104E30001A460146284600F0E5FB229B0446012B5A
:104E40007FDD4FF00008236904EB8303186900F04D
:104E5000CDFAC0F12000099B184410F01F0000F0AB
:104E60009280C0F12003042B40F38A80C0F11C0023
:104E7000069B074403440693099B03440993069B3E
:104E8000002B05DD59461A46284600F015FC8346DE
:104E9000099B002B05DD21461A46284600F00CFC34
:104EA00004460F9B002B70D02146584600F074FC3E
:104EB00000286ADA002359460A22284600F050FAF0
:104EC0000B9B83460AF1FF3A002B00F09481314698
:104ED00000230A22284600F043FAB9F1000F0646E3
:104EE00000F39380229B022B57DC8EE0169BC3F1CC
:104EF000360357E7089B5C1E0A9BA342B7BF0A9B79
:104F00001C1BE21A0E9BBEBF0A949B180E93089BB3
:104F1000B8BF0024002BBBBF069B089A069F9F1AB0
:104F2000ACBF089B00233FE70000E03F00002440A7
:104F30000A9C069F0B9E42E70A9A6BE7229B012B75
:104F400019DC049BBBB9059BC3F313039BB9059BF9
:104F500023F000431B0D1B0583B14FF00108069B96
:104F600001330693099B013309930E9B002B7FF4B9
:104F70006AAF01206FE74FF00008F6E79846F4E7C4
:104F80003FF47DAF18461C3072E7089B002B36DCDF
:104F9000229B022B33DDDDF82090B9F1000F0DD1FB
:104FA00021464B460522284600F0DAF90146044620
:104FB000584600F0F1FB00283FF7B8AD239B039F54
:104FC0006FEA030A4FF000082146284600F0A6F9D0
:104FD000002E3FF4A7AEB8F1000F05D0B04503D0C6
:104FE0004146284600F09AF93146284600F096F9E5
:104FF00098E600242646E1E7C246264696E50B9B46
:10500000DDF82090002B00F0FD80002F05DD3146FB
:105010003A46284600F050FB0646B8F1000F5CD037
:105020002846716800F03AF9074628B9024640F26E
:10503000EA217F4BFFF728BB326906F10C010232EF
:1050400092000C30FEF700FE01223946284600F09F
:1050500033FBB0460646039B01330893039B4B4446
:105060000A93049B03F001030993089B2146013B2B
:1050700058460493FFF766FA0346414630330690DC
:1050800058460B9300F088FB32468146214628465D
:1050900000F09EFBC26807460B9B02BB01465846C8
:1050A00000F07AFB02460B9B39462846CDE90B32CD
:1050B00000F034F9229B0C9A089F43EA0201099BF5
:1050C0000B430B9B0DD1392B29D0B9F1000F01DD1A
:1050D000069B3133049A137076E73046B9E7012214
:1050E000E2E7B9F1000F06DB229941EA09090999C3
:1050F00059EA010120D1002AECDD59460122284657
:10510000089300F0D9FA2146834600F045FB0028B9
:10511000089B02DCDED1DA07DCD5392BD8D1392364
:10512000049A13703B461F4617F8012C013B392A9D
:1051300050D001321A7047E7002A03DD392BEED038
:105140000133C7E7089A0A9902F8013C8A422AD03B
:10515000594600230A22284600F002F9B04583464A
:105160004FF000034FF00A024146284607D100F0F5
:10517000F7F880460646089B0133089375E700F070
:10518000EFF83146804600230A22284600F0E8F86E
:105190000646F0E7B9F1000FCCBF4F4601274FF0AC
:1051A0000008039A1744594601222846089300F044
:1051B00083FA2146834600F0EFFA0028B2DC02D1E0
:1051C000089BDB07AED43B461F4613F8012D302A5F
:1051D000FAD0F9E6039A9A42A5D131230AF1010ADD
:1051E00079E7144BFFF7A8BA269B002B7FF481AA1E
:1051F000114BFFF7A1BAB9F1000F03DC229B022B80
:105200003FF7CBAE039F21465846FFF79BF9039A21
:1052100000F1300307F8013BBA1A9145BADD59464F
:1052200000230A22284600F09BF88346EBE700BFE4
:105230000778000880770008A477000800487047C6
:10524000680100207047704770470000024B01461C
:10525000186800F001BC00BF1400002082B001B942
:1052600001A942B14BB113780B601278101E18BF20
:10527000012002B070471046FBE76FF00100F8E72D
:10528000034610B5C9B202449342184601D100202A
:1052900003E0047801338C42F6D110BD70B5466A44
:1052A00004460D4676B91020FFF7D0FF0246606233
:1052B00020B96621174B184800F046FCC0E901668A
:1052C0000660C660666AF36883B1636ADB6853F898
:1052D0002500B8B9012101FA05F6721D2046920099
:1052E00000F05EFB60B1C0E901560EE0212204210E
:1052F000204600F055FB636AF060DB68002BE4D1C8
:10530000002070BD026843F825200023C0E9033364
:10531000F7E700BFB17700082278000870B5466A49
:1053200005460C4676B91020FFF790FF02466862EA
:1053300020B98A21084B094800F006FCC0E9016643
:105340000660C6603CB16B6A6268DB6853F8221085
:10535000216043F8224070BDB17700082278000830
:105360002DE9F04107460C461E4600200D6901F16B
:10537000140CDCF80030013099B202FB01611E0C04
:105380000B0C02FB063389B201EB034185424FEA65
:1053900013464CF8041BECDC0EB3A368AB4219DCDB
:1053A000616838460131FFF779FF804628B9024627
:1053B000B5210C4B0C4800F0C7FB226904F10C012D
:1053C000023292000C30FEF73FFC21463846FFF7D0
:1053D000A5FF444604EB850301355E612561204647
:1053E000BDE8F0810778000822780008020C12045A
:1053F0000346CAB90304102013F07F4F04BF1B02F9
:10540000083013F0704F04BF1B01043013F0404FFD
:1054100004BF9B000230002B05DB13F0804F00F12E
:10542000010008BF202070470020E5E7036802461E
:1054300013F007000BD0D90721D4980749BF5B08A8
:105440009B08012013605CBF02201360704799B273
:1054500009B910201B0CD9B209B908301B0A190769
:1054600004BF1B090430990704BF9B080230D90709
:1054700003D45B0800F1010003D0136070470020E3
:10548000704720207047000010B50C460121FFF73F
:1054900005FF024628B94FF4A071044B044800F000
:1054A00053FB01234461036110BD00BF077800086E
:1054B000227800082DE9F04F91460A69D9F810309A
:1054C0000C469A42BEBF0B464C4699462769D9F80E
:1054D00010A0A368616807EB0A06B34285B0B8BFA5
:1054E0000131FFF7DBFE30B9024640F25D11434B5C
:1054F000434800F029FB00F114052B46002205EB80
:105500008608434521D304F1140303EB870709F10F
:10551000140303EB8A0202923A1B153A22F00302AB
:10552000043204F115018F4238BF04220192029A1D
:1055300003939A420CD8002E03DD58F8043D002B4B
:1055400059D0066105B0BDE8F08F43F8042BD8E7C9
:10555000B3F800A0BAF1000F23D0A9464FF0000C19
:1055600004F1140E5EF8042BD9F800101FFA82FB28
:1055700089B20AFB0B116144D9F800C0120C4FEA42
:105580001C4C0AFB02C202EB114289B241EA024101
:1055900077454FEA124C49F8041BE3D8019A45F8C5
:1055A00002C0039A0433B2F80290B9F1000F20D080
:1055B000AE464FF0000A296804F1140CBCF800B0A4
:1055C000BEF8022089B209FB0B22924441EA0A414B
:1055D0004EF8041B5CF8042BBEF80010120C09FBFB
:1055E0000211674501EB1A414FEA114AE6D8019AC8
:1055F000A95004359BE7013E9DE700BF07780008EE
:10560000227800082DE9F843154612F003020646F9
:105610000F4607D0254C013A002354F82220FFF70B
:105620009FFE0746AD103DD0746A7CB91020FFF78D
:105630000DFE0246706228B94FF4D7711C4B1D480D
:1056400000F082FAC0E901440460C460D6F8248006
:10565000D8F808404CB940F271213046FFF714FFEA
:1056600000230446C8F8080003604FF00009EB0768
:105670000AD5394622463046FFF71CFF8046394698
:105680003046FFF74BFE47466D100BD0206838B907
:10569000224621463046FFF70DFF2060C0F80090FB
:1056A0000446E4E73846BDE8F88300BF58790008AF
:1056B000B1770008227800082DE9F0470C4607462C
:1056C00091462369496803EB6218A3684FEA621A9E
:1056D00008F10106B3420BDB3846FFF7DFFD054654
:1056E00048B9024640F2D911294B2A4800F02CFA59
:1056F00001315B00EEE7002300F1140100F110021C
:105700001846534537DB20692AEAEA7A04F1140384
:1057100019F01F0901EB8A0103EB80002FD08A46A4
:105720004FF0000CC9F1200E1A6802FA09F242EAA1
:105730000C024AF8042B53F8042B984222FA0EFC70
:10574000F2D8031B153B23F00303043304F11502C5
:10575000904238BF042341F803C0BCF1000F01D0D0
:1057600008F10206013E384621462E61FFF7D6FDBC
:105770002846BDE8F08742F8040F0133C1E7043939
:1057800053F8042B984241F8042FF9D8EAE700BFF8
:10579000077800082278000803460A69006930B5D6
:1057A000801A0DD11433143103EB820401EB820112
:1057B00054F8045D51F8042D954202D004D3012021
:1057C00030BDA342F4D3FBE74FF0FF30F8E7000011
:1057D0002DE9F84F0D460746114628461446FFF7B7
:1057E000DBFF061E11D131463846FFF757FD024652
:1057F00028B940F232213A4B3A4800F0A5F901238A
:10580000C0E904361046BDE8F88FA4BF23462C46F5
:1058100038466168A6BF1D4600260126FFF73EFDFB
:10582000024618B94FF410712D4BE5E702F1140848
:10583000C2464FF0000C2769C6602E6904F11400BF
:1058400005F1140900EB870E09EB8606103454F8B5
:1058500004BF59F8043B1FFA8BF18C4499B21B0C1E
:10586000ACEB0101C3EB1B4303EB214389B24FEACD
:10587000234C4E4541EA03434AF8043BE7D8731BE7
:10588000153B23F0030315350433AE4238BF042320
:10589000184443441E46054675450ED30EF10301D8
:1058A000091A21F003010338864538BF0021194445
:1058B00051F8043D8BB11761A4E755F8048B1FFA2A
:1058C00088F161440C1404EB184489B241EA0441A4
:1058D0004FEA244C46F8041BDEE7013FE8E700BF2F
:1058E00007780008227800082DE9F3410121DDE95D
:1058F000087690461D46FFF7D1FC044630B90246B3
:1059000040F20A31244B254800F01EF9C5F3130379
:10591000C5F30A552DBB0193B8F1000326D06846A4
:105920000093FFF783FD0099F0B1019AC0F12003C5
:1059300002FA03F30B43C24063610192019B002B07
:1059400014BF02210121A3612161C5B1A5F2334534
:105950000544C0F135003D603060204602B0BDE82E
:10596000F08143F48013D6E76161E7E701A8FFF710
:105970005DFD0121019B216163612030E5E704EBBE
:105980008103A0F2324038601869FFF72FFDC0EBA9
:1059900041113160E1E700BF077800082278000874
:1059A00070B5A1FB025434B9294600F055F80646FB
:1059B00028B9304670BD0C2200260260F9E72A465D
:1059C0002146FEF74FF9F4E738B50546002940D0E7
:1059D00051F8043C0C1F002BB8BFE41800F0E4F8A9
:1059E0001C4A136833B9636014602846BDE8384028
:1059F00000F0E0B8A34208D9206821188B4201BF0B
:105A000019685B6809182160EDE71A465B680BB1FD
:105A1000A342FAD911685018A0420BD12068014462
:105A2000501883421160E0D118685B68014411602E
:105A30005360DAE702D90C232B60D6E720682118DF
:105A40008B4201BF19685B6809182160636054606C
:105A5000CBE738BD30080020F8B5CD1C25F0030594
:105A600008350C2D38BF0C25002D064601DBA94258
:105A700003D90C2333600020F8BD00F095F82149CC
:105A80000A6814469CB9204F3B6823B9214630462A
:105A900000F03CF838602946304600F037F8431CE7
:105AA00023D10C233046336000F084F8E3E7236809
:105AB0005B1B17D40B2B03D923601C44256004E027
:105AC0006368A2420CBF0B605360304600F072F86E
:105AD00004F10B00231D20F00700C21ACCD01B1AC2
