:020000040800F2
:1000000000000220CD4300081D4400081D440008E4
:100010001D4400081D4400081D44000800000000A5
:100020000000000000000000000000001D44000867
:100030001D440008000000001D44000835070008AA
:100040001D4400081D4400081D4400081D4400080C
:100050001D4400081D4400081D4400081D440008FC
:100060001D4400081D4400081D4400081D440008EC
:100070001D4400081D4400081D4400081D440008DC
:100080001D4400081D4400081D4400080000000035
:100090000000000000000000000000001D440008F7
:1000A0001D4400081D4400081D4400081D440008AC
:1000B0001D4400081D4400081D4400081D4400089C
:1000C0001D4400081D4400081D4400081D4400088C
:1000D0001D4400081D4400081D44000800000000E5
:1000E0001D4400081D4400081D44000800000000D5
:1000F0000000000000000000000000001D44000897
:10010000000000001D4400081D4400081D440008B4
:1001100000000000000000000000000000000000DF
:100120001D4400081D4400081D4400081D4400082B
:100130001D44000800000000000000000000000056
:100140000000000000000000000000002907000877
:100150001D4400081D4400081D4400081D440008FB
:100160001D4400081D4400080000000000000000BD
:10017000000000000000000000000000000000007F
:10018000000000001D440008000000000000000006
:100190001D4400081D44000810B5054C227832B9F2
:1001A000044B13B10448AFF300800123237010BD4A
:1001B0001004002000000000C047000808B5034BF1
:1001C0001BB103490348AFF3008008BD00000000E5
:1001D00014040020C047000810B594B01422002178
:1001E00009A804F041F91422002103A804F03CF905
:1001F000204B00220192196C41F0805119641B6C54
:100200001D4903F080530193019B02920B6823F474
:10021000404343F400430B600B6803F440430293F4
:10022000029B012110234FF4A870CDE90B1310930A
:100230000423CDE911030224072308A8CDE90E42C7
:100240000894139302F08AF900B100BE0F23CDE9A0
:1002500003344FF480520023022103A8CDE9053274
:10026000079302F0EBFB00B100BE02F0CDFC14B02E
:1002700010BD00BF003802400070004008B500F01B
:100280007FFCFFF7A9FF00F0FBFB00F02BF9FEE776
:10029000704730B415780135157041F0800130BCDD
:1002A00000F0F2BA2DE9F04312218DB0044600F0BF
:1002B00099FB6FF05203C4F8240203726FF021031C
:1002C00043726FF010030125002640274FF002090A
:1002D0004FF0030883726FF041034570C771457496
:1002E0008670C570C372857380F80F9080F8108097
:1002F0000921204600F076FBC4F8280203784380E9
:100300000A230372802380F801904571C37105713F
:100310000921204600F066FBD4F828220178538892
:100320000B44538004234370FF23C3711D4B80F89B
:1003300004908670C6702A46CDE90153294643468B
:100340000097204600F0F8F9174B04934FF48073A0
:100350000393164B00972A46CDE90153294643469D
:10036000204600F012FA1249204600F053FB1149D2
:10037000C4F83002204600F04DFB1222C4F83402CB
:10038000314607A804F070F807A8082100F04EF8DD
:1003900007A9204600F03EFBC4F838020DB0BDE8C6
:1003A000F08300BF91020008930200084208002079
:1003B00070470008884700082DE9F8431C460733BA
:1003C00023F0070300AFADEB030D814688461546C9
:1003D00000212246684604F047F86E460023434554
:1003E00006D100232422A34211D1BD46BDE8F883E3
:1003F000B3FBF4F2B3FBF8F104FB123208FB11314A
:10040000B05C19F801104140B1540133E7E7F05CEA
:10041000B0FBF2F102FB1101C8B20146092894BFFA
:100420003031373125F813100133DCE702460B4633
:1004300001480C21FFF7C0BF107AFF1F08B501F07B
:1004400063FD08BD70B5084D01F07F04182606FB5A
:100450000454C4E99123D4F85452AB4228BF2B462C
:1004600001F008FD70BD00BF0000002008B501F0DC
:10047000C7FB08BD08B501F0ABFD08BD08B501F02C
:100480004CFC08BD73B54EB2002E05460C4608DA8A
:10049000124801F07F01CDE9002301F0FBFFDDE907
:1004A00000232146284601F0D0FBA8B92146284662
:1004B00001F0E4FD80B92146284601F089FD58B9D4
:1004C000002E09DB064B182202FB0432D2E9C123BD
:1004D0002146284601F06BFC02B070BD38040020B4
:1004E00000000020F0B5314C314D8BB000214FF4AD
:1004F0008162204603F0B8FF2E4BEB61182228469C
:1005000000261A60FFF7CEFE2B4B03961A6B2B4882
:1005100042F001021A631A6B02F001020392039A7D
:100520005A6B42F080025A6304965A6C42F480423D
:100530005A645B6C079603F4804304930227049B80
:100540004FF4C053CDE9053703220A2305A9CDE9AD
:10055000082300F0C5FC32460521432000F089FC49
:10056000432000F0A2FC4FF0A0410823C4E900138F
:10057000204640236361A761E760C4F80454AC617E
:1005800000F032FED5F824328021DA79019220463B
:1005900001F0C7FF019A3146204601F07BFF20465B
:1005A00000F049FF28460BB0F0BD00BF3804002022
:1005B000000000202C04002000380240000002400F
:1005C00000F57171D0F8040400F0EEB92DE9F041A6
:1005D0000C46054601F036FC14F07F06034605D1B3
:1005E00028468021BDE8F04101F08EBC0C4F182157
:1005F00001FB0671D1F81083B8F1000F05D0D1F8D6
:100600000423D5F804042146C047182303FB0676CB
:10061000D6E9C12321462846BDE8F04101F0C7BB19
:10062000000000202DE9F04711F0780906460F463A
:1006300051D12A4A01F07F05182404FB0524904675
:10064000D4F84C32D4F854C263451CD3D4F84822B1
:10065000D4F84472D21A3A44634601F00BFCD4F841
:100660004C32D4F854229B1AC4F84C329DBB294614
:100670002B462A46304601F09AFB30468021BDE8E1
:10068000F04701F041BC53B1D4F84822A2EB030C6F
:10069000D4F84422624401F0EDFBC4F84C925DB9F9
:1006A0008021304601F030FC2B462A462946304650
:1006B000BDE8F04701F07BBB182303FB0585D5F8A7
:1006C000504244B1D5E9C123D6F804043946A446C2
:1006D000BDE8F0476047BDE8F08700BF000000209C
:1006E0007047000073B5D0F804340B4DD3F82432B2
:1006F000DE790196002304463246194601F0A5FA38
:10070000019AC5F8146300238021204601F09DFA68
:10071000C5F8546202B070BD0000002070477047F9
:100720007047704770477047014800F0B7BE00BF80
:100730003804002000F07EBA2DE9F0410D4607464E
:100740000721893514461E46BDF8188000F04AF985
:1007500057F82520017853880B44538005234370B4
:1007600064F07F0383709DF81C308371C670A0F81D
:10077000048004F07F04182000FB0470089B80F8BC
:100780005862C0E99438BDE8F0812DE9F0410D468A
:100790000746072189351E46BDF81880144600F02B
:1007A00021F957F82520017853880B4453800523FD
:1007B000437004F07F029DF81C308371C670A0F86E
:1007C00004808270182000FB0270089BC0F804337C
:1007D000099BC0F808330A9B80F81863C0E9C43845
:1007E000BDE8F08170B54C880546200A0328E6B2C2
:1007F0001FD005D8012809D002280DD0022070BDD5
:100800002228FBD114491160212223E0D5F82412BB
:1008100011600A781A60F2E7002EF0D1D5F82802AC
:1008200010604088CA88904294BF18601A60012006
:10083000E5E74EB9094909244870042008708C7016
:10084000C87011601860F2E705EB8605D5F82C1228
:1008500011600A781A60EAE7D803002040080020F7
:1008600070B44E781C4626B1062E09D170BCFFF735
:10087000B9BF044B136002232360012070BC704792
:100880000220FBE7AA47000870B4182601F07F0594
:1008900006FB0504C4E99123D4F8544206FB050580
:1008A0009C4234BF1C1B0024C5F84C42046880697C
:1008B000A44670BC604743688069184783688069B4
:1008C000184710B404698069A4465DF8044B60477A
:1008D00070B504464878092844D8DFE800F005439D
:1008E0004343430B1243171D1F49116002221A6034
:1008F000012010E04988204601F07F01FFF7DBFF6F
:10090000F6E72046BDE87040FFF76CBF04F575744C
:1009100001201460186070BD4B88DDB2012D21D11B
:1009200084F8D433002384F8D5332646D6F86C22D5
:1009300042B165F07F0196F87032D2B2C9B220465A
:10094000FFF7BFFFD6F82C2332B196F83033D2B27E
:10095000E9B22046FFF7B5FF0135082D06F118066C
:10096000E4D1C5E70220D6E7A8470008F0B40C7828
:1009700004F01F04012C1E4605D0022C06D06CB9D1
:10098000F0BCFFF7A5BFF0BCFFF76ABF4B783BB9DF
:10099000044B136001203460F0BC70470220FBE779
:1009A0002046F9E7AC47000873B50023CDE90033D2
:1009B0006A4601AB0E460546FFF7D8FF012831789D
:1009C000044609D1DDE9002301F080012846FFF744
:1009D0005BFF204602B070BD01F080012846FFF7A2
:1009E0006DFFF6E770B5D0F820526A18B2F5007FB7
:1009F0000C460DD800F120067319C0F820220A46D3
:100A00001846002103F030FD74550346184670BDAA
:100A10000023FBE7F0B5D0F8204200F120063219A0
:100A2000A31C002531F815703FB9191B315503215E
:100A30005170C0F820321046F0BDB3F5FF7F06DCE0
:100A400002EB450C0233ACF802700135EAE70022F4
:100A5000F1E7000080B400AF084BD3F88830074AB4
:100A600043F47003C2F88830044B4FF000629A6080
:100A700000BFBD465DF8047B704700BF00ED00E09D
:100A800080B487B000AF00233B6100237B61022369
:100A9000FB600023BB6002237B60344B9B6803F048
:100AA0000C033B613B69082B11D03B69082B44D8F0
:100AB0003B69002B03D03B69042B04D03DE02C4B59
:100AC0002C4A1A603DE02A4B2B4A1A6039E0274B2A
:100AD0005B689B0D03F00103BB60244B5B6803F074
:100AE0003F037B60BB68002B0CD0234A7B68B2FBC2
:100AF000F3F31E4A52689209C2F3080202FB03F3A1
:100B00007B610BE01B4A7B68B2FBF3F3174A526828
:100B10009209C2F3080202FB03F37B61134B5B688B
:100B20001B0C03F0030301335B00FB607A69FB6875
:100B3000B2FBF3F30E4A136003E00D4B0D4A1A604B
:100B400000BF0A4B9B681B0903F00F030B4AD35CE1
:100B50003B61074B1A683B6922FA03F3044A1360AE
:100B600000BF1C37BD465DF8047B7047003802406B
:100B7000FC0300200024F40040787D01B047000809
:100B800080B500AF0E4B1B680D4A43F40073136031
:100B90000B4B1B680A4A43F480631360084B1B68C5
:100BA000074A43F480731360032000F057F90F20C5
:100BB00000F010F800F006F80023184680BD00BFD2
:100BC000003C024080B400AF00BFBD465DF8047B2E
:100BD0007047000080B582B000AF7860124B1A6891
:100BE000124B1B7819464FF47A73B3FBF1F3B2FB47
:100BF000F3F3184600F067F90346002B01D00123F8
:100C00000EE07B680F2B0AD8002279684FF0FF3086
:100C100000F02FF9064A7B681360002300E00123EF
:100C200018460837BD4680BDFC03002004040020A0
:100C30000004002080B400AF064B1B781A46064B18
:100C40001B681344044A136000BFBD465DF8047B73
:100C5000704700BF040400204409002080B400AFA6
:100C6000034B1B681846BD465DF8047B704700BF08
:100C70004409002080B584B000AF7860FFF7EEFF34
:100C8000B8607B68FB60FB68B3F1FF3F05D00A4B9F
:100C90001B781A46FB681344FB6000BFFFF7DEFFBA
:100CA0000246BB68D31AFA689A42F7D800BF00BF61
:100CB0001037BD4680BD00BF0404002080B485B05D
:100CC00000AF78607B6803F00703FB600C4BDB68C8
:100CD000BB60BA684FF6FF031340BB60FB681A02A3
:100CE000BB68134343F0BF6343F40033BB60044A63
:100CF000BB68D36000BF1437BD465DF8047B704706
:100D000000ED00E080B400AF044BDB681B0A03F089
:100D100007031846BD465DF8047B704700ED00E010
:100D200080B483B000AF0346FB7197F90730002B06
:100D30000BDBFB7903F01F02074997F907305B09CA
:100D4000012000FA02F241F8232000BF0C37BD4613
:100D50005DF8047B704700BF00E100E080B483B021
:100D600000AF03463960FB7197F90730002B0ADBAF
:100D70003B68DAB20C4997F907301201D2B20B4442
:100D800083F800230AE03B68DAB20849FB7903F0F4
:100D90000F03043B1201D2B20B441A7600BF0C378A
:100DA000BD465DF8047B704700E100E000ED00E027
:100DB00080B489B000AFF860B9607A60FB6803F076
:100DC0000703FB61FB69C3F10703042B28BF04235E
:100DD000BB61FB690433062B02D9FB69033B00E0CE
:100DE00000237B614FF0FF32BB6902FA03F3DA4361
:100DF000BB681A407B699A404FF0FF317B6901FA6A
:100E000003F3D9437B680B40134318462437BD4690
:100E10005DF8047B7047000080B582B000AF786059
:100E20007B68013BB3F1807F01D301230FE00A4AC5
:100E30007B68013B53600F214FF0FF30FFF78EFFBF
:100E4000054B00229A60044B07221A6000231846C3
:100E50000837BD4680BD00BF10E000E080B582B01D
:100E600000AF78607868FFF729FF00BF0837BD46FC
:100E700080BD80B586B000AF0346B9607A60FB7371
:100E800000237B61FFF73EFF78617A68B968786973
:100E9000FFF78EFF024697F90F3011461846FFF70D
:100EA0005DFF00BF1837BD4680BD80B582B000AF82
:100EB0000346FB7197F907301846FFF731FF00BF73
:100EC0000837BD4680BD80B582B000AF78607868D5
:100ED000FFF7A2FF034618460837BD4680BD000055
:100EE00080B489B000AF7860396000237B61002353
:100EF0003B610023BB610023FB6159E10122FB69D7
:100F000002FA03F37B613B681B687A6913403B611B
:100F10003A697B699A4240F048813B685B68012BE3
:100F20000BD03B685B68022B07D03B685B68112BDA
:100F300003D03B685B68122B30D17B689B68BB6138
:100F4000FB695B00032202FA03F3DB43BA69134037
:100F5000BB613B68DA68FB695B0002FA03F3BA69BC
:100F60001343BB617B68BA699A607B685B68BB614D
:100F70000122FB6902FA03F3DB43BA691340BB6148
:100F80003B685B681B0903F00102FB6902FA03F38B
:100F9000BA691343BB617B68BA695A607B68DB68D6
:100FA000BB61FB695B00032202FA03F3DB43BA690E
:100FB0001340BB613B689A68FB695B0002FA03F36C
:100FC000BA691343BB617B68BA69DA603B685B68E6
:100FD000022B03D03B685B68122B23D1FB69DA0834
:100FE0007B68083253F82230BB61FB6903F00703CA
:100FF0009B000F2202FA03F3DB43BA691340BB6183
:101000003B681A69FB6903F007039B0002FA03F3CC
:10101000BA691343BB61FB69DA087B680832B969B6
:1010200043F822107B681B68BB61FB695B000322ED
:1010300002FA03F3DB43BA691340BB613B685B68A8
:1010400003F00302FB695B0002FA03F3BA6913437E
:10105000BB617B68BA691A603B685B6803F08053C8
:10106000002B00F0A2800023FB60574B5B6C564ABC
:1010700043F480435364544B5B6C03F48043FB6044
:10108000FB68524AFB699B08023352F82330BB616C
:10109000FB6903F003039B000F2202FA03F3DB4317
:1010A000BA691340BB617B68494A934219D07B6897
:1010B000484A934213D07B68474A93420DD07B68DD
:1010C000464A934207D07B68454A934201D10423A4
:1010D00008E0072306E0032304E0022302E00123E3
:1010E00000E00023FA6902F0030292009340BA691B
:1010F0001343BB613549FB699B080233BA6941F868
:101100002320384B1B68BB613B69DB43BA69134042
:10111000BB613B685B6803F48033002B03D0BA6982
:101120003B691343BB612F4ABB6913602D4B5B685E
:10113000BB613B69DB43BA691340BB613B685B68D9
:1011400003F40033002B03D0BA693B691343BB613E
:10115000244ABB695360234B9B68BB613B69DB43FB
:10116000BA691340BB613B685B6803F48013002BD2
:1011700003D0BA693B691343BB611A4ABB699360E8
:10118000184BDB68BB613B69DB43BA691340BB6149
:101190003B685B6803F40013002B03D0BA693B691A
:1011A0001343BB610F4ABB69D360FB690133FB6129
:1011B000FB690F2B7FF6A2AE00BF00BF2437BD46F0
:1011C0005DF8047B704700BF0038024000380140E2
:1011D000000002400004024000080240000C0240EF
:1011E00000100240003C0140F0B58FB00AAF7860BB
:1011F0007B68002B01D101230FE17B681B68BB607A
:101200007B6893F8BD33DBB2002B06D17B680022EC
:1012100083F8BC23786800F004F97B68032283F824
:10122000BD23BB68DB6B03F48073002B02D17B68AA
:1012300000221A617B681B68184601F0C8FE7B68B3
:101240001B683B607E686D4606F110040FCC0FC52D
:101250000FCC0FC594E8030085E80300331D0ECBC7
:10126000386801F09FFD0346002B05D07B68022201
:1012700083F8BD230123D0E07B681B68002118465A
:1012800001F0B6FE0023FB734AE0FA7B796813464F
:10129000DB009B1A9B000B443D3301221A70FA7B42
:1012A00079681346DB009B1A9B000B443C33FA7BA6
:1012B0001A70FA7BFB7B98B279681346DB009B1AA5
:1012C0009B000B44423302461A80FA7B796813462E
:1012D000DB009B1A9B000B443F3300221A70FA7B01
:1012E00079681346DB009B1A9B000B4444330022B1
:1012F0001A60FA7B79681346DB009B1A9B000B444B
:10130000483300221A60FA7B79681346DB009B1A87
:101310009B000B44503300221A60FB7B0133FB73AC
:10132000FA7B7B685B689A42AFD30023FB7344E08F
:10133000FA7B79681346DB009B1A9B000B4403F28F
:10134000FD1300221A70FA7B79681346DB009B1AA2
:101350009B000B4403F5FE73FA7B1A70FA7B7968E5
:101360001346DB009B1A9B000B4403F2FF13002281
:101370001A70FA7B79681346DB009B1A9B000B44BA
:1013800003F5017300221A60FA7B79681346DB00CB
:101390009B1A9B000B4403F5027300221A60FA7B30
:1013A00079681346DB009B1A9B000B4403F504731A
:1013B00000221A60FB7B0133FB73FA7B7B685B685E
:1013C0009A42B5D37B681B683B607E686D4606F128
:1013D00010040FCC0FC50FCC0FC594E8030085E8AF
:1013E0000300331D0ECB386801F02CFE0346002BA2
:1013F00005D07B68022283F8BD2301230DE07B68C2
:10140000002283F838207B68012283F8BD237B68A3
:101410001B68184602F06BFE002318461437BD46C1
:10142000F0BD80B483B000AF786000BF0C37BD461C
:101430005DF8047B704780B584B000AF78607B684E
:101440001B68FB607B6893F8BC33012B01D102233E
:1014500020E07B68012283F8BC237B689B6A012B18
:1014600009D17B689B69012B05D0FB689B6B43F41A
:101470008032FB689A637B681B68184602F01FFE87
:101480007B681B68184601F091FD7B68002283F899
:10149000BC23002318461037BD4680BD90B58DB0E3
:1014A00000AF78607B681B683B623B6AFB617B68CE
:1014B0001B68184602F0C6FE0346002B40F09D83D1
:1014C0007B681B68184602F02AFE0346002B00F0DA
:1014D00093837B681B68184602F021FE034603F0E5
:1014E0000203022B07D17B681B685A697B681B6863
:1014F00002F002025A617B681B68184602F00FFE78
:10150000034603F01003102B61D17B681B689A69B6
:101510007B681B6822F010029A613B6A1B6ABB6100
:10152000BB6903F00F021346DB009B1A9B0003F517
:10153000FC737A68134404337B61BB695B0C03F072
:101540000F03022B24D1BA6947F6F0731340002B26
:1015500035D07B69D968BB691B099BB2C3F30A0309
:101560009BB21A46386A02F087FC7B69DA68BB696D
:101570001B09C3F30A031A447B69DA607B699A6921
:10158000BB691B09C3F30A031A447B699A6116E01D
:10159000BB695B0C03F00F03062B10D17B6803F5CE
:1015A000717308221946386A02F066FC7B699A69F1
:1015B000BB691B09C3F30A031A447B699A617B6800
:1015C0001B689A697B681B6842F010029A617B680D
:1015D0001B68184602F0A3FD034603F40023B3F58D
:1015E000002F6ED100237B627B681B68184602F0D7
:1015F000A9FDB86262E0BB6A03F00103002B57D07B
:101600007B681B687A6AD2B21146184602F0CEFD9A
:1016100038613B6903F00103002B0CD07B6A5A014F
:10162000FB69134403F530631A4601239360796A1A
:10163000786800F0DDFD3B6903F00803002B0CD057
:101640007B6A5A01FB69134403F530631A46082389
:101650009360796A786800F0D7FE3B6903F0100365
:10166000002B08D07B6A5A01FB69134403F53063F1
:101670001A46102393603B6903F02003002B08D027
:101680007B6A5A01FB69134403F530631A46202331
:1016900093603B6903F40053002B09D07B6A5A0125
:1016A000FB69134403F530631A464FF4005393600B
:1016B0007B6A01337B62BB6A5B08BB62BB6A002B3F
:1016C00099D17B681B68184602F029FD034603F494
:1016D0008023B3F5802F40F0C0807B681B681846DC
:1016E00002F04AFDB86200237B62B2E0BB6A03F0FD
:1016F0000103002B00F0A7807B681B687A6AD2B2D6
:101700001146184602F070FD38613B6903F0010391
:10171000002B57D07B6A03F00F03012202FA03F378
:10172000FB60FB6903F500635A6BFB68DB43F969F7
:1017300001F5006113404B637B6A5A01FB69134456
:1017400003F510631A46012393607B681B69012B24
:1017500032D179687A6A1346DB009B1A9B000B44EE
:101760004833196878687A6A1346DB009B1A9B0035
:10177000034444331B68194478687A6A1346DB00D3
:101780009B1A9B000344483319607B6A002B13D1DA
:1017900079687A6A1346DB009B1A9B000B4450332E
:1017A0001B68002B08D17B6818687B6803F5717390
:1017B0001A46012102F078FD7B6ADBB2194678688F
:1017C000FEF730FF3B6903F00803002B08D07B6A6B
:1017D0005A01FB69134403F510631A46082393600A
:1017E0003B6903F01003002B08D07B6A5A01FB69A8
:1017F000134403F510631A46102393603B6903F00A
:101800004003002B08D07B6A5A01FB69134403F59F
:1018100010631A46402393603B6903F00203002BD8
:1018200008D07B6A5A01FB69134403F510631A461A
:10183000022393603B6903F08003002B03D0796A95
:10184000786800F048FC7B6A01337B62BB6A5B0806
:10185000BB62BB6A002B7FF449AF7B681B681846EC
:1018600002F05DFC034603F00043B3F1004F22D1C8
:10187000FB6903F500635B68FA6902F5006223F017
:10188000010353607B6893F8F433012B08D17B6824
:10189000002283F8F4230021786800F053FE02E070
:1018A0007868FEF73CFF7B681B685A697B681B6899
:1018B00002F000425A617B681B68184602F02FFC58
:1018C000034603F40063B3F5006F12D1FB6903F51F
:1018D00000639B6803F00103012B02D17868FEF7D7
:1018E0001DFF7B681B685A697B681B6802F40062F5
:1018F0005A617B681B68184602F011FC034603F42A
:101900008053B3F5805F40F0C780FB6903F5006347
:101910005B68FA6902F5006223F0010353607B689B
:101920001B681021184601F0F1FC0023FB6256E011
:10193000FB6A5A01FB69134403F510631A464FF61C
:101940007F339360FB6A5A01FB69134403F510630C
:101950001B68FA6A5101FA690A4402F5106223F41D
:1019600000131360FB6A5A01FB69134403F510630B
:101970001B68FA6A5101FA690A4402F5106243F0E1
:1019800000631360FB6A5A01FB69134403F530637B
:101990001A464FF67F339360FB6A5A01FB69134482
:1019A00003F530631B68FA6A5101FA690A4402F5CB
:1019B000306223F400131360FB6A5A01FB6913447D
:1019C00003F530631B68FA6A5101FA690A4402F5AB
:1019D000306243F000631360FB6A0133FB627B6893
:1019E0005B68FA6A9A42A3D3FB6903F50063DB697B
:1019F000FA6902F5006243F00113D3617B681B6B47
:101A0000002B16D0FB6903F50063D3F88430FA6924
:101A100002F5006243F00B03C2F88430FB6903F562
:101A200000635B6CFA6902F5006243F00B035364D8
:101A300015E0FB6903F500635B69FA6902F5006272
:101A400043F4005343F02B035361FB6903F5006338
:101A50001B69FA6902F5006243F00B031361FB692D
:101A600003F500631B68FA6902F5006223F4FE6364
:101A700013607B6818687B681B69D9B27B6803F5C3
:101A800071731A4602F010FC7B681B685A697B6808
:101A90001B6802F480525A617B681B68184602F08A
:101AA0003EFB034603F40053B3F5005F24D17B688B
:101AB0001B68184602F0D4FB7B681B68184601F0CF
:101AC00086FC03461A467B68DA607B681C6801F076
:101AD0005DF901467B68DB68DBB21A46204601F0FF
:101AE000C3F97868FEF7FEFD7B681B685A697B685E
:101AF0001B6802F400525A617B681B68184602F0AA
:101B00000EFB034603F00803082B0AD17868FEF7A2
:101B1000E7FD7B681B685A697B681B6802F0080256
:101B20005A617B681B68184602F0F9FA034603F411
:101B30008013B3F5801F0FD100237B627B6ADBB279
:101B400019467868FEF7EDFD7B681B685A697B686B
:101B50001B6802F480125A617B681B68184602F009
:101B6000DEFA034603F40013B3F5001F0FD1002380
:101B70007B627B6ADBB219467868FEF7D1FD7B6831
:101B80001B685A697B681B6802F400125A617B6803
:101B90001B68184602F0C3FA034603F08043B3F112
:101BA000804F0AD17868FEF7BDFD7B681B685A69D3
:101BB0007B681B6802F080425A617B681B6818468C
:101BC00002F0ADFA034603F00403042B15D17B6841
:101BD0001B685B68BB61BB6903F00403002B02D088
:101BE0007868FEF7A0FD7B681B6859687B681B68F6
:101BF000BA690A435A6000E000BF3437BD4690BD61
:101C000080B582B000AF78600B46FB707B6893F8BC
:101C1000BC33012B01D1022313E07B68012283F83E
:101C2000BC237B68FA7883F838207B681B68FA78D5
:101C30001146184602F01DFA7B68002283F8BC2387
:101C4000002318460837BD4680BD80B584B000AF7C
:101C50007860084611461A460346FB700B463B80E7
:101C60001346BB700023FB7297F90330002B0FDA89
:101C7000FB7803F00F021346DB009B1A9B003833FE
:101C80007A6813440433FB60FB6801225A700FE04A
:101C9000FB7803F00F021346DB009B1A9B0003F551
:101CA000FC737A6813440433FB60FB6800225A70AB
:101CB000FB7803F00F03DAB2FB681A703A88FB680E
:101CC0009A60FB68BA78DA70FB685B78002B04D006
:101CD000FB681B789AB2FB68DA80BB78022B02D1D2
:101CE000FB6800221A717B6893F8BC33012B01D189
:101CF00002230EE07B68012283F8BC237B681B680B
:101D0000F968184601F088FB7B68002283F8BC2341
:101D1000FB7A18461037BD4680BD80B584B000AF51
:101D200078600B46FB7097F90330002B0FDAFB78D5
:101D300003F00F021346DB009B1A9B0038337A68CE
:101D400013440433FB60FB6801225A700FE0FB78F8
:101D500003F00F021346DB009B1A9B0003F5FC7394
:101D60007A6813440433FB60FB6800225A70FB78E6
:101D700003F00F03DAB2FB681A707B6893F8BC3388
:101D8000012B01D102230EE07B68012283F8BC23E2
:101D90007B681B68F968184601F0C6FB7B68002267
:101DA00083F8BC23002318461037BD4680BD80B59C
:101DB00086B000AFF8607A603B600B46FB72FB7A3E
:101DC00003F00F021346DB009B1A9B0003F5FC7324
:101DD000FA68134404337B617B697A68DA607B6953
:101DE0003A685A617B6900229A617B6900225A70C5
:101DF000FB7A03F00F03DAB27B691A70FB681B6988
:101E0000012B02D17A687B691A61FB7A03F00F0318
:101E1000002B09D1FB681868FB681B69DBB21A4606
:101E2000796901F0A1FE08E0FB681868FB681B698E
:101E3000DBB21A46796901F053FC002318461837C3
:101E4000BD4680BD80B483B000AF78600B46FB70A8
:101E5000FB7803F00F0279681346DB009B1A9B00A6
:101E60000B4403F505731B6818460C37BD465DF837
:101E7000047B704780B586B000AFF8607A603B6045
:101E80000B46FB72FB7A03F00F021346DB009B1A32
:101E90009B003833FA68134404337B617B697A68AA
:101EA000DA607B693A685A617B6900229A617B69D2
:101EB00001225A70FB7A03F00F03DAB27B691A70C1
:101EC000FB681B69012B02D17A687B691A61FB7A76
:101ED00003F00F03002B09D1FB681868FB681B692E
:101EE000DBB21A46796901F03FFE08E0FB6818682A
:101EF000FB681B69DBB21A46796901F0F1FB00232C
:101F000018461837BD4680BD80B584B000AF7860F4
:101F10000B46FB70FB7803F00F027B685B689A420C
:101F200001D9012350E097F90330002B0FDAFB7839
:101F300003F00F021346DB009B1A9B0038337A68CC
:101F400013440433FB60FB6801225A700DE0FA78F9
:101F50001346DB009B1A9B0003F5FC737A6813445D
:101F60000433FB60FB6800225A70FB6801229A7000
:101F7000FB7803F00F03DAB2FB681A707B6893F802
:101F8000BC33012B01D102231EE07B68012283F8C0
:101F9000BC237B681B68F968184601F096FFFB7844
:101FA00003F00F03002B0AD17B6818687B681B695C
:101FB000D9B27B6803F571731A4602F075F97B6834
:101FC000002283F8BC23002318461037BD4680BD8D
:101FD00080B584B000AF78600B46FB70FB7803F0EF
:101FE0000F027B685B689A4201D9012342E097F9AE
:101FF0000330002B0FDAFB7803F00F021346DB00EF
:102000009B1A9B0038337A6813440433FB60FB68E7
:1020100001225A700FE0FB7803F00F021346DB0039
:102020009B1A9B0003F5FC737A6813440433FB602E
:10203000FB6800225A70FB6800229A70FB7803F05C
:102040000F03DAB2FB681A707B6893F8BC33012B7C
:1020500001D102230EE07B68012283F8BC237B6858
:102060001B68F968184601F09EFF7B68002283F820
:10207000BC23002318461037BD4680BD80B582B012
:1020800000AF78600B46FB707B6893F8BC33012B84
:1020900001D102231BE07B68012283F8BC2397F95E
:1020A0000330002B09DA7B681A68FB7803F00F0312
:1020B0001946104601F02AF904E07B681B681846AF
:1020C00001F04AF97B68002283F8BC2300231846FC
:1020D0000837BD4680BD80B58AB002AF78603960F0
:1020E0007B681B687B617B693B613A681346DB0058
:1020F0009B1A9B0038337A6813440433FB60FB68F7
:102100009A69FB685B699A4201D901236CE0FB681C
:102110005A69FB689B69D31AFB61FB689B68FA6983
:102120009A4202D9FB689B68FB61FB6903339B08F9
:10213000BB612BE0FB685A69FB689B69D31AFB61A2
:10214000FB689B68FA699A4202D9FB689B68FB614D
:10215000FB6903339B08BB61FB68D9683B68DAB253
:10216000FB6998B27B681B69DBB200930346786910
:1021700001F04DFEFB68DA68FB691A44FB68DA601F
:10218000FB689A69FB691A44FB689A613B685A01CB
:102190003B69134403F510639B699BB2BA699A4289
:1021A00009D8FB689A69FB685B699A4203D2FB68AD
:1021B0005B69002BBED1FB685A69FB689B699A4238
:1021C00011D83B6803F00F03012202FA03F3BB604E
:1021D0003B6903F500635A6BBB68DB43396901F562
:1021E000006113404B63002318462037BD4680BD75
:1021F00080B586B000AF786039607B681B687B6112
:102200007B693B617B693C3304331B68FB603B6843
:102210005A013B69134403F530639B68BB607B68DC
:102220001B69012B40F0A080BB6803F00803002B62
:1022300015D0FB68724A934240F2DD80BB6803F41C
:102240000043002B00F0D7803B685A013B691344E0
:1022500003F530631A464FF400439360CBE0BB684C
:1022600003F02003002B09D03B685A013B6913445B
:1022700003F530631A4620239360BCE0BB6803F08B
:102280002803002B40F0B780FB685D4A93420FD9CA
:10229000BB6803F40043002B0AD03B685A013B693A
:1022A000134403F530631A464FF400439360A2E0F1
:1022B00079683A681346DB009B1A9B000B4403F5D0
:1022C00001731A683B6859013B690B4403F530639D
:1022D0001B69C3F31203D11A78683A681346DB000E
:1022E0009B1A9B00034403F50573196079683A68EB
:1022F0001346DB009B1A9B000B4403F5027319681D
:1023000078683A681346DB009B1A9B00034403F588
:1023100001731B68194478683A681346DB009B1AFE
:102320009B00034403F5027319603B68002B14D132
:1023300079683A681346DB009B1A9B000B4403F54F
:1023400004731B68002B08D17B6818687B6803F551
:1023500071731A46012101F0A7FF3B68DBB21946F1
:102360007868FEF733F946E0FB68264A934224D1A9
:10237000BB6803F40043002B0AD03B685A013B6959
:10238000134403F530631A464FF40043936032E080
:10239000BB6803F02003002B08D03B685A013B695F
:1023A000134403F530631A46202393603B68DBB285
:1023B00019467868FEF70AF91DE03B68002B14D136
:1023C00079683A681346DB009B1A9B000B4403F5BF
:1023D00004731B68002B08D17B6818687B6803F5C1
:1023E00071731A46002101F05FFF3B68DBB21946AA
:1023F0007868FEF7EBF8002318461837BD4680BD15
:102400000A30544F0A31544F80B586B000AF78601F
:1024100039607B681B687B617B693B617B693C330E
:1024200004331B68FB603B685A013B69134403F5A6
:1024300030639B68BB60FB68154A93420ED9BB684A
:1024400003F40043002B09D03B685A013B69134455
:1024500003F530631A464FF4004393607868FEF743
:10246000AFF8FB680A4A93420CD97B681B69012BC1
:1024700008D17B6818687B6803F571731A460121DF
:1024800001F012FF002318461837BD4680BD00BF7B
:102490000A30544F80B485B000AF78600B46FB70B3
:1024A00013463B807B681B685B6ABB60FB78002B34
:1024B00007D13B8819047B681B68BA680A439A6293
:1024C00028E07B681B689B6A1B0CBA681344BB60DE
:1024D0000023FB730DE07B681A68FB7B40339B0095
:1024E00013445B681B0CBA681344BB60FB7B01336D
:1024F000FB73FA7BFB78013B9A42ECD33B881804D0
:102500007B681968FB78013BBA68024340339B0043
:102510000B445A60002318461437BD465DF8047B0F
:10252000704780B483B000AF78600B467B807B68D7
:102530001B687A885A62002318460C37BD465DF83E
:10254000047B704780B483B000AF78600B46FB70AB
:1025500000BF0C37BD465DF8047B704780B586B080
:1025600000AF78607B68002B01D101235BE27B68C0
:102570001B6803F00103002B75D0A34B9B6803F08D
:102580000C03042B0CD0A04B9B6803F00C03082B0E
:1025900012D19D4B5B6803F48003B3F5800F0BD120
:1025A000994B1B6803F40033002B5BD07B685B689E
:1025B000002B57D1012336E27B685B68B3F5803F7F
:1025C00006D1914B1B68904A43F4803313601DE0A1
:1025D0007B685B68B3F5A02F0CD18B4B1B688A4AD4
:1025E00043F480231360884B1B68874A43F480338D
:1025F00013600BE0844B1B68834A23F48033136021
:10260000814B1B68804A23F4802313607B685B68DE
:10261000002B13D0FEF722FB386108E0FEF71EFB0B
:1026200002463B69D31A642B01D90323FBE1764BA5
:102630001B6803F40033002BF0D014E0FEF70EFB10
:10264000386108E0FEF70AFB02463B69D31A642BA7
:1026500001D90323E7E16C4B1B6803F40033002B23
:10266000F0D100E000BF7B681B6803F00203002B81
:1026700063D0654B9B6803F00C03002B0BD0624BBF
:102680009B6803F00C03082B1CD15F4B5B6803F4C1
:102690008003002B16D15C4B1B6803F00203002B58
:1026A00005D07B68DB68012B01D00123BBE1564BD1
:1026B0001B6823F0F8027B681B69DB005249134357
:1026C0000B603AE07B68DB68002B20D04F4B012287
:1026D0001A60FEF7C3FA386108E0FEF7BFFA024657
:1026E0003B69D31A022B01D903239CE1464B1B689B
:1026F00003F00203002BF0D0434B1B6823F0F802D9
:102700007B681B69DB00404913430B6015E03F4BBE
:1027100000221A60FEF7A2FA386108E0FEF79EFA7E
:1027200002463B69D31A022B01D903237BE1364BC6
:102730001B6803F00203002BF0D17B681B6803F0D9
:102740000803002B30D07B685B69002B16D0304B20
:1027500001221A60FEF782FA386108E0FEF77EFA7D
:1027600002463B69D31A022B01D903235BE1264BB6
:102770005B6F03F00203002BF0D015E0244B002226
:102780001A60FEF76BFA386108E0FEF767FA024656
:102790003B69D31A022B01D9032344E11A4B5B6F27
:1027A00003F00203002BF0D17B681B6803F00403E5
:1027B000002B00F0A0800023FB75134B1B6C03F073
:1027C0008053002B0FD10023BB600F4B1B6C0E4AB4
:1027D00043F0805313640C4B1B6C03F08053BB60BD
:1027E000BB680123FB750B4B1B6803F48073002B44
:1027F00021D1084B1B68074A43F480731360FEF72E
:102800002DFA386111E000BF003802400000474255
:10281000800E474200700040FEF720FA02463B69F6
:10282000D31A022B01D90323FDE0814B1B6803F46B
:102830008073002BF0D07B689B68012B06D17D4B09
:102840001B6F7C4A43F0010313671CE07B689B68A5
:10285000052B0CD1774B1B6F764A43F004031367AB
:10286000744B1B6F734A43F0010313670BE0714B0A
:102870001B6F704A23F0010313676E4B1B6F6D4A89
:1028800023F0040313677B689B68002B15D0FEF7C9
:10289000E5F938610AE0FEF7E1F902463B69D31A2F
:1028A00041F28832934201D90323BCE0614B1B6F94
:1028B00003F00203002BEED014E0FEF7CFF93861ED
:1028C0000AE0FEF7CBF902463B69D31A41F288329F
:1028D000934201D90323A6E0564B1B6F03F002037A
:1028E000002BEED1FB7D012B05D1524B1B6C514AC5
:1028F00023F0805313647B689B69002B00F0928067
:102900004C4B9B6803F00C03082B5CD07B689B69E5
:10291000022B41D1484B00221A60FEF79FF9386123
:1029200008E0FEF79BF902463B69D31A022B01D956
:10293000032378E03F4B1B6803F00073002BF0D1BA
:102940007B68DA697B681B6A1A437B685B6A9B0158
:102950001A437B689B6A5B08013B1B041A437B6834
:10296000DB6A1B06334913434B60334B01221A6069
:10297000FEF774F9386108E0FEF770F902463B692A
:10298000D31A022B01D903234DE02A4B1B6803F015
:102990000073002BF0D045E0274B00221A60FEF7B1
:1029A0005DF9386108E0FEF759F902463B69D31A30
:1029B000022B01D9032336E01E4B1B6803F0007382
:1029C000002BF0D12EE07B689B69012B01D1012304
:1029D00029E0184B5B68FB60FB6803F480027B68AE
:1029E000DB699A421CD1FB6803F03F027B681B6ADB
:1029F0009A4215D1FA6847F6C07313407A68526A52
:102A000093420DD1FB6803F440327B689B6A9A4283
:102A100006D1FB6803F070627B68DB6A9A4201D0E2
:102A2000012300E0002318461837BD4680BD00BFD3
:102A300000700040003802406000474280B584B01A
:102A400000AF786039607B68002B01D10123CCE0B6
:102A5000684B1B6803F00F033A689A420CD9654B28
:102A60003A68D2B21A70634B1B6803F00F033A68DE
:102A70009A4201D00123B8E07B681B6803F002038F
:102A8000002B20D07B681B6803F00403002B05D0CB
:102A9000594B9B68584A43F4E05393607B681B682A
:102AA00003F00803002B05D0534B9B68524A43F4B4
:102AB00060439360504B9B6823F0F0027B689B68F7
:102AC0004D4913438B607B681B6803F00103002BA7
:102AD00044D07B685B68012B07D1474B1B6803F42C
:102AE0000033002B19D101237FE07B685B68022B48
:102AF00003D07B685B68032B07D13F4B1B6803F057
:102B00000073002B09D101236FE03B4B1B6803F0DE
:102B10000203002B01D1012367E0374B9B6823F0B0
:102B200003027B685B68344913438B60FEF796F8B9
:102B3000F8600AE0FEF792F80246FB68D31A41F209
:102B40008832934201D903234FE02B4B9B6803F05B
:102B50000C027B685B689B009A42EBD1254B1B689B
:102B600003F00F033A689A420CD2224B3A68D2B271
:102B70001A70204B1B6803F00F033A689A4201D089
:102B8000012332E07B681B6803F00403002B08D0AC
:102B9000194B9B6823F4E0527B68DB6816491343AA
:102BA0008B607B681B6803F00803002B09D0124B75
:102BB0009B6823F460427B681B69DB000E4913436A
:102BC0008B6000F02DF802460B4B9B681B0903F04D
:102BD0000F030A49CB5C22FA03F3094A1360094B3D
:102BE0001B681846FDF7F6FF002318461037BD4650
:102BF00080BD00BF003C024000380240B0470008E2
:102C0000FC0300200004002080B400AF034B01222D
:102C10001A6000BFBD465DF8047B70474C00474218
:102C2000B0B584B000AF002179600021F9600021C7
:102C300039600021B9605249896801F00C01082906
:102C40000DD0082900F29480002902D0042903D075
:102C50008EE04C4BBB608EE04B4BBB608BE0484939
:102C6000496801F03F0179604549496801F48001F4
:102C7000002924D042494968890908464FF00001DB
:102C800040F2FF144FF0000500EA040201EA0503D8
:102C90003D4901FB03F0002101FB02F144183A49D0
:102CA000A2FB0101631819467B681A464FF0000326
:102CB00001F0E2FB02460B461346FB604AE0304B54
:102CC0005B689B091A464FF0000340F2FF104FF07B
:102CD000000102EA000403EA0105204629464FF0FC
:102CE00000024FF000034B0143EAD063420110465B
:102CF0001946001B61EB05014FF000024FF0000385
:102D00008B0143EA90638201121A63EB01034FF0D7
:102D100000004FF00001D90041EA5271D000024694
:102D20000B46121945EB03034FF000004FF0000172
:102D3000990241EA9251900202460B46104619460A
:102D40007B681A464FF0000301F096FB02460B46E3
:102D50001346FB600A4B5B681B0C03F00303013353
:102D60005B003B60FA683B68B2FBF3F3BB6002E0D8
:102D7000044BBB6000BFBB6818461037BD46B0BDF2
:102D8000003802400024F40040787D0180B400AF98
:102D9000034B1B681846BD465DF8047B704700BFB7
:102DA000FC03002084B080B584B000AF786007F1E8
:102DB0001C0080E80E003B6B012B22D17B689B6BD3
:102DC00023F480327B689A637B68DB6823F4840396
:102DD00023F040037A68D3607B68DB6823F44012F9
:102DE0007B68DA60FB6C012B05D17B68DB6843F400
:102DF00080127B68DA60786801F0B4FA0346FB73EE
:102E00001AE07B68DB6843F040027B68DA60786830
:102E100001F0A8FA0346FB733B6C002B06D17B68DC
:102E20009B6B43F480327B689A6305E07B689B6B05
:102E300023F480327B689A63BB6A012B0BD17B68D9
:102E40009B6843F006027B689A607B689B6843F04E
:102E500020027B689A60FB7B18461037BD46BDE8B0
:102E6000804004B07047000080B487B000AFF860C5
:102E7000B9601346FB71FB79022B65D1BB68414AEF
:102E8000934206D9BB68404A934202D20F237B612A
:102E900062E0BB683C4A934206D3BB683B4A93421C
:102EA00002D20E237B6157E0BB68384A934206D3B7
:102EB000BB68374A934202D20D237B614CE0BB686A
:102EC000334A934206D3BB68324A934202D80C235A
:102ED0007B6141E0BB682F4A934206D9BB682E4A0A
:102EE000934202D80B237B6136E0BB682A4A9342A7
:102EF00006D9BB68294A934202D80A237B612BE09A
:102F0000BB68264A934206D9BB68254A934202D23F
:102F100009237B6120E0BB68214A934206D3BB684A
:102F2000204A934202D808237B6115E0BB681D4A02
:102F3000934206D9BB681C4A934202D207237B61A5
:102F40000AE006237B6107E0FB79002B02D109230D
:102F50007B6101E009237B61FB68DB6823F470522D
:102F6000FB68DA60FB68DA687B699B0203F47053E4
:102F70001A43FB68DA60002318461C37BD465DF82B
:102F8000047B7047BFACD800C0E1E4000024F4002B
:102F9000807306019F491A01FF2C31013FA44C01A7
:102FA00000366E011FABA6010048E80180B483B073
:102FB00000AF78607B689B6843F001027B689A6091
:102FC000002318460C37BD465DF8047B704780B47B
:102FD00083B000AF78607B689B6823F001027B6858
:102FE0009A60002318460C37BD465DF8047B704795
:102FF00080B582B000AF78600B46FB707B68DB6801
:1030000023F0C0427B68DA60FB78012B06D17B6835
:10301000DB6843F000527B68DA600BE0FB78002B42
:1030200006D17B68DB6843F080427B68DA6001E0B0
:10303000012303E03220FDF71DFE00231846083768
:10304000BD4680BD84B080B586B000AF786007F122
:10305000240080E80E000023FB757B68FB600023E2
:103060003B6109E07A683B6940339B0013440022CE
:103070005A603B6901333B613B690E2BF2D9FB6C13
:10308000002B1CD1FB6803F500635B68FA6802F54E
:10309000006243F0020353607B689B6B43F40012B1
:1030A0007B689A637B689B6B23F400227B689A633E
:1030B0007B689B6B23F480227B689A630BE07B68C0
:1030C0009B6B23F400127B689A637B689B6B43F4D1
:1030D00000227B689A63FB6803F560631A4600234D
:1030E0001360FB6803F500631946FB6803F5006392
:1030F0001A460B681360BB6B012B0CD1FB6A002BCB
:1031000004D10021786800F049F908E001217868CD
:1031100000F044F903E00321786800F03FF9102142
:10312000786800F0F3F80346002B01D00123FB750B
:10313000786800F011F90346002B01D00123FB75DC
:10314000FB6803F500631A4600231361FB6803F56F
:1031500000631A4600235361FB6803F500631A46B7
:103160000023D36100233B6143E03B695A01FB68C4
:10317000134403F510631B6803F00043B3F1004FE1
:1031800018D13B69002B0AD13B695A01FB681344F3
:1031900003F510631A464FF00063136013E03B69B8
:1031A0005A01FB68134403F510631A464FF090432D
:1031B000136008E03B695A01FB68134403F5106390
:1031C0001A46002313603B695A01FB68134403F558
:1031D00010631A46002313613B695A01FB681344CC
:1031E00003F510631A464FF67F3393603B69013352
:1031F0003B617B6A3A699A42B7D300233B6143E063
:103200003B695A01FB68134403F530631B6803F004
:103210000043B3F1004F18D13B69002B0AD13B6941
:103220005A01FB68134403F530631A464FF00063FC
:10323000136013E03B695A01FB68134403F53063E4
:103240001A464FF09043136008E03B695A01FB684F
:10325000134403F530631A46002313603B695A0197
:10326000FB68134403F530631A46002313613B697E
:103270005A01FB68134403F530631A464FF67F3357
:1032800093603B6901333B617B6A3A699A42B7D3E9
:10329000FB6803F500631B69FA6802F5006223F41A
:1032A000807313617B6800229A617B686FF08042B3
:1032B0005A613B6B002B05D17B689B6943F0100280
:1032C0007B689A617B689A690F4B13437A689361B4
:1032D000FB6B002B05D07B689B6943F008027B6881
:1032E0009A61FB6C012B07D17B689B6943F080439B
:1032F00043F004037A689361FB7D18461837BD4696
:10330000BDE8804004B0704700383C8080B485B090
:1033100000AF786039600023FB603B689B0143F09D
:1033200020027B681A61FB680133FB60FB68094A75
:10333000934201D9032306E07B681B6903F0200355
:10334000202BF0D0002318461437BD465DF8047BCF
:10335000704700BF400D030080B485B000AF7860B7
:103360000023FB607B6810221A61FB680133FB605D
:10337000FB68094A934201D9032306E07B681B6975
:1033800003F01003102BF0D0002318461437BD466D
:103390005DF8047B704700BF400D030080B485B02A
:1033A00000AF78600B46FB707B68FB60FB6803F541
:1033B00000631A68FB78F96801F5006113430B603C
:1033C000002318461437BD465DF8047B704780B46F
:1033D00087B000AF78607B683B613B6903F50063B1
:1033E0009B6803F00603FB60FB68002B02D10023FF
:1033F000FB750AE0FB68022B02D0FB68062B02D1AA
:103400000223FB7501E00F23FB75FB7D18461C377B
:10341000BD465DF8047B704780B485B000AF78602E
:1034200039607B68FB603B681B78BB603B685B78FE
:10343000012B3AD1FB6803F50063DA693B681B781E
:1034400003F00F03012101FA03F39BB2F96801F5C0
:1034500000611343CB61BB685A01FB68134403F559
:1034600010631B6803F40043002B55D1BB685A015D
:10347000FB68134403F510631A683B689B68C3F349
:103480000A013B68DB789B041943BB689B050B432F
:103490001343BA685101FA680A4402F5106243F016
:1034A000805343F40043136036E0FB6803F5006388
:1034B000DA693B681B7803F00F03012101FA03F37B
:1034C0001B04F96801F500611343CB61BB685A0125
:1034D000FB68134403F530631B6803F40043002BBF
:1034E0001AD1BB685A01FB68134403F530631A68AC
:1034F0003B689B68C3F30A013B68DB789B040B4382
:103500001343BA685101FA680A4402F5306243F085
:10351000805343F400431360002318461437BD461C
:103520005DF8047B7047000080B485B000AF786020
:1035300039607B68FB603B681B78BB603B685B78ED
:10354000012B61D1BB685A01FB68134403F510637A
:103550001B6803F00043B3F1004F1FD1BB685A0151
:10356000FB68134403F510631B68BA685101FA68DD
:103570000A4402F5106243F000631360BB685A010D
:10358000FB68134403F510631B68BA685101FA68BD
:103590000A4402F5106243F080431360FB6803F5B0
:1035A0000063DA6B3B681B7803F00F03012101FA1B
:1035B00003F39BB2DB43F96801F500611340CB6371
:1035C000FB6803F50063DA693B681B7803F00F03BF
:1035D000012101FA03F39BB2DB43F96801F50061B5
:1035E0001340CB61BB685A01FB68134403F51063B9
:1035F0001A68BB685901FB680B4403F51063194650
:10360000354B13400B6060E0BB685A01FB68134404
:1036100003F530631B6803F00043B3F1004F1FD183
:10362000BB685A01FB68134403F530631B68BA6832
:103630005101FA680A4402F5306243F000631360F6
:10364000BB685A01FB68134403F530631B68BA6812
:103650005101FA680A4402F5306243F08043136076
:10366000FB6803F50063DA6B3B681B7803F00F031C
:10367000012101FA03F31B04DB43F96801F5006142
:103680001340CB63FB6803F50063DA693B681B7882
:1036900003F00F03012101FA03F31B04DB43F96874
:1036A00001F500611340CB61BB685A01FB6813440C
:1036B00003F530631A68BB685901FB680B4403F5D6
:1036C00030631946054B13400B600023184614372E
:1036D000BD465DF8047B7047007833EC0078F3EF6B
:1036E00080B58AB002AFF860B9601346FB71FB6821
:1036F000FB61BB681B78BB61BB685B78012B40F04A
:103700005C81BB685B69002B32D1BB695A01FB69E4
:10371000134403F510631B69BA695101FA690A443D
:1037200002F5106223F0FF5323F4C0131361BB6949
:103730005A01FB69134403F510631B69BA6951010F
:10374000FA690A4402F5106243F400231361BB696D
:103750005A01FB69134403F510631B69BA695101EF
:10376000FA690A4402F51062DB0CDB04136174E0B1
:10377000BB695A01FB69134403F510631B69BA69FD
:103780005101FA690A4402F51062DB0CDB04136193
:10379000BB695A01FB69134403F510631B69BA69DD
:1037A0005101FA690A4402F5106223F0FF5323F431
:1037B000C0131361BB695A01FB69134403F510631D
:1037C0001A69BB685969BB689B680B44591EBB6882
:1037D0009B68B1FBF3F3D9049D4B0B40B9694801D9
:1037E000F969014401F5106113430B61BB695A018A
:1037F000FB69134403F510631A69BB685B69C3F383
:103800001203B9694801F969014401F510611343D4
:103810000B61BB68DB78012B1FD1BB695A01FB69C7
:10382000134403F510631B69BA695101FA690A442C
:1038300002F5106223F0C0431361BB695A01FB69B2
:10384000134403F510631B69BA695101FA690A440C
:1038500002F5106243F000531361FB79012B4BD149
:10386000BB681B69002B09D0BB695A01FB69134473
:1038700003F510631A46BB681B695361BB68DB78AC
:10388000012B28D1FB6903F500639B6803F4807367
:10389000002B10D1BB695A01FB69134403F5106377
:1038A0001B68BA695101FA690A4402F5106243F0D3
:1038B000005313600FE0BB695A01FB69134403F521
:1038C00010631B68BA695101FA690A4402F5106273
:1038D00043F080531360BB695A01FB69134403F53D
:1038E00010631B68BA695101FA690A4402F5106253
:1038F00043F0044313602FE1BB695A01FB69134491
:1039000003F510631B68BA695101FA690A4402F5AC
:10391000106243F004431360BB68DB78012B15D0C1
:10392000BB685B69002B00F01781FB6903F500633E
:103930005A6BBB681B7803F00F03012101FA03F3F4
:10394000F96901F5006113434B6305E1FB6903F578
:1039500000639B6803F48073002B10D1BB695A018C
:10396000FB69134403F510631B68BA695101FA69D6
:103970000A4402F5106243F0005313600FE0BB6984
:103980005A01FB69134403F510631B68BA695101BE
:10399000FA690A4402F5106243F080531360BB6871
:1039A000D968BB681A78BB685B6998B2FB790093E9
:1039B0000346F86800F02BFACEE0BB695A01FB69B8
:1039C000134403F530631B69BA695101FA690A446B
:1039D00002F53062DB0CDB041361BB695A01FB6941
:1039E000134403F530631B69BA695101FA690A444B
:1039F00002F5306223F0FF5323F4C0131361BB6858
:103A00005B69002B26D1BB695A01FB69134403F59E
:103A100030631A69BB689B68C3F31203B969480134
:103A2000F969014401F5306113430B61BB695A0127
:103A3000FB69134403F530631B69BA695101FA69E4
:103A40000A4402F5306243F40023136136E000BFFC
:103A50000000F81FBB685A69BB689B6813445A1E74
:103A6000BB689B68B2FBF3F3FB82BB695A01FB693D
:103A7000134403F530631A69FB8AD904394B0B40B0
:103A8000B9694801F969014401F5306113430B61DB
:103A9000BB695A01FB69134403F530631A69BB68BB
:103AA0009B68F98A01FB03F3C3F31203B969480168
:103AB000F969014401F5306113430B61FB79012B76
:103AC0000DD1BB68DB68002B09D0BB68D968BB6926
:103AD0005A01FB69134403F530630A465A61BB6817
:103AE000DB78012B28D1FB6903F500639B6803F4A5
:103AF0008073002B10D1BB695A01FB69134403F595
:103B000030631B68BA695101FA690A4402F53062F0
:103B100043F0005313600FE0BB695A01FB69134483
:103B200003F530631B68BA695101FA690A4402F56A
:103B3000306243F080531360BB695A01FB69134440
:103B400003F530631B68BA695101FA690A4402F54A
:103B5000306243F004431360002318462037BD460B
:103B600080BD00BF0000F81F80B487B000AFF860D0
:103B7000B9601346FB71FB687B61BB681B783B61D6
:103B8000BB685B78012B40F0CD80BB685B69002B84
:103B900032D13B695A017B69134403F510631B69F9
:103BA0003A6951017A690A4402F5106223F0FF5321
:103BB00023F4C01313613B695A017B69134403F575
:103BC00010631B693A6951017A690A4402F510626F
:103BD00043F4002313613B695A017B69134403F5E5
:103BE00010631B693A6951017A690A4402F510624F
:103BF000DB0CDB0413614EE03B695A017B69134423
:103C000003F510631B693A6951017A690A4402F5A8
:103C10001062DB0CDB0413613B695A017B691344BE
:103C200003F510631B693A6951017A690A4402F588
:103C3000106223F0FF5323F4C0131361BB685A6969
:103C4000BB689B689A4203D9BB689A68BB685A6193
:103C50003B695A017B69134403F510631B693A6998
:103C600051017A690A4402F5106243F4002313619A
:103C70003B695A017B69134403F510631A69BB68F9
:103C80005B69C3F31203396948017969014401F59D
:103C9000106113430B61FB79012B1ED1BB681B69BB
:103CA000002B09D03B695A017B69134403F510636B
:103CB0001A46BB681B6953613B695A017B6913440F
:103CC00003F510631B683A6951017A690A4402F5E9
:103CD000106243F00443136092E03B695A017B6930
:103CE000134403F510631B683A6951017A690A4469
:103CF00002F5106243F004431360BB685B69002B5C
:103D00007ED07B6903F500635A6BBB681B7803F0B8
:103D10000F03012101FA03F3796901F500611343EF
:103D20004B636DE03B695A017B69134403F53063D3
:103D30001B693A6951017A690A4402F53062DB0C69
:103D4000DB0413613B695A017B69134403F530635B
:103D50001B693A6951017A690A4402F5306223F01D
:103D6000FF5323F4C0131361BB685B69002B03D0BE
:103D7000BB689A68BB685A613B695A017B69134406
:103D800003F530631B693A6951017A690A4402F507
:103D9000306243F4002313613B695A017B69134489
:103DA00003F530631A69BB689B68C3F31203396972
:103DB00048017969014401F5306113430B61FB79D6
:103DC000012B0DD1BB68DB68002B09D0BB68D9681B
:103DD0003B695A017B69134403F530630A465A6113
:103DE0003B695A017B69134403F530631B683A69E8
:103DF00051017A690A4402F5306243F004431360CA
:103E0000002318461C37BD465DF8047B704780B41C
:103E100089B000AFF860B96011461A460B46FB71D5
:103E20001346BB80FB687B61BB68FB6197F8283059
:103E3000002B1AD1BB8803339B083B610023BB6175
:103E40000FE0FB791A037B69134403F580531A468C
:103E5000FB691B681360FB690433FB61BB690133B9
:103E6000BB61BA693B699A42EBD3002318462437F9
:103E7000BD465DF8047B704780B489B000AFF86040
:103E8000B9601346FB80FB687B61BB68FB61FB8804
:103E900003339B083B610023BB610BE07B6903F5A7
:103EA00080531A68FB691A60FB690433FB61BB69C4
:103EB0000133BB61BA693B699A42EFD3FB6918468B
:103EC0002437BD465DF8047B704780B485B000AFF1
:103ED000786039607B68FB603B681B78BB603B683F
:103EE0005B78012B2CD1BB685A01FB68134403F5A6
:103EF00010631B68002B12DBBB68002B0FD0BB6864
:103F00005A01FB68134403F510631B68BA6851013A
:103F1000FA680A4402F5106223F080431360BB681C
:103F20005A01FB68134403F510631B68BA6851011A
:103F3000FA680A4402F5106243F4001313602BE0A0
:103F4000BB685A01FB68134403F530631B68002B00
:103F500012DBBB68002B0FD0BB685A01FB6813440F
:103F600003F530631B68BA685101FA680A4402F528
:103F7000306223F080431360BB685A01FB6813442E
:103F800003F530631B68BA685101FA680A4402F508
:103F9000306243F400131360002318461437BD4603
:103FA0005DF8047B704780B485B000AF78603960FD
:103FB0007B68FB603B681B78BB603B685B78012BD0
:103FC00028D1BB685A01FB68134403F510631B68D2
:103FD000BA685101FA680A4402F5106223F400132A
:103FE00013603B68DB78032B03D03B68DB78022B44
:103FF00038D1BB685A01FB68134403F510631B6892
:10400000BA685101FA680A4402F5106243F080531D
:10401000136027E0BB685A01FB68134403F5306363
:104020001B68BA685101FA680A4402F5306223F449
:10403000001313603B68DB78032B03D03B68DB780D
:10404000022B0FD1BB685A01FB68134403F53063A0
:104050001B68BA685101FA680A4402F5306243F0FD
:1040600080531360002318461437BD465DF8047B67
:10407000704780B485B000AF78600B46FB707B68FA
:10408000FB60FB6803F500631B68FA6802F50062D9
:1040900023F4FE631360FB6803F500631A68FB7882
:1040A0001B0103F4FE63F96801F5006113430B6023
:1040B000002318461437BD465DF8047B704780B571
:1040C00084B000AF78607B68FB60FB6803F5006339
:1040D0005B68FA6802F5006223F002035360032074
:1040E000FCF7C8FD002318461037BD4680BD80B5DB
:1040F00084B000AF78607B68FB60FB6803F5006309
:104100005B68FA6802F5006243F002035360032023
:10411000FCF7B0FD002318461037BD4680BD80B4C3
:1041200085B000AF78607B685B69FB607B689B69EA
:10413000FA681340FB60FB6818461437BD465DF80B
:10414000047B704780B485B000AF78607B68FB600B
:10415000FB6803F500639B69BB60FB6803F50063C4
:10416000DB69BA681340BB60BB681B0C1846143788
:10417000BD465DF8047B704780B485B000AF7860C1
:104180007B68FB60FB6803F500639B69BB60FB68B1
:1041900003F50063DB69BA681340BB60BB689BB280
:1041A00018461437BD465DF8047B704780B485B06F
:1041B00000AF78600B46FB707B68FB60FB785A01B0
:1041C000FB68134403F530639B68BB60FB6803F531
:1041D00000635B69BA681340BB60BB68184614375C
:1041E000BD465DF8047B704780B487B000AF78604F
:1041F0000B46FB707B687B617B6903F500631B6981
:104200003B617B6903F500635B6BFB60FB7803F04C
:104210000F03FA6822FA03F3DB01DBB23A691343B6
:104220003B61FB785A017B69134403F510639B687B
:104230003A691340BB60BB6818461C37BD465DF841
:10424000047B704780B483B000AF78607B685B69A3
:1042500003F0010318460C37BD465DF8047B704738
:1042600080B485B000AF78607B68FB60FB6803F5C5
:1042700010631B68FA6802F5106223F4FF6323F0F1
:1042800007031360FB6803F500635B68FA6802F5D7
:10429000006243F480735360002318461437BD4610
:1042A0005DF8047B7047000080B487B000AFF86011
:1042B0000B467A60FB72FB687B61FB683C3304331E
:1042C0001B683B613B69264A93420AD97B6903F527
:1042D00030631B6803F00043B3F1004F01D10023AA
:1042E00037E07B6903F530631A46002313617B696D
:1042F00003F530631B697A6902F5306243F40023E9
:1043000013617B6903F530631B697A6902F53062DA
:1043100043F0180313617B6903F530631B697A6905
:1043200002F5306243F0C0431361FB7A012B0FD1D9
:104330007B6903F530631A467B6853617B6903F53B
:1043400030631B687A6902F5306243F080231360A2
:10435000002318461C37BD465DF8047B704700BF3C
:104360000A30544F80B485B000AF78600023FB6002
:10437000FB680133FB60FB68134A934201D90323B6
:104380001BE07B681B69002BF2DA0023FB607B6873
:104390001B6943F001027B681A61FB680133FB6013
:1043A000FB68094A934201D9032306E07B681B6935
:1043B00003F00103012BF0D0002318461437BD464B
:1043C0005DF8047B704700BF400D0300DFF834D078
:1043D000002103E00C4B5B58435004310B480C4B5D
:1043E00042189A42F6D30B4A02E0002342F8043BFB
:1043F000094B9A42F9D3FCF72DFB00F011F8FBF7BB
:104400003DFF704700000220CC470008000000205C
:10441000100400201004002048090020FEE70000DE
:1044200070B50D4D0D4C641BA4100026A64209D199
:104430000B4D0C4C00F090F9641BA4100026A64212
:1044400005D170BD55F8043B98470136EEE755F8A5
:10445000043B98470136F2E70804002008040020D6
:10446000080400200C04002002440346934200D1BB
:10447000704703F8011BF9E753B94AB9002908BF8F
:1044800000281CBF4FF0FF314FF0FF3000F062B941
:10449000ADF1080C6DE904CE00F006F8DDF804E09B
:1044A000DDE9022304B070472DE9F04F099E8A46EA
:1044B0008E46154604461946002B40F0CA805245E8
:1044C000B2FA82F747D94FB1C7F120080AFA07F3C9
:1044D00020FA08F8BD4048EA030EBC404FEA1549EF
:1044E0001FFA85F8BEFBF9FB220C09FB1BE30BFB53
:1044F00008FC42EA034AD44529D915EB0A0A0BF114
:10450000FF3004D2D44502D9ABF10200AA44AAEB91
:104510000C0AA4B2BAFBF9F309FB13AA03FB08F8CF
:1045200044EA0A44A04514D92C1903F1FF3203D2FE
:10453000A04501D99A1E2C44A4EB080442EA00408D
:104540001EB1FC40002334607360BDE8F08F584614
:10455000DDE71A46F0E702B9FFDE9FBBAAEB0203D4
:1045600001214FEA154CAAB2B3FBFCFE200C0CFB58
:104570001E330EFB02F840EA0343984565D9EB1859
:104580000EF1FF3004D2984502D9AEF102002B445F
:10459000A3EB0803A4B2B3FBFCFE0CFB1E330EFB23
:1045A00002F244EA0344A24251D92C190EF1FF331E
:1045B00004D2A24202D9AEF102032C44A41A43EA67
:1045C0000040BDE7C7F120082AFA08F9BD4020FAEB
:1045D00008F80AFA07F348EA03024FEA154CABB2AF
:1045E000B9FBFCFE110C0CFB1E900EFB03F841EA1C
:1045F0000040804504FA07F423D928180EF1FF3152
:1046000004D2804502D9AEF102012844A0EB080093
:1046100092B2B0FBFCFE0CFB1E000EFB03F842EA5C
:10462000004398450FD9EB180EF1FF3204D298459C
:1046300002D9AEF102022B44A3EB080342EA014186
:104640008FE77146E2E77246F6E77046A0E77346E9
:10465000B4E7534505D90EB1C6E9000A0021084662
:1046600073E7B3FA83F8B8F1000F10D1534501D3C3
:1046700082420AD8841A6AEB030301209E46002E68
:1046800065D0C6E9004E00215FE74046F7E7C8F174
:10469000200903FA08F322FA09F71F4320FA09F464
:1046A0000AFA08F32AFA09F51C434FEA174A02FAF4
:1046B00008FC00FA08FEB5FBFAF2BBB20AFB125086
:1046C000250C02FB03F145EA0045A9423BD97D19BF
:1046D00002F1FF3003D2A94201D9901E3D446D1A68
:1046E000A4B2B5FBFAF20AFB1255534344EA054162
:1046F0008B422AD9791802F1FF3403D28B4201D9B7
:10470000941E394444EA0040A0FB0C45C91AA94252
:1047100023462A4602D306D1A64504D2B4EB0C03A5
:1047200065EB0702013896B1BEEB030461EB020EA4
:104730000EFA09F924FA08F349EA03032EFA08F1FC
:10474000C6E900319FE71046C9E71446DAE731466B
:10475000FBE60000704700BFF8B500BFF8BC08BC1E
:104760009E467047F8B500BFF8BC08BC9E4670472F
:1047700042006C0061006100740053006300680037
:1047800061006100700000005500530042002000ED
:104790004400650076006900630065002000440065
:1047A00065006D006F0000000000000000000000C8
:1047B00000000000000000000102030406070809D1
:0447C00000000000F5
:0847C400E4FCFF7F010000008E
:1047CC00450400086D0400083D0400087504000849
:1047DC00850400087D040008380400200000000057
:1047EC0000000000000000000000000000000000BD
:1047FC0000000000000000000000000000000000AD
:10480C00000000000000000000000000000000009C
:10481C00000000000000000000000000000000008C
:104B9C0000000000000000000600FF0901A1011543
:104BAC000026FF0075089540090181029540090116
:104BBC00910295010901B102C00000000024F4002B
:104BCC001000000001000000BD0100089901000860
:04000005080043CDDF
:00000001FF
