:020000040800F2
:1000000000280020DD600008256100082561000847
:100010002561000825610008256100080000000036
:100020000000000000000000000000002561000842
:10003000256100080000000025610008C10B0008D0
:100040002561000825610008256100082561000878
:100050002561000825610008256100082561000868
:100060002561000825610008256100082561000858
:100070002561000825610008256100082561000848
:100080002561000825610008256100082561000838
:10009000950B00082561000825610008256100080E
:1000A0002561000825610008256100082561000818
:1000B0002561000825610008256100082561000808
:1000C00025610008256100082561000825610008F8
:1000D00025610008256100082561000825610008E8
:1000E0002561000825610008A90B00080000000038
:1000F0000000000000000000000000000000000000
:1001000000000000000000005FF808F110B5054C89
:10011000237833B9044B13B10448AFF300800123B3
:10012000237010BDF404002000000000946B000850
:1001300008B5034B1BB103490348AFF3008008BD6A
:1001400000000000F8040020946B000880B594B013
:1001500000AF07F13C0300221A605A609A60DA602F
:100160001A6107F1140328220021184606F000F84E
:100170003B1D00221A605A609A60DA6001237B619D
:100180004FF48033BB610023FB614FF4E013BB638A
:1001900002233B634FF480337B6307F1140318465B
:1001A00001F09AF910237B6000233B613B1D184648
:1001B00001F070FD0F23FB6302233B6400237B648B
:1001C0004FF48063BB640023FB6407F13C0302210E
:1001D000184601F003FC00F0C1FF00BF5037BD46D8
:1001E00080BD000080B584B002AF1A4B1B68194B6C
:1001F0007B607B681B88C3F30B139BB203F44063E3
:10020000B3F5406F20D17B681B88C3F30B139BB2FF
:1002100003F02003002B17D07B681B88C3F30B135C
:100220009BB203F00F027B689B78C3F30313DBB22E
:1002300019467B681B78C3F30303DBB200930B46BC
:100240000549064805F09CFF044B18460837BD4693
:1002500080BD00BF00ED00E09C6A000800000020A7
:100260002DE9B00F8FB000AF786339633B6B1A692B
:100270003B6B5B691B021A433B6B9B691B041A4374
:100280003B6BDB691B0613430022BB62FA623B6BCC
:100290001B6800223B627A624FF000024FF00003BD
:1002A000396A0B000022D7E90A0184464CEA020AA7
:1002B00041EA030B3B6B5B680022BB61FA614FF0C4
:1002C00000024FF00003B9690B0200224AEA02085B
:1002D0004BEA03093B6B9B6800223B617A614FF05C
:1002E00000024FF0000339690B04002248EA0204BF
:1002F00049EA03053B6BDB680022BB60FA604FF004
:1003000000024FF00003B9680B06002244EA020124
:1003100039602B437B607B6BD7E90012C3E9001285
:10032000786B3C37BD46BDE8B00F704780B500AF75
:10033000FFF70CFF00BF80BD80B586B000AF2D4B2E
:100340007B612D4B5B692C4A43F0400353612A4B80
:100350005B6903F040037B607B68284BBB6007F15F
:100360000803184601F04CFD07F108034FF48072B2
:100370002349184601F069FD38613B69214A9342DF
:100380002FD03B691F4A93422FD83B691E4A9342A4
:1003900014D03B691C4A934227D83B691B4A9342BD
:1003A0001CD03B69194A93421FD83B69184A9342B3
:1003B00011D03B69174A934203D016E0164B7B617C
:1003C00013E0164B7B61164B1B68164A93420BD108
:1003D000154B7B6108E0154B7B6106E0144B7B619C
:1003E00003E0144B7B6100E000BF00BF1837BD463F
:1003F00080BD00BFB06A000800100240003002401B
:1004000000F0FF1F3522BDDCD00461DADB2AD452B4
:1004100032D0271529713727B86A0008C46A000846
:10042000D0F7FF1FFF00F30CD06A0008D86A00085D
:10043000E46A0008EC6A0008B0B58CB006AF474B20
:100440003B613B6943F47D63FB603B46F9681846BA
:10045000FFF706FF424B7B61BB7803F00803DBB27A
:10046000002B43D03B6803F4FE23B3F5003F07D1D4
:100470003B7903F00F03DBB2002B01D1394B7B61D9
:100480003B6803F4FE23B3F5A22F07D13B7903F0B9
:100490000F03DBB2072B01D1334B7B613B6803F4C5
:1004A000FE23B3F56C3F2FD13B7903F00F03DBB292
:1004B000042B29D12D4B1B682D4A934203D0B3F155
:1004C000FF3F03D020E02B4B7B611DE02A4B1B68D4
:1004D0002A4A934203D02A4A934203D014E0294B7C
:1004E0007B6102E0284B7B6100BF0DE03B6803F4B9
:1004F000FE23B3F5AA2F07D13B7903F00F03DBB23C
:10050000052B01D1214B7B61FFF76CFE0246BB78C6
:10051000C3F3C003DBB219463B79C3F30303DBB279
:1005200018463B68C3F30633DBB21C463B88C3F373
:100530000B039BB21D46BB78C3F30313DBB20493DA
:10054000039502940190009113467A69104911486D
:1005500005F016FE00BF1837BD46B0BD00F00FE035
:10056000B06A0008F46A0008FC6A0008D0F7FF1FB0
:10057000FF00F30CD06A000800F0FF1FFC01002010
:1005800010090020046B0008EC6A0008E46A000807
:100590000C6B00081005002080B500AFFFF74CFF82
:1005A000FFF7CAFE00F04CFEFFF7C0FE00BFFDE7FC
:1005B00080B582B000AF78607B68D3F8E8227B68B2
:1005C00003F52C731946104600F00FFD00BF0837E5
:1005D000BD4680BD90B585B000AF78600B46FB701E
:1005E000FB781946786801F0BDFEF860FB7803F0EF
:1005F0007F03002B04D18021786801F00DFF48E0D3
:10060000FB7803F07F0225491346DB009B1A9B0011
:100610000B4403F54C731B68002B1DD0FB7803F0D3
:100620007F021E491346DB009B1A9B000B4403F517
:100630004C731C687B68D3F8E802FB7803F07F02F8
:1006400016491346DB009B1A9B000B4403F54973C4
:100650001A68F978FB68A047FB7803F07F020F491E
:100660001346DB009B1A9B000B4403F54973186883
:10067000FB7803F07F0209491346DB009B1A9B00BD
:100680000B4403F54A731B68F9780246786801F059
:100690002CFE00BF1437BD4690BD00BF40000020B7
:1006A000B0B584B000AF78600B46FB70FB7803F008
:1006B0007803002B40F03181FB7803F07F03002B9F
:1006C0000CBF01230023FB73FB7803F07F029549E5
:1006D0001346DB009B1A9B000B4403F51273196849
:1006E000FB7803F07F028F481346DB009B1A9B00C8
:1006F000034403F513731B68C91AFB7803F07F02E8
:1007000088481346DB009B1A9B00034403F51573CE
:100710001B6899426AD3FB7803F07F028149134634
:10072000DB009B1A9B000B4403F511731968FB78DF
:1007300003F07F027B481346DB009B1A9B000344B7
:1007400003F513731B68C818FB7803F07F02754923
:100750001346DB009B1A9B000B4403F512731968C8
:10076000FB7803F07F026F4C1346DB009B1A9B0063
:10077000234403F513731B68CB1AF9780246786893
:1007800001F007FEFB7803F07F0266491346DB00A9
:100790009B1A9B000B4403F513731968FB7803F055
:1007A0007F0260481346DB009B1A9B00034403F55D
:1007B00015731B68FA7802F07F02194459481346F2
:1007C000DB009B1A9B00034403F513731960FB7B4A
:1007D000002B00F0A380002300220021786801F0A4
:1007E00084FD8021786801F017FE97E0FB7803F024
:1007F0007F024C491346DB009B1A9B000B4403F518
:1008000012731968FB7803F07F0246481346DB0039
:100810009B1A9B00034403F513731B68CB1ABB6040
:10082000FB7803F07F023F491346DB009B1A9B00D5
:100830000B4403F511731968FB7803F07F02394804
:100840001346DB009B1A9B00034403F513731B68DC
:10085000CA18F978BB68786801F09BFDFB7803F053
:100860007F01FB7803F07F022E480B46DB005B1A0A
:100870009B00034403F5127319682A481346DB00F2
:100880009B1A9B00034403F513731960FB7B002B39
:100890000AD0002300220021786801F026FD802183
:1008A000786801F0B9FD39E0FB7803F07F021D495B
:1008B0001346DB009B1A9B000B4403F514731B6863
:1008C000002B2BD0FB7803F07F0216491346DB0088
:1008D0009B1A9B000B4403F514731C687B68D3F8C8
:1008E000E802FB7803F07F020E491346DB009B1AF7
:1008F0009B000B4403F511731D68FB7803F07F0226
:1009000008491346DB009B1A9B000B4403F5127346
:100910001B68F9782A46A04700E000BF1037BD46A3
:10092000B0BD00BF4000002080B483B000AF78604D
:1009300000BF0C37BD4680BC7047000080B584B056
:1009400000AF78607B68D3F8E832FB60FB68D3F8CF
:100950002432DB79BB60BB689AB20023002178683F
:1009600001F015FC094ABB68C2F83433BB689AB27F
:1009700000238021786801F00AFC044ABB68C2F8B1
:10098000543200BF1037BD4680BD00BF400000207C
:1009900080B483B000AF786000BF0C37BD4680BC28
:1009A000704780B483B000AF786000BF0C37BD469D
:1009B00080BC704780B586B000AFF8607A603B605D
:1009C0000B46FB72FB7A03F07F0218491346DB00EB
:1009D0009B1A9B000B4403F511737A681A60FB7A2B
:1009E00003F07F0211491346DB009B1A9B000B4466
:1009F00003F512733A681A60FB7A03F07F020B4921
:100A00001346DB009B1A9B000B4403F51373002273
:100A10001A60F97A3B687A68F86801F0BAFC034614
:100A20007B617B6918461837BD4680BD40000020B9
:100A300080B582B000AF78600B46FB70FB7819463A
:100A4000786801F07FFB034618460837BD4680BD35
:100A500080B582B000AF78600B46FB70FB7819461A
:100A6000786801F0D9FC034618460837BD4680BDBA
:100A700080B582B000AF78600B46FB70FB781946FA
:100A8000786801F029FD034618460837BD4680BD49
:100A900080B582B000AF78600B46FB70FB781946DA
:100AA000786801F0DAFB034618460837BD4680BD7A
:100AB00080B584B000AF7860084611461A460346F8
:100AC000FB700B46BB7013467B70304BDB69BB6021
:100AD000FB7899B2BB681B6800222D4802F05BFDD1
:100AE000BB681A68BB781A44BB681A600023FB60B5
:100AF000FB781946786801F043FD0346FB60FB680C
:100B0000002B01D0FB683DE0FB781946786801F0C6
:100B1000E3FC0346FB60FB68002B01D0FB6831E07F
:100B2000BB789AB27B78F978786801F030FB03469D
:100B3000FB60FB68002B01D0FB6823E097F90330D2
:100B4000002B1EDBFB7803F07F0210491346DB000D
:100B50009B1A9B000B4403F549731868FB7803F05C
:100B60007F020A491346DB009B1A9B000B4403F5E6
:100B70004A731B68F9780246786801F0B6FB0346B1
:100B8000FB60FB6818461037BD4680BD4000002062
:100B90009005002080B500AF024801F080F900BF49
:100BA00080BD00BF9005002080B400AF034B4FF420
:100BB00080225A6100BFBD4680BC704700040140DE
:100BC00080B500AF00F088FB00BF80BD80B487B067
:100BD00000AFF860B9607A603B60BB685B889BB22D
:100BE000DBB27B61BB685B889BB21B0A9BB23B613B
:100BF0003B69222B67D03B69222B6CDC3B69032BC2
:100C000036D03B69032B66DC3B69012B03D03B6983
:100C1000022B0ED05FE0FB68D3F824227B681A60B9
:100C2000FB68D3F824321B781A463B681A6001230C
:100C300052E07B69002B19DCFB687A698A3253F831
:100C400022207B681A60FB687A698A3253F8223066
:100C50005B889AB2BB68DB889BB2934228BF13467D
:100C60009BB21A463B681A60012335E0022333E049
:100C70007B69002B13D11B4B03225A70194B0422A2
:100C80001A70184B40F209425A807B68154A1A6064
:100C9000144B1B781A463B681A6001231CE0FA6863
:100CA0007B698A339B0013445A687B681A60FA6830
:100CB0007B698A339B0013445B681B781A463B6848
:100CC0001A60012308E07B68074A1A603B6821220A
:100CD0001A60012300E0022318461C37BD4680BC81
:100CE000704700BF7C0800205804002090B587B0F2
:100CF00000AFF860B9607A603B60BB685B78092B35
:100D000000F2B98001A252F823F000BF350D0008AF
:100D10007B0E0008770E00087B0E0008770E000897
:100D20004B0D0008650D00087B0E0008750D0008CE
:100D3000890D0008544B00221A807B68524A1A60C1
:100D40003B6802221A60012399E0BB685B889BB272
:100D5000DBB203F07F03DBB21946F86800F0B9F9A3
:100D600001238CE03B687A68B968F868FFF72EFFCA
:100D7000034684E0FB6803F214427B681A603B6818
:100D800001221A6001237AE0BB685B889BB2DBB268
:100D90003B613B69002B6CD03B69012B69DCBB6874
:100DA0005B889BB2DAB2FB6883F81424FB680022EC
:100DB00083F8152401237B6156E0F9687A691346AC
:100DC000DB009B1A9B000B4403F515731B68002B7B
:100DD0001FD07B695BB263F07F035BB2D8B2F96866
:100DE0007A691346DB009B1A9B000B4403F51573CD
:100DF0001B68DCB2F9687A691346DB009B1A9B001A
:100E00000B4403F516731B7822460146F86800F080
:100E100084F9F9687A691346DB009B1A9B000B443E
:100E200003F54D731B68002B1BD07B69D8B2F968A2
:100E30007A691346DB009B1A9B000B4403F54D7344
:100E40001B68DCB2F9687A691346DB009B1A9B00C9
:100E50000B4403F54E731B7822460146F86800F0F8
:100E60005CF97B6901337B617B69072BA5DD01237D
:100E700005E0022303E0022301E000BF022318463D
:100E80001C37BD4690BD00BF7E08002080B584B0F1
:100E900000AFF860B9607A603B60BB685B780B2B91
:100EA0002DD801A252F823F0E90E0008FF0E000829
:100EB000FF0E0008FF0E0008FF0E0008FF0E0008DE
:100EC000D90E0008FF0E0008FF0E0008FF0E0008F4
:100ED000FF0E0008FF0E00083B687A68B968F868E2
:100EE000FFF774FE03460BE0074B00221A807B6875
:100EF000054A1A603B6802221A60012300E00223BF
:100F000018461037BD4680BD8008002080B485B0EB
:100F100000AFF860B9607A603B60BB685B780C2B0F
:100F200027D801A252F823F05D0F0008730F0008C4
:100F3000730F0008730F0008730F0008730F000889
:100F4000730F0008730F0008730F0008730F000879
:100F5000730F0008730F0008730F0008084B00227E
:100F60001A807B68064A1A603B6802221A600123D5
:100F700000E0022318461437BD4680BC704700BF0E
:100F80008208002080B584B000AFF860B9607A6054
:100F90003B60BB681B78C3F30403DBB2022B16D0A3
:100FA000022B1CDC002B02D0012B08D017E03B6881
:100FB0007A68B968F868FFF799FE034611E03B6864
:100FC0007A68B968F868FFF761FF034609E03B6893
:100FD0007A68B968F868FFF799FF034601E000BF37
:100FE000022318461037BD4680BD80B586B000AFDD
:100FF000786039600023FB7500233B610023FB60B0
:10100000FB7D002B09D107F10C0307F110023968B1
:101010007868FFF7B7FF0346FB75FB7D012B0CD10A
:101020003B681B78C3F3C013DBB2DB01D9B23A696A
:10103000FB68786800F011F80AE03B681B78C3F39E
:10104000C013DBB2DB01DBB21946786800F053F85D
:10105000FB7D18461837BD4680BD90B585B000AF02
:10106000F8607A603B600B46FB72FB7A03F07F020C
:10107000F9681346DB009B1A9B000B4403F51173C0
:101080007A681A60FB7A03F07F02F9681346DB0086
:101090009B1A9B000B4403F512733A681A60FB7AA3
:1010A00003F07F02F9681346DB009B1A9B000B4498
:1010B00003F5137300221A60FB681C68FB689869CB
:1010C000F97A3B687A68A047034618461437BD464C
:1010D00090BD80B582B000AF78600B46FB707B6836
:1010E0005B687A689269F978104698470346184613
:1010F0000837BD4680BD80B582B000AF78600B4632
:10110000FB707B689B687A689269F978104698470B
:10111000034618460837BD4680BD90B583B000AF82
:101120007860084611461A460346FB700B46BB70B2
:1011300013467B707B681C697B6898697B78BA78FA
:10114000F978A047034618460C37BD4690BD80B4D9
:1011500000AF00BFBD4680BC7047000080B485B0C2
:1011600000AF0023FB600023BB6000237B602F4B9C
:101170005B6803F00C03FB60FB68082B11D0FB6875
:10118000082B3AD8FB68002B03D0FB68042B04D053
:1011900033E0274B274A1A6033E0254B254A1A6073
:1011A0002FE0224B5B6803F47013BB601F4B5B683E
:1011B00003F480337B60BB689B0C0233BB607B68AD
:1011C000002B06D1BB681C4A02FB03F3184A1360CC
:1011D00017E0164B5B6803F40033002B06D0BB68A6
:1011E000154A02FB03F3124A13600AE0BB68114A76
:1011F00002FB03F30E4A136003E00D4B0D4A1A6025
:1012000000BF0A4B5B681B0903F00F030B4AD35C5A
:10121000FB60074B1A68FB6822FA03F3044A136069
:1012200000BF1437BD4680BC704700BF00100240AD
:101230007C04002000127A0000093D003C6B00088D
:1012400080B500AF084B1B68074A43F010031360DA
:10125000032000F00DF90F2000F00EF800F006F862
:101260000023184680BD00BF0020024080B400AFBC
:1012700000BFBD4680BC704780B582B000AF7860CB
:10128000124B1A68124B1B7819464FF47A73B3FB52
:10129000F1F3B2FBF3F3184600F011F90346002B0B
:1012A00001D001230EE07B680F2B0AD80022796859
:1012B0004FF0FF3000F0E7F8064A7B681360002328
:1012C00000E0012318460837BD4680BD7C0400209D
:1012D000840400208004002080B400AF054B1B78FC
:1012E0001A46054B1B681344034A136000BFBD46F2
:1012F00080BC7047840400208408002080B400AFC4
:10130000024B1B681846BD4680BC7047840800200D
:1013100080B485B000AF78607B6803F00703FB60A2
:101320000C4BDB68BB60BA684FF6FF031340BB6031
:10133000FB681A02BB68134343F0BF6343F40033F6
:10134000BB60044ABB68D36000BF1437BD4680BC95
:10135000704700BF00ED00E080B400AF044BDB68D5
:101360001B0A03F007031846BD4680BC704700BF48
:1013700000ED00E080B483B000AF03463960FB713C
:1013800097F90730002B0ADB3B68DAB20C4997F972
:1013900007301201D2B20B4483F800230AE03B6805
:1013A000DAB20849FB7903F00F03043B1201D2B211
:1013B0000B441A7600BF0C37BD4680BC704700BF97
:1013C00000E100E000ED00E080B489B000AFF8601B
:1013D000B9607A60FB6803F00703FB61FB69C3F146
:1013E0000703042B28BF0423BB61FB690433062BCE
:1013F00002D9FB69033B00E000237B614FF0FF3221
:10140000BB6902FA03F3DA43BB681A407B699A406E
:101410004FF0FF317B6901FA03F3D9437B680B403E
:10142000134318462437BD4680BC704780B582B050
:1014300000AF78607B68013BB3F1807F01D301236B
:101440000FE00A4A7B68013B53600F214FF0FF30E9
:10145000FFF790FF054B00229A60044B07221A60A9
:10146000002318460837BD4680BD00BF10E000E0ED
:1014700080B582B000AF78607868FFF749FF00BFA1
:101480000837BD4680BD80B586B000AF0346B96061
:101490007A60FB7300237B61FFF75EFF78617A68F7
:1014A000B9687869FFF790FF024697F90F30114647
:1014B0001846FFF75FFF00BF1837BD4680BD80B5F7
:1014C00082B000AF78607868FFF7B0FF0346184637
:1014D0000837BD4680BD000080B586B000AF78609B
:1014E0007B68002B01D1012372E27B681B6803F04B
:1014F0000103002B00F08780924B5B6803F00C0324
:10150000042B0CD08F4B5B6803F00C03082B12D11B
:101510008C4B5B6803F48033B3F5803F0BD1894B70
:101520001B6803F40033002B6CD07B685B68002BD6
:1015300068D101234CE27B685B68B3F5803F06D13C
:10154000804B1B687F4A43F4803313602EE07B6836
:101550005B68002B0CD17B4B1B687A4A23F48033E9
:101560001360784B1B68774A23F4802313601DE0D7
:101570007B685B68B3F5A02F0CD1724B1B68714A76
:1015800043F4802313606F4B1B686E4A43F480332F
:1015900013600BE06B4B1B686A4A23F480331360C3
:1015A000684B1B68674A23F4802313607B685B6881
:1015B000002B13D0FFF7A2FE386108E0FFF79EFE74
:1015C00002463B69D31A642B01D9032300E25D4B29
:1015D0001B6803F40033002BF0D014E0FFF78EFEFD
:1015E000386108E0FFF78AFE02463B69D31A642B94
:1015F00001D90323ECE1534B1B6803F40033002BA8
:10160000F0D100E000BF7B681B6803F00203002BF1
:1016100063D04C4B5B6803F00C03002B0BD0494BA1
:101620005B6803F00C03082B1CD1464B5B6803F48A
:101630008033002B16D1434B1B6803F00203002BB1
:1016400005D07B681B69012B01D00123C0E13D4B14
:101650001B6823F0F8027B685B69DB0039491343A0
:101660000B603AE07B681B69002B20D0364B0122CF
:101670001A60FFF743FE386108E0FFF73FFE0246BD
:101680003B69D31A022B01D90323A1E12D4B1B681F
:1016900003F00203002BF0D02A4B1B6823F0F80262
:1016A0007B685B69DB00274913430B6015E0264B21
:1016B00000221A60FFF722FE386108E0FFF71EFEE5
:1016C00002463B69D31A022B01D9032380E11D4B4B
:1016D0001B6803F00203002BF0D17B681B6803F04A
:1016E0000803002B3AD07B689B69002B19D0174B5D
:1016F00001221A60FFF702FE386108E0FFF7FEFDE5
:1017000002463B69D31A022B01D9032360E10D4B3A
:101710005B6A03F00203002BF0D0012000F09CFA7A
:101720001CE00A4B00221A60FFF7E8FD38610FE069
:10173000FFF7E4FD02463B69D31A022B08D90323C5
:1017400046E100BF001002400000424280044242D5
:10175000924B5B6A03F00203002BE9D17B681B68A4
:1017600003F00403002B00F0A6800023FB758B4BD5
:10177000DB6903F08053002B0DD1884BDB69874A6E
:1017800043F08053D361854BDB6903F08053BB602A
:10179000BB680123FB75824B1B6803F48073002B2D
:1017A00018D17F4B1B687E4A43F480731360FFF7A8
:1017B000A5FD386108E0FFF7A1FD02463B69D31A99
:1017C000642B01D9032303E1754B1B6803F4807379
:1017D000002BF0D07B68DB68012B06D16F4B1B6AB6
:1017E0006E4A43F0010313622DE07B68DB68002B37
:1017F0000CD16A4B1B6A694A23F001031362674BE1
:101800001B6A664A23F0040313621CE07B68DB68F2
:10181000052B0CD1614B1B6A604A43F00403136231
:101820005E4B1B6A5D4A43F0010313620BE05B4BA6
:101830001B6A5A4A23F001031362584B1B6A574A2A
:1018400023F0040313627B68DB68002B15D0FFF7DD
:1018500055FD38610AE0FFF751FD02463B69D31A96
:1018600041F28832934201D90323B1E04B4B1B6A0A
:1018700003F00203002BEED014E0FFF73FFD3861C8
:101880000AE0FFF73BFD02463B69D31A41F288327A
:10189000934201D903239BE0404B1B6A03F00203F0
:1018A000002BEED1FB7D012B05D13C4BDB693B4A84
:1018B00023F08053D3617B68DB69002B00F08780C5
:1018C000364B5B6803F00C03082B61D07B68DB6947
:1018D000022B46D1334B00221A60FFF70FFD38610F
:1018E00008E0FFF70BFD02463B69D31A022B01D932
:1018F00003236DE0294B1B6803F00073002BF0D12C
:101900007B681B6AB3F5803F08D1244B5B6823F4E6
:1019100000327B689B68214913434B601F4B5B6817
:1019200023F474127B68196A7B685B6A0B431B495A
:1019300013434B601B4B01221A60FFF7DFFC386139
:1019400008E0FFF7DBFC02463B69D31A022B01D902
:1019500003233DE0114B1B6803F00073002BF0D014
:1019600035E0104B00221A60FFF7C8FC386108E030
:10197000FFF7C4FC02463B69D31A022B01D90323AB
:1019800026E0064B1B6803F00073002BF0D11EE02D
:101990007B68DB69012B07D1012319E000100240AD
:1019A00000700040600042420B4B5B68FB60FB68CC
:1019B00003F480327B681B6A9A4206D1FB6803F409
:1019C00070127B685B6A9A4201D0012300E0002319
:1019D00018461837BD4680BD0010024080B584B05F
:1019E00000AF786039607B68002B01D10123D0E023
:1019F0006A4B1B6803F007033A689A4210D9674B99
:101A00001B6823F0070265493B6813430B60634B77
:101A10001B6803F007033A689A4201D00123B8E03B
:101A20007B681B6803F00203002B20D07B681B68D7
:101A300003F00403002B05D0594B5B68584A43F46C
:101A4000E06353607B681B6803F00803002B05D03C
:101A5000534B5B68524A43F460535360504B5B688E
:101A600023F0F0027B689B684D4913434B607B6811
:101A70001B6803F00103002B40D07B685B68012BDF
:101A800007D1474B1B6803F40033002B15D101230A
:101A90007FE07B685B68022B07D1414B1B6803F03A
:101AA0000073002B09D1012373E03D4B1B6803F049
:101AB0000203002B01D101236BE0394B5B6823F05B
:101AC00003027B685B68364913434B60FFF716FCE3
:101AD000F8600AE0FFF712FC0246FB68D31A41F2F5
:101AE0008832934201D9032353E02D4B5B6803F006
:101AF0000C027B685B689B009A42EBD1274B1B680A
:101B000003F007033A689A4210D2244B1B6823F073
:101B1000070222493B6813430B60204B1B6803F00C
:101B200007033A689A4201D0012332E07B681B68C0
:101B300003F00403002B08D0194B5B6823F4E06228
:101B40007B68DB68164913434B607B681B6803F0B6
:101B50000803002B09D0124B5B6823F460527B68AA
:101B60001B69DB000E4913434B6000F021F802466D
:101B70000B4B5B681B0903F00F030A49CB5C22FA8D
:101B800003F3094A1360094B1B681846FFF774FBFF
:101B9000002318461037BD4680BD00BF002002401C
:101BA000001002403C6B00087C04002080040020F0
:101BB00080B487B000AF0023FB600023BB6000232C
:101BC0007B6100237B6000233B611E4B5B68FB60F5
:101BD000FB6803F00C03042B02D0082B03D027E092
:101BE000194B3B6127E0FB689B0C03F00F03174A7E
:101BF000D35C7B60FB6803F48033002B10D0114B67
:101C00005B685B0C03F00103114AD35CBB607B682B
:101C10000D4A03FB02F2BB68B2FBF3F37B6104E005
:101C20007B680C4A02FB03F37B617B693B6102E04A
:101C3000054B3B6100BF3B6918461C37BD4680BC65
:101C4000704700BF0010024000127A004C6B000881
:101C50005C6B000800093D0080B485B000AF78607F
:101C60000A4B1B680A4AA2FB03235B0A7A6802FB41
:101C700003F3FB6000BFFB685A1EFA60002BF9D12A
:101C800000BF00BF1437BD4680BC70477C040020F5
:101C9000D34D621080B586B000AF786000233B6101
:101CA0000023FB607B681B6803F00103002B7DD0E1
:101CB0000023FB754F4BDB6903F08053002B0DD1E4
:101CC0004C4BDB694B4A43F08053D361494BDB6992
:101CD00003F08053BB60BB680123FB75464B1B6858
:101CE00003F48073002B18D1434B1B68424A43F422
:101CF00080731360FFF702FB386108E0FFF7FEFA1C
:101D000002463B69D31A642B01D903236DE03A4B99
:101D10001B6803F48073002BF0D0364B1B6A03F46E
:101D20004073FB60FB68002B2ED07B685B6803F47C
:101D30004073FA689A4227D02E4B1B6A23F44073F3
:101D4000FB602E4B01221A602C4B00221A60294A9C
:101D5000FB681362FB6803F00103002B14D0FFF74C
:101D6000CDFA38610AE0FFF7C9FA02463B69D31A97
:101D700041F28832934201D9032336E01D4B1B6A9E
:101D800003F00203002BEED01A4B1B6A23F44072BF
:101D90007B685B68174913430B62FB7D012B05D100
:101DA000144BDB69134A23F08053D3617B681B68B3
:101DB00003F00203002B08D00E4B5B6823F4404273
:101DC0007B689B680B4913434B607B681B6803F07F
:101DD0001003002B08D0074B5B6823F480027B685C
:101DE000DB68044913434B60002318461837BD468F
:101DF00080BD00BF0010024000700040400442421D
:101E000080B582B000AF78607B68002B01D10123E0
:101E10000EE07B685B79DBB2002B05D17B6800228A
:101E20001A71786800F008F87B6801225A71002363
:101E300018460837BD4680BD80B483B000AF7860D7
:101E400000BF0C37BD4680BC704780B487B000AF80
:101E5000F860B9607A6000233B61FB6802225A7126
:101E600000237B610AE07B699B00BA681A44FB6827
:101E70001B6812681A607B6901337B617A697B6831
:101E80009A42F0D3FB681B681B683B61FB68012228
:101E90005A713B6918461C37BD4680BC704780B5F7
:101EA00088B000AF78607B681B68184604F068F85B
:101EB000034603F40043B3F5004F02D1786800F005
:101EC0008CFB7B681B68184604F05AF8034603F441
:101ED0008063B3F5806F12D17B681B68B3F8443020
:101EE0009AB27B681B6822F4806292B2A3F8442005
:101EF0007868FEF723FD0021786800F023F97B68FD
:101F00001B68184604F03CF8034603F48043B3F51D
:101F1000804F0BD17B681B68B3F844309AB27B6862
:101F20001B6822F4804292B2A3F844207B681B68AD
:101F3000184604F025F8034603F40053B3F5005F98
:101F40000BD17B681B68B3F844309AB27B681B687E
:101F500022F4005292B2A3F844207B681B68184612
:101F600004F00EF8034603F48053B3F5805F26D1E6
:101F70007B681B68B3F840309AB27B681B6822F01C
:101F8000040292B2A3F840207B681B68B3F840308B
:101F90009AB27B681B6822F0080292B2A3F8402034
:101FA0007868FEF7FEFC7B681B68B3F844309AB291
:101FB0007B681B6822F4805292B2A3F844207B68AD
:101FC0001B68184603F0DCFF034603F40063B3F517
:101FD000006F40F082800023FB7710E07B681B6875
:101FE0001A46FB7F9B001A44FB7F128892B25B006B
:101FF00020333B4423F8142CFB7F0133FB77FB7F1A
:10200000072BEBD97B681B68B3F840309AB27B682A
:102010001B6842F0010292B2A3F840207B681B6863
:10202000B3F840309AB27B681B6822F0010292B28A
:10203000A3F8402000BF7B681B68B3F844309BB214
:1020400003F48063002BF6D07B681B68B3F8443040
:102050009AB27B681B6822F4806292B2A3F8442093
:102060000023FB770FE0FB7F7A6812681146FA7F46
:1020700092000A445B0020333B4433F8143C138045
:10208000FB7F0133FB77FB7F072BECD97B681B6859
:10209000B3F840309AB27B681B6842F0080292B2F3
:1020A000A3F840207B681B68B3F844309AB27B6881
:1020B0001B6822F4006292B2A3F844207B681B687C
:1020C000B3F840309AB27B681B6842F0040292B2C7
:1020D000A3F840207868FEF75BFC7B681B68184615
:1020E00003F04EFF034603F40073B3F5007F0ED1F7
:1020F0007B681B68B3F844309AB27B681B6822F493
:10210000007292B2A3F844207868FEF70DFC7B6859
:102110001B68184603F034FF034603F48073B3F5DD
:10212000807F0BD17B681B68B3F844309AB27B6820
:102130001B6822F4807292B2A3F8442000BF2037BB
:10214000BD4680BD80B582B000AF78600B46FB70A5
:102150007B6893F8A832012B01D1022313E07B683E
:10216000012283F8A8227B68FA7883F824207B6810
:102170001B68FA781146184603F0EFFE7B680022D0
:1021800083F8A822002318460837BD4680BD80B5D5
:1021900084B000AF7860084611461A460346FB70CB
:1021A0000B463B801346BB700023FB7297F903304C
:1021B000002B0EDAFB7803F007035A1C13469B0032
:1021C0001344DB007A681344FB60FB6801225A70F9
:1021D0000EE0FB7803F0070213469B001344DB007C
:1021E00003F5B4737A681344FB60FB6800225A70ED
:1021F000FB7803F00703DAB2FB681A703A88FB68D1
:102200001A61FB68BA78DA70FB685B78002B04D03F
:10221000FB681B781A46FB68DA81BB78022B02D177
:10222000FB6800221A717B6893F8A832012B01D158
:1022300002230EE07B68012283F8A8227B681B68DA
:10224000F968184601F0FEF97B68002283F8A8229D
:10225000FB7A18461037BD4680BD80B584B000AF0C
:1022600078600B46FB7097F90330002B0EDAFB7891
:1022700003F007035A1C13469B001344DB007A68E3
:102280001344FB60FB6801225A700EE0FB7803F0F8
:10229000070213469B001344DB0003F5B4737A680E
:1022A0001344FB60FB6800225A70FB7803F00703BD
:1022B000DAB2FB681A707B6893F8A832012B01D15F
:1022C00002230EE07B68012283F8A8227B681B684A
:1022D000F968184601F020FD7B68002283F8A822E7
:1022E000002318461037BD4680BD80B586B000AFCC
:1022F000F8607A603B600B46FB72FB7A03F00702E2
:1023000013469B001344DB0003F5B473FA681344CF
:102310007B617B697A685A617B693A689A617B69FB
:102320000022DA617B6900225A70FB7A03F007030E
:10233000DAB27B691A70FB7A03F00703002B06D12F
:10234000FB681B687969184601F0D2FE05E0FB685E
:102350001B687969184601F0CBFE00231846183730
:10236000BD4680BD80B483B000AF78600B46FB7083
:10237000FB7803F00702796813469B001344DB00E7
:102380000B4403F5C2731B6818460C37BD4680BC6E
:10239000704780B586B000AFF8607A603B600B464E
:1023A000FB72FB7A03F007035A1C13469B0013448D
:1023B000DB00FA6813447B617B697A685A617B6948
:1023C0003A689A617B69012283F824207B693A6824
:1023D0001A627B690022DA617B6901225A70FB7AFA
:1023E00003F00703DAB27B691A70FB7A03F0070384
:1023F000002B06D1FB681B687969184601F078FE4E
:1024000005E0FB681B687969184601F071FE00233E
:1024100018461837BD4680BD80B584B000AF7860DF
:102420000B46FB70FB7803F007027B685B689A42FF
:1024300001D901234CE097F90330002B0EDAFB7829
:1024400003F007035A1C13469B001344DB007A6811
:102450001344FB60FB6801225A700CE0FA781346C3
:102460009B001344DB0003F5B4737A681344FB60EC
:10247000FB6800225A70FB6801229A70FB7803F017
:102480000703DAB2FB681A707B6893F8A832012B55
:1024900001D102231CE07B68012283F8A8227B681B
:1024A0001B68F968184603F05BFCFB7803F0070330
:1024B000002B08D17B681A687B6803F52C731946DA
:1024C000104603F06CFD7B68002283F8A8220023ED
:1024D00018461037BD4680BD80B584B000AF786027
:1024E0000B46FB70FB7803F00F027B685B689A4237
:1024F00001D9012340E097F90330002B0EDAFB7875
:1025000003F007035A1C13469B001344DB007A6850
:102510001344FB60FB6801225A700EE0FB7803F065
:10252000070213469B001344DB0003F5B4737A687B
:102530001344FB60FB6800225A70FB6800229A700B
:10254000FB7803F00703DAB2FB681A707B6893F834
:10255000A832012B01D102230EE07B68012283F80F
:10256000A8227B681B68F968184603F049FC7B6861
:10257000002283F8A822002318461037BD4680BDEC
:1025800080B582B000AF78600B46FB707B6893F833
:10259000A832012B01D102231BE07B68012283F8C2
:1025A000A82297F90330002B09DA7B681A68FB78B8
:1025B00003F007031946104601F02FF804E07B688A
:1025C0001B68184601F034F87B68002283F8A822C3
:1025D000002318460837BD4680BD80B58EB000AFD9
:1025E0007860EBE27B681B68B3F84430FB85FB8DB9
:1025F000DBB203F00F0387F82D3097F82D30002B56
:1026000040F06081FB8D03F01003002B51D17B68FB
:102610001B681B889BB223F4E14323F07003FB810A
:102620007B681A68FB896FEA43436FEA53439BB2A6
:1026300013807B6828337B627B681B68B3F850305B
:102640009BB21A467B6A1B78DB00134402335B00A3
:102650007A681268134403F580631B88C3F3090288
:102660007B6ADA617B6A5A697B6ADB691A447B6A36
:102670005A6100217868FEF713F87B6893F82430DC
:10268000DBB2002B00F09A827B6A9B69002B40F042
:1026900095827B6893F82430DBB263F07F03DAB273
:1026A0007B681B68A3F84C207B68002283F82420F9
:1026B00084E27B6803F5B4737B627B681B681B88CC
:1026C0007B857B8D03F40063002B34D07B681B6813
:1026D000B3F850309BB21A467B6A1B78DB00134478
:1026E00006335B007A681268134403F580631B8825
:1026F000C3F309027B6ADA617B6818687B6803F5BB
:102700002C717B6ADA887B6ADB699BB203F096FCEA
:102710007B681B681B889AB240F68F7313403B821C
:102720007B681B683A8A42F0800292B21A8078680D
:10273000FDF73EFF42E2B7F92A30002B80F23E82DD
:102740007B681B681B889AB240F68F731340BB836B
:102750007B681B68BA8B42F0800292B21A807B6859
:102760001B68B3F850309BB21A467B6A1B78DB00BB
:10277000134406335B007A681268134403F58063E0
:102780001B88C3F309027B6ADA617B6ADB69002B71
:1027900019D07B6A5B69002B15D07B6818687B6A4F
:1027A00059697B6ADA887B6ADB699BB203F046FC75
:1027B0007B6A5A697B6ADB691A447B6A5A61002129
:1027C0007868FDF707FF7B681B681B889BB203F4E2
:1027D0000063002B40F0F2817B681B68BB617B6863
:1027E0001B68B3F850309BB21A46BB691344BB61F7
:1027F000BB6903F20C437B617B6A1B69002B12D11E
:102800007B691B889BB223F4F8439AB27B691A80D8
:102810007B691B889BB26FEA43436FEA53439AB2CA
:102820007B691A802FE07B6A1B693E2B13D87B6A79
:102830001B695B083B637B6A1B6903F00103002B88
:1028400002D03B6B01333B633B6B9BB29B029AB262
:102850007B691A8017E07B6A1B695B093B637B6AB3
:102860001B6903F01F03002B02D13B6B013B3B6351
:102870003B6B9BB29B029BB26FEA43436FEA5343AD
:102880009AB27B691A807B681B681B889BB223F411
:10289000804323F070037B827B8A83F480537B82A6
:1028A0007B8A83F400537B827B681A687B8A43F0BF
:1028B0007F4343F47F0343F4004343F080039BB220
:1028C00013807BE17B681B681A4697F82D309B00CC
:1028D00013441B887B85B7F92A30002B80F2EA80ED
:1028E0007B681B681A4697F82D309B0013441B88A1
:1028F0009AB240F68F7313403B857B681B681A467B
:1029000097F82D309B0013443A8D42F0800292B22A
:102910001A8097F82D2013469B001344DB0003F523
:10292000B4737A6813447B627B6A1B7B002B22D1D1
:102930007B681B68B3F850309BB21A467B6A1B78E1
:10294000DB00134406335B007A681268134403F516
:1029500080631B88C3F30903FB86FB8E002B00F00A
:1029600087807B6818687B6A59697B6ADA88FB8E86
:1029700003F064FB7CE07B6ADB78022B08D17B8D63
:102980001A46796A786800F027F90346FB866FE0FB
:102990007B681B681A467B6A1B789B0013441B8864
:1029A0009BB223F4E04323F070037B847B681B68B5
:1029B0001A467B6A1B789B001A447B8C43F07F434A
:1029C00043F47F0343F4004343F0C0039BB21380FE
:1029D0007B681B681A467B6A1B789B0013441B8824
:1029E0009BB203F48043002B21D07B681B68B3F8B3
:1029F00050309BB21A467B6A1B78DB0013440233CB
:102A00005B007A681268134403F580631B88C3F384
:102A10000903FB86FB8E002B2AD07B6818687B6A33
:102A200059697B6A1A89FB8E03F008FB20E07B68FA
:102A30001B68B3F850309BB21A467B6A1B78DB00E8
:102A4000134406335B007A681268134403F580630D
:102A50001B88C3F30903FB86FB8E002B08D07B6821
:102A600018687B6A59697B6A5A89FB8E03F0E6FA1B
:102A70007B6ADA69FB8E1A447B6ADA617B6A5A697F
:102A8000FB8E1A447B6A5A617B6A9B69002B04D0D7
:102A9000FA8E7B6A1B699A4206D27B6A1B781946BA
:102AA0007868FDF797FD05E07B681B68796A184632
:102AB00001F01EFB7B8D03F08003002B7ED097F886
:102AC0002D305A1C13469B001344DB007A681344D4
:102AD0007B627B681B681A4697F82D309B00134475
:102AE0001B889BB223F4E14323F070033B847B6893
:102AF0001B681A4697F82D309B001A443B8C6FEAEE
:102B000043436FEA53439BB213807B6ADB78032B0A
:102B10000CD07B6ADB78002B08D07B6ADB78022B39
:102B200046D17B8D03F48073002B41D17B681B68F9
:102B3000B3F850309BB21A467B6A1B78DB00134413
:102B400002335B007A681268134403F580631B88C4
:102B5000C3F30903FB837B6A9A69FB8B9A4206D90C
:102B60007B6A9A69FB8BD21A7B6A9A6102E07B6A64
:102B700000229A617B6A9B69002B06D17B6A1B78D5
:102B800019467868FDF78CFD18E07B6A5A69FB8B63
:102B90001A447B6A5A617B6ADA69FB8B1A447B6A46
:102BA000DA617B681B68796A184601F0A1FA05E0D2
:102BB0007B8D1A46796A786800F01BF97B681B6880
:102BC000B3F844309BB21BB2002BFFF60BAD0023D1
:102BD00018463837BD4680BD80B588B000AFF86074
:102BE000B9601346FB80FB8803F48043002B7ED042
:102BF000FB681B68B3F850309BB21A46BB681B7861
:102C0000DB00134402335B00FA681268134403F5D7
:102C100080631B88C3F309037B83BB689A697B8B42
:102C20009A4206D3BB689A697B8BD21ABB689A61B9
:102C300002E0BB6800229A61BB689B69002B23D12C
:102C4000FB681B681A46BB681B789B0013441B88F3
:102C50009BB223F4804323F070033B833B8B83F4CC
:102C600000533B83FB681B681A46BB681B789B00BC
:102C70001A443B8B43F07F4343F47F0343F4004308
:102C800043F080039BB21380FB8803F04003002BCA
:102C90001FD0FB681B681A46BB681B789B00134457
:102CA0001B889BB223F4E04323F07003FB82FB6894
:102CB0001B681A46BB681B789B001A44FB8A43F0CA
:102CC0007F4343F47F0343F4004343F0C0039BB2CC
:102CD00013807B8B002B00F08780FB681868BB6833
:102CE0005969BB681A897B8B03F0A8F97CE0FB6803
:102CF0001B68B3F850309BB21A46BB681B78DB00E8
:102D0000134406335B00FA681268134403F58063CA
:102D10001B88C3F309037B83BB689A697B8B9A4248
:102D200006D3BB689A697B8BD21ABB689A6102E0B2
:102D3000BB6800229A61BB689B69002B23D1FB68AA
:102D40001B681A46BB681B789B0013441B889BB208
:102D500023F4804323F07003FB83FB8B83F4005345
:102D6000FB83FB681B681A46BB681B789B001A44F0
:102D7000FB8B43F07F4343F47F0343F4004343F072
:102D800080039BB21380FB8803F04003002B1FD10C
:102D9000FB681B681A46BB681B789B0013441B88A2
:102DA0009BB223F4E04323F07003BB83FB681B68F2
:102DB0001A46BB681B789B001A44BB8B43F07F43C9
:102DC00043F47F0343F4004343F0C0039BB21380FA
:102DD0007B8B002B08D0FB681868BB685969BB68FF
:102DE0005A897B8B03F02AF97B8B18462037BD4626
:102DF00080BD80B5A2B000AFF860B9601346FB801B
:102E0000FB8803F04003002B00F0C781FB681B68C0
:102E1000B3F850309BB21A46BB681B78DB001344F2
:102E200002335B00FA681268134403F580631B8861
:102E3000C3F30903A7F84E30BB689A69B7F84E3060
:102E40009A4207D9BB689A69B7F84E30D21ABB6864
:102E50009A6102E0BB6800229A61BB689B69002B03
:102E600040F0B980BB685B78002B26D1FB681B68FB
:102E7000BB62FB681B68B3F850309BB21A46BB6A52
:102E80001344BB62BB681B781A01BB6A134403F28C
:102E900004437B627B6A1B889BB223F4F8439AB29B
:102EA0007B6A1A807B6A1B889BB26FEA43436FEA96
:102EB00053439AB27B6A1A801AE0BB685B78012B95
:102EC00016D1FB681B683B63FB681B68B3F8503086
:102ED0009BB21A463B6B13443B63BB681B781A01D9
:102EE0003B6B134403F20443FB62FB6A00221A802B
:102EF000FB681B683B62BB685B78002B26D1FB68D4
:102F00001B68BB61FB681B68B3F850309BB21A4664
:102F1000BB691344BB61BB681B781A01BB691344CE
:102F200003F20C437B617B691B889BB223F4F8435B
:102F30009AB27B691A807B691B889BB26FEA434314
:102F40006FEA53439AB27B691A8017E0BB685B78DB
:102F5000012B13D1FB681B68B3F850309BB21A46A3
:102F60003B6A13443B62BB681B781A013B6A1344FB
:102F700003F20C43FB61FB6900221A80BB681B78DB
:102F80001946F868FDF78CFBFB8803F48043002B9F
:102F900000F0D482FB681B681A46BB681B789B0054
:102FA00013441B889BB223F4E04323F070037B821D
:102FB000FB681B681A46BB681B789B001A447B8A17
:102FC00043F07F4343F47F0343F4404343F08003E3
:102FD0009BB21380B2E2FB8803F48043002B21D024
:102FE000FB681B681A46BB681B789B0013441B8850
:102FF0009BB223F4E04323F07003A7F84430FB684E
:103000001B681A46BB681B789B001A44B7F844300B
:1030100043F07F4343F47F0343F4404343F0800392
:103020009BB21380BB6893F82430012B40F086825A
:10303000BB685A69B7F84E301A44BB685A61BB681E
:10304000DA69B7F84E301A44BB68DA61BB681A6AAD
:10305000BB681B699A4209D3BB681B693B65BB68A7
:103060001A6A3B6DD21ABB681A6215E0BB681B6A0C
:10307000002B07D1B7F84E303B65BB68002283F8C0
:10308000242009E0BB68002283F82420BB681B6A67
:103090003B65BB6800221A62BB685B78002B55D188
:1030A000FB681B68BB63FB681B68B3F850309BB2BE
:1030B0001A46BB6B1344BB63BB681B781A01BB6B1E
:1030C000134403F204437B633B6D002B12D17B6BF3
:1030D0001B889BB223F4F8439AB27B6B1A807B6BFC
:1030E0001B889BB26FEA43436FEA53439AB27B6BF0
:1030F0001A8047E03B6D3E2B11D83B6D5B08BB64EB
:103100003B6D03F00103002B02D0BB6C0133BB64A9
:10311000BB6C9BB29B029AB27B6B1A8032E03B6D18
:103120005B09BB643B6D03F01F03002B02D1BB6C3A
:10313000013BBB64BB6C9BB29B029BB26FEA4343F7
:103140006FEA53439AB27B6B1A801BE0BB685B78D3
:10315000012B17D1FB681B683B64FB681B68B3F845
:1031600050309BB21A463B6C13443B64BB681B78DF
:103170001A013B6C134403F20443FB633B6D9AB2A8
:10318000FB6B1A80FB681868BB685969BB681A89B1
:103190003B6D9BB202F00EFFD0E1FB681B68B3F8F9
:1031A00050309BB21A46BB681B78DB0013440633D1
:1031B0005B00FA681268134403F580631B88C3F34D
:1031C0000903A7F84E30BB689A69B7F84E309A42A7
:1031D00007D3BB689A69B7F84E30D21ABB689A61B8
:1031E00002E0BB6800229A61BB689B69002B40F03B
:1031F000C480BB685B78002B26D1FB681B68FB662C
:10320000FB681B68B3F850309BB21A46FB6E134440
:10321000FB66BB681B781A01FB6E134403F2044380
:10322000BB66BB6E1B889BB223F4F8439AB2BB6E9D
:103230001A80BB6E1B889BB26FEA43436FEA53430D
:103240009AB2BB6E1A801AE0BB685B78012B16D16C
:10325000FB681B687B67FB681B68B3F850309BB248
:103260001A467B6F13447B67BB681B781A017B6F20
:10327000134403F204433B673B6F00221A80FB6850
:103280001B68BB67BB685B78002B2FD1FB681B6892
:10329000C7F88030FB681B68B3F850309BB21A4601
:1032A000D7F880301344C7F88030BB681B781A0108
:1032B000D7F88030134403F20C43C7F88430D7F8B2
:1032C00084301B889BB223F4F8439AB2D7F8843039
:1032D0001A80D7F884301B889BB26FEA43436FEAA9
:1032E00053439AB2D7F884301A8017E0BB685B78F2
:1032F000012B13D1FB681B68B3F850309BB21A4600
:10330000BB6F1344BB67BB681B781A01BB6F1344C8
:1033100003F20C43FB67FB6F00221A80BB681B782B
:103320001946F868FDF7BCF9FB8803F48043002BCD
:1033300040F00481FB681B681A46BB681B789B0041
:1033400013441B889BB223F4E04323F07003A7F8D7
:103350004630FB681B681A46BB681B789B001A4402
:10336000B7F8463043F07F4343F47F0343F44043D0
:1033700043F080039BB21380E0E0FB8803F48043BA
:10338000002B21D1FB681B681A46BB681B789B0089
:1033900013441B889BB223F4E04323F07003A7F887
:1033A0004C30FB681B681A46BB681B789B001A44AC
:1033B000B7F84C3043F07F4343F47F0343F440437A
:1033C00043F080039BB21380BB6893F82430012B39
:1033D00040F0B480BB685A69B7F84E301A44BB68F5
:1033E0005A61BB68DA69B7F84E301A44BB68DA61D3
:1033F000BB681A6ABB681B699A4209D3BB681B6920
:103400003B65BB681A6A3B6DD21ABB681A6215E04D
:10341000BB681B6A002B07D1B7F84E303B65BB6811
:10342000002283F8242009E0BB681B6A3B65BB6867
:1034300000221A62BB68002283F82420FB681B6804
:103440007B66BB685B78002B55D1FB681B68FB650E
:10345000FB681B68B3F850309BB21A46FB6D1344EF
:10346000FB65BB681B781A01FB6D134403F20C4328
:10347000BB653B6D002B12D1BB6D1B889BB223F447
:10348000F8439AB2BB6D1A80BB6D1B889BB26FEA82
:1034900043436FEA53439AB2BB6D1A8044E03B6DDD
:1034A0003E2B11D83B6D5B087B653B6D03F0010340
:1034B000002B02D07B6D01337B657B6D9BB29B0241
:1034C0009AB2BB6D1A802FE03B6D5B097B653B6D4B
:1034D00003F01F03002B02D17B6D013B7B657B6DED
:1034E0009BB29B029BB26FEA43436FEA53439AB28B
:1034F000BB6D1A8018E0BB685B78012B14D1FB68A8
:103500001B68B3F850309BB21A467B6E13447B663F
:10351000BB681B781A017B6E134403F20C433B66B5
:103520003B6D9AB23B6E1A80FB681868BB6859699C
:10353000BB685A893B6D9BB202F03CFDFB681B687F
:103540001A46BB681B789B0013441B889BB223F46C
:10355000E04323F040033B823B8A83F010033B822D
:103560003B8A83F020033B82FB681B681A46BB68DA
:103570001B789B001A443B8A43F07F4343F47F034C
:1035800043F4004343F080039BB2138000231846AA
:103590008837BD4680BD80B487B000AFF8607B60DF
:1035A0000B467B8113463B817B8903F080039BB2F2
:1035B000002B0BD07B8903F007035A1C13469B009A
:1035C0001344DB00FA6813447B6109E07A891346EF
:1035D0009B001344DB0003F5B473FA6813447B616A
:1035E0003B89002B07D17B6900221A737B689AB252
:1035F0007B69DA800BE07B6901221A737B689AB2DF
:103600007B691A817B681B0C9AB27B695A81002303
:1036100018461C37BD4680BC704780B483B000AFED
:1036200078603960002318460C37BD4680BC70476F
:1036300080B483B000AF7860002318460C37BD46D5
:1036400080BC704780B49BB000AF786039600023C5
:1036500087F867307A683B681B789B0013441B88A7
:103660009BB223F4EC4323F07003A7F864303B686B
:10367000DB78032B1FD801A252F823F08D36000807
:10368000A9360008BF3600089B360008B7F864303A
:1036900043F40073A7F8643012E0B7F8643043F4E1
:1036A000C063A7F864300BE0B7F8643043F480637C
:1036B000A7F8643004E0012387F8673000E000BF1A
:1036C0007A683B681B789B001A44B7F8643043F073
:1036D0007F4343F47F0343F4004343F080039BB2F2
:1036E00013807A683B681B789B0013441B889BB24D
:1036F00023F4E04323F070039BB23A68127813433B
:10370000A7F85E307A683B681B789B001A44B7F8CC
:103710005E3043F07F4343F47F0343F4004343F0C0
:1037200080039BB213803B681B7B002B40F04981D8
:103730003B685B78002B00F084807B687B617B6852
:10374000B3F850309BB21A467B6913447B613B68E7
:103750001B781A017B69134403F580633B613B6866
:10376000DB885B089BB25B009AB23B691A807A687F
:103770003B681B789B0013441B88FB81FB8903F08B
:103780004003002B1BD07A683B681B789B001344D6
:103790001B889BB223F4E04323F07003BB817A685B
:1037A0003B681B789B001A44BB8943F07F4343F47A
:1037B0007F0343F4004343F0C0039BB213803B6894
:1037C000DB78012B20D07A683B681B789B00134480
:1037D0001B889BB223F4E04323F040033B813B89E9
:1037E00083F020033B817A683B681B789B001A4476
:1037F0003B8943F07F4343F47F0343F4004343F0AA
:1038000080039BB213807FE27A683B681B789B0041
:1038100013441B889BB223F4E04323F040037B81D5
:103820007A683B681B789B001A447B8943F07F438E
:1038300043F47F0343F4004343F080039BB21380BF
:1038400062E27B68FB627B68B3F850309BB21A4639
:10385000FB6A1344FB623B681B781A01FB6A134442
:1038600003F58163BB623B68DB885B089BB25B004E
:103870009AB2BB6A1A807B687B627B68B3F850306F
:103880009BB21A467B6A13447B623B681B781A0121
:103890007B6A134403F20C433B623B681B69002BB9
:1038A00012D13B6A1B889BB223F4F8439AB23B6A5D
:1038B0001A803B6A1B889BB26FEA43436FEA53430B
:1038C0009AB23B6A1A802FE03B681B693E2B13D8E3
:1038D0003B681B695B083B663B681B6903F001039F
:1038E000002B02D03B6E01333B663B6E9BB29B02CA
:1038F0009AB23B6A1A8017E03B681B695B093B661A
:103900003B681B6903F01F03002B02D13B6E013B98
:103910003B663B6E9BB29B029BB26FEA43436FEAEE
:1039200053439AB23B6A1A807A683B681B789B00C3
:1039300013441B88FB83FB8B03F48043002B1BD0B9
:103940007A683B681B789B0013441B889BB223F466
:10395000E04323F07003BB837A683B681B789B00CD
:103960001A44BB8B43F07F4343F47F0343F440434B
:1039700043F080039BB213807A683B681B789B00FE
:1039800013441B889BB223F4804323F070037B8392
:103990007B8B83F480537B837B8B83F400537B830B
:1039A0007A683B681B789B001A447B8B43F07F430B
:1039B00043F47F0343F4004343F080039BB213803E
:1039C000A2E17A683B681B789B0013441B889BB27A
:1039D00023F4E04323F07003A7F85C307A683B6877
:1039E0001B789B001A44B7F85C3043F07F4343F4E4
:1039F0007F0343F4014343F080039BB213807B6851
:103A0000BB657B68B3F850309BB21A46BB6D13445C
:103A1000BB653B681B781A01BB6D134403F58063DB
:103A20007B653B681B895B089BB25B009AB27B6D30
:103A30001A807B683B657B68B3F850309BB21A46AE
:103A40003B6D13443B653B681B781A013B6D134487
:103A500003F58163FB643B685B895B089BB25B0099
:103A60009AB2FB6C1A803B685B78002B40F0918027
:103A70007A683B681B789B0013441B88BB87BB8F0D
:103A800003F48043002B1BD07A683B681B789B00B3
:103A900013441B889BB223F4E04323F070037B871D
:103AA0007A683B681B789B001A447B8F43F07F4306
:103AB00043F47F0343F4404343F080039BB21380FD
:103AC0007A683B681B789B0013441B883B873B8FBD
:103AD00003F04003002B1BD07A683B681B789B00E7
:103AE00013441B889BB223F4E04323F07003FB864E
:103AF0007A683B681B789B001A44FB8E43F07F4337
:103B000043F47F0343F4004343F0C0039BB21380AC
:103B10007A683B681B789B0013441B889BB223F494
:103B2000804323F07003BB86BB8E83F48053BB8637
:103B3000BB8E83F40053BB867A683B681B789B007E
:103B40001A44BB8E43F07F4343F47F0343F40043A6
:103B500043F080039BB213807A683B681B789B001C
:103B600013441B889BB223F4E04323F040037B867D
:103B70007A683B681B789B001A447B8E43F07F4336
:103B800043F47F0343F4004343F080039BB213806C
:103B9000BAE07A683B681B789B0013441B88A7F83F
:103BA0004A30B7F84A3003F48043002B1DD07A68BE
:103BB0003B681B789B0013441B889BB223F4E043B3
:103BC00023F07003A7F848307A683B681B789B00A5
:103BD0001A44B7F8483043F07F4343F47F0343F47B
:103BE000404343F080039BB213807A683B681B78A4
:103BF0009B0013441B88A7F84630B7F8463003F003
:103C00004003002B1DD07A683B681B789B0013444F
:103C10001B889BB223F4E04323F07003A7F84430E1
:103C20007A683B681B789B001A44B7F8443043F02D
:103C30007F4343F47F0343F4004343F0C0039BB24C
:103C400013803B68DB78012B24D07A683B681B78B3
:103C50009B0013441B889BB223F4E04323F04003F2
:103C6000A7F84030B7F8403083F02003A7F8403081
:103C70007A683B681B789B001A44B7F8403043F0E1
:103C80007F4343F47F0343F4004343F080039BB23C
:103C900013801DE07A683B681B789B0013441B88E7
:103CA0009BB223F4E04323F04003A7F842307A6844
:103CB0003B681B789B001A44B7F8423043F07F43BF
:103CC00043F47F0343F4004343F080039BB213802B
:103CD0007A683B681B789B0013441B889BB223F4D3
:103CE000804323F07003FB877A683B681B789B0056
:103CF0001A44FB8F43F07F4343F47F0343F40043B4
:103D000043F080039BB2138097F8673018466C37F6
:103D1000BD4680BC704700BF80B48DB000AF7860F6
:103D200039603B681B7B002B40F08E803B685B78E2
:103D3000002B44D07A683B681B789B0013441B8897
:103D4000BB81BB8903F04003002B1BD07A683B6822
:103D50001B789B0013441B889BB223F4E04323F0A1
:103D600070037B817A683B681B789B001A447B89CF
:103D700043F07F4343F47F0343F4004343F0C00325
:103D80009BB213807A683B681B789B0013441B88A6
:103D90009BB223F4E04323F040033B817A683B6805
:103DA0001B789B001A443B8943F07F4343F47F0315
:103DB00043F4004343F080039BB2138092E17A689E
:103DC0003B681B789B0013441B887B827B8A03F42F
:103DD0008043002B1BD07A683B681B789B00134400
:103DE0001B889BB223F4E04323F070033B827A6884
:103DF0003B681B789B001A443B8A43F07F4343F4A3
:103E00007F0343F4404343F080039BB213807A68FE
:103E10003B681B789B0013441B889BB223F48043B0
:103E200023F07003FB817A683B681B789B001A447F
:103E3000FB8943F07F4343F47F0343F4004343F0A3
:103E400080039BB213804DE13B685B78002B40F010
:103E5000A5807A683B681B789B0013441B883B84D1
:103E60003B8C03F48043002B1BD07A683B681B78A3
:103E70009B0013441B889BB223F4E04323F07003A0
:103E8000FB837A683B681B789B001A44FB8B43F0EA
:103E90007F4343F47F0343F4404343F080039BB2EA
:103EA00013807A683B681B789B0013441B88BB8394
:103EB000BB8B03F04003002B1BD07A683B681B7858
:103EC0009B0013441B889BB223F4E04323F0700350
:103ED0007B837A683B681B789B001A447B8B43F09A
:103EE0007F4343F47F0343F4004343F0C0039BB29A
:103EF00013807A683B681B789B0013441B889BB235
:103F000023F4E04323F070033B837A683B681B781B
:103F10009B001A443B8B43F07F4343F47F0343F4FD
:103F2000004343F0C0039BB213807A683B681B7860
:103F30009B0013441B889BB223F4804323F070033F
:103F4000FB827A683B681B789B001A44FB8A43F02B
:103F50007F4343F47F0343F4004343F080039BB269
:103F600013807A683B681B789B0013441B889BB2C4
:103F700023F4E04323F04003BB827A683B681B785C
:103F80009B001A44BB8A43F07F4343F47F0343F40E
:103F9000004343F080039BB21380A3E07A683B6840
:103FA0001B789B0013441B88FB85FB8D03F4804327
:103FB000002B1BD07A683B681B789B0013441B883E
:103FC0009BB223F4E04323F07003BB857A683B681F
:103FD0001B789B001A44BB8D43F07F4343F47F035F
:103FE00043F4404343F080039BB213807A683B68FC
:103FF0001B789B0013441B887B857B8D03F040035B
:10400000002B1BD07A683B681B789B0013441B88ED
:104010009BB223F4E04323F070033B857A683B684E
:104020001B789B001A443B8D43F07F4343F47F038E
:1040300043F4004343F0C0039BB213807A683B68AB
:104040001B789B0013441B889BB223F4E04323F0AE
:104050007003FB847A683B681B789B001A44FB8CD6
:1040600043F07F4343F47F0343F4404343F0800332
:104070009BB213807A683B681B789B0013441B88B3
:104080009BB223F4E04323F04003BB847A683B688F
:104090001B789B001A44BB8C43F07F4343F47F039F
:1040A00043F4004343F080039BB213807A683B687B
:1040B0001B789B0013441B889BB223F4804323F09E
:1040C00070037B847A683B681B789B001A447B8C66
:1040D00043F07F4343F47F0343F4004343F0800302
:1040E0009BB21380002318463437BD4680BC70470E
:1040F00080B5CCB000AF07F59873A3F59673186040
:1041000007F59873A3F59873196007F59873A3F5ED
:1041100098731B685B78012B41F07D8107F59873DC
:10412000A3F598731B689A6907F59873A3F59873BC
:104130001B681B699A4208D907F59873A3F5987311
:104140001B681B69C7F82C3107E007F59873A3F5C6
:1041500098731B689B69C7F82C3107F59873A3F512
:1041600098731B681B7B002B52D107F59873A3F53E
:1041700098731B68596907F59873A3F598731B68C2
:10418000DA88D7F82C319BB207F59870A0F59670B5
:10419000006801F00FFF07F59873A3F5907307F51A
:1041A0009872A2F5967212681A6007F59873A3F5D3
:1041B00096731B68B3F850309BB2194607F5987395
:1041C000A3F5907307F59872A2F5907212680A44ED
:1041D0001A6007F59873A3F598731B681B781A018A
:1041E00007F59873A3F590731B68134403F2044218
:1041F00007F59873A3F592731A60D7F82C319AB229
:1042000007F59873A3F592731B681A8001F0B5B88F
:1042100007F59873A3F598731B68DB78022B40F0C1
:10422000C68407F59873A3F598731B681A6A07F597
:104230009873A3F598731B681B699A4240F24384F4
:1042400007F59873A3F596731A6807F59873A3F5A5
:1042500098731B681B789B0013441B889BB223F444
:10426000E04323F07003A7F8563007F59873A3F5E1
:1042700096731A6807F59873A3F598731B681B78F3
:104280009B001A44B7F8563043F07F4343F47F0352
:1042900043F4014343F080039BB2138007F5987306
:1042A000A3F598731B681A6AD7F82C31D21A07F550
:1042B0009873A3F598731B681A6207F59873A3F5B2
:1042C00096731A6807F59873A3F598731B681B78A3
:1042D0009B0013441B889BB203F04003002B00F0AB
:1042E0003E8207F59873A3F5807307F59872A2F5DF
:1042F000967212681A6007F59873A3F598731B6895
:104300005B78002B40F09A8007F59873A3F58473CF
:1043100007F59872A2F5967212681A6007F59873FD
:10432000A3F596731B68B3F850309BB2194607F596
:104330009873A3F5847307F59872A2F584721268D6
:104340000A441A6007F59873A3F598731B681B78E5
:104350001A0107F59873A3F584731B68134403F2DD
:104360000C4207F59873A3F586731A60D7F82C31C1
:10437000002B22D107F59873A3F586731B681B8861
:104380009BB223F4F8439AB207F59873A3F58673AA
:104390001B681A8007F59873A3F586731B681B8842
:1043A0009BB26FEA43436FEA53439AB207F598739F
:1043B000A3F586731B681A8079E0D7F82C313E2B61
:1043C0001BD8D7F82C315B08C7F82831D7F82C3127
:1043D00003F00103002B04D0D7F828310133C7F8CC
:1043E0002831D7F828319BB29B029AB207F598730F
:1043F000A3F586731B681A8059E0D7F82C315B0946
:10440000C7F82831D7F82C3103F01F03002B04D153
:10441000D7F82831013BC7F82831D7F828319BB2AB
:104420009B029BB26FEA43436FEA53439AB207F58C
:104430009873A3F586731B681A8038E007F59873A4
:10444000A3F598731B685B78012B30D107F598733F
:10445000A3F596731B68B3F850309BB2194607F565
:104460009873A3F5807307F59872A2F580721268AD
:104470000A441A6007F59873A3F598731B681B78B4
:104480001A0107F59873A3F580731B68134403F2B0
:104490000C4207F59873A3F582731A60D7F82C3194
:1044A0009AB207F59873A3F582731B681A8007F513
:1044B0009873A3F598731B685B89A7F8963007F586
:1044C0009873A3F598731B685969D7F82C319BB280
:1044D000B7F8962007F59870A0F59670006801F07F
:1044E00069FD07F59873A3F598731B685A69D7F8A7
:1044F0002C311A4407F59873A3F598731B685A6119
:1045000007F59873A3F598731B681A6A07F59873F3
:10451000A3F598731B681B699A420FD907F5987326
:10452000A3F598731B681A6AD7F82C31D21A07F5CD
:104530009873A3F598731B681A620EE007F59873D9
:10454000A3F598731B681B6AC7F82C3107F598739D
:10455000A3F598731B6800221A6207F59873A3F5F8
:1045600098731B685B78002B40F09A8007F598736E
:10457000A3F58C7307F59872A2F5967212681A600B
:1045800007F59873A3F596731B68B3F850309BB288
:10459000194607F59873A3F58C7307F59872A2F581
:1045A0008C7212680A441A6007F59873A3F5987321
:1045B0001B681B781A0107F59873A3F58C731B68A9
:1045C000134403F2044207F59873A3F58E731A603F
:1045D000D7F82C31002B22D107F59873A3F58E73F1
:1045E0001B681B889BB223F4F8439AB207F59873B3
:1045F000A3F58E731B681A8007F59873A3F58E7365
:104600001B681B889BB26FEA43436FEA53439AB21D
:1046100007F59873A3F58E731B681A8083E0D7F8AB
:104620002C313E2B1BD8D7F82C315B08C7F824312E
:10463000D7F82C3103F00103002B04D0D7F8243134
:104640000133C7F82431D7F824319BB29B029AB2C8
:1046500007F59873A3F58E731B681A8063E0D7F88B
:104660002C315B09C7F82431D7F82C3103F01F0334
:10467000002B04D1D7F82431013BC7F82431D7F8F7
:1046800024319BB29B029BB26FEA43436FEA5343D0
:104690009AB207F59873A3F58E731B681A8042E0EF
:1046A00007F59873A3F598731B685B78012B3AD1D3
:1046B00007F59873A3F5887307F59872A2F59672BB
:1046C00012681A6007F59873A3F596731B68B3F820
:1046D00050309BB2194607F59873A3F5887307F518
:1046E0009872A2F5887212680A441A6007F59873E6
:1046F000A3F598731B681B781A0107F59873A3F547
:1047000088731B68134403F2044207F59873A3F5FA
:104710008A731A60D7F82C319AB207F59873A3F50B
:104720008A731B681A8007F59873A3F598731B6842
:104730001B89A7F8963007F59873A3F598731B6843
:104740005969D7F82C319BB2B7F8962007F59870C5
:10475000A0F59670006801F02DFC00F00EBE07F584
:104760009873A3F598731B685B78002B6DD107F5E0
:104770009873A3F596731B68BB6407F59873A3F54C
:1047800096731B68B3F850309BB21A46BB6C134447
:10479000BB6407F59873A3F598731B681B781A011F
:1047A000BB6C134403F204437B64D7F82C31002B19
:1047B00012D17B6C1B889BB223F4F8439AB27B6CBA
:1047C0001A807B6C1B889BB26FEA43436FEA5343AA
:1047D0009AB27B6C1A8063E0D7F82C313E2B17D845
:1047E000D7F82C315B08C7F82031D7F82C3103F00B
:1047F0000103002B04D0D7F820310133C7F8203152
:10480000D7F820319BB29B029AB27B6C1A8047E0AA
:10481000D7F82C315B09C7F82031D7F82C3103F0D9
:104820001F03002B04D1D7F82031013BC7F82031FA
:10483000D7F820319BB29B029BB26FEA43436FEAE9
:1048400053439AB27B6C1A802AE007F59873A3F55C
:1048500098731B685B78012B22D107F59873A3F539
:1048600096731B683B6507F59873A3F596731B68F1
:10487000B3F850309BB21A463B6D13443B6507F5C5
:104880009873A3F598731B681B781A013B6D13444A
:1048900003F20443FB64D7F82C319AB2FB6C1A8004
:1048A00007F59873A3F598731B681B89A7F89630D2
:1048B00007F59873A3F598731B685969D7F82C31DD
:1048C0009BB2B7F8962007F59870A0F5967000682F
:1048D00001F070FB07F59873A3F598731B685A698C
:1048E000D7F82C311A4407F59873A3F598731B6811
:1048F0005A6107F59873A3F598731B681A6A07F550
:104900009873A3F598731B681B699A420FD907F532
:104910009873A3F598731B681A6AD7F82C31D21ACA
:1049200007F59873A3F598731B681A620EE007F5F4
:104930009873A3F598731B681B6AC7F82C3107F5A9
:104940009873A3F598731B6800221A6207F5987391
:10495000A3F596731B683B6407F59873A3F59873EA
:104960001B685B78002B6DD107F59873A3F59673E0
:104970001B68BB6307F59873A3F596731B68B3F8C0
:1049800050309BB21A46BB6B1344BB6307F5987358
:10499000A3F598731B681B781A01BB6B134403F2D1
:1049A0000C437B63D7F82C31002B12D17B6B1B8817
:1049B0009BB223F4F8439AB27B6B1A807B6B1B8803
:1049C0009BB26FEA43436FEA53439AB27B6B1A8000
:1049D0005DE0D7F82C313E2B17D8D7F82C315B0887
:1049E000C7F81C31D7F82C3103F00103002B04D099
:1049F000D7F81C310133C7F81C31D7F81C319BB2F2
:104A00009B029AB27B6B1A8041E0D7F82C315B098C
:104A1000C7F81C31D7F82C3103F01F03002B04D149
:104A2000D7F81C31013BC7F81C31D7F81C319BB2B9
:104A30009B029BB26FEA43436FEA53439AB27B6B8C
:104A40001A8024E007F59873A3F598731B685B78C8
:104A5000012B1CD107F59873A3F596731B68B3F867
:104A600050309BB21A463B6C13443B6407F5987375
:104A7000A3F598731B681B781A013B6C134403F26F
:104A80000C43FB63D7F82C319AB2FB6B1A8007F505
:104A90009873A3F598731B685B89A7F8963007F5A0
:104AA0009873A3F598731B685969D7F82C319BB29A
:104AB000B7F8962007F59870A0F59670006801F099
:104AC00079FA00F05ABC07F59873A3F598731B6840
:104AD0001B6AC7F82C3107F59873A3F596731A680B
:104AE00007F59873A3F598731B681B789B00134414
:104AF0001B889BB223F4E24323F07003A7F86230D3
:104B000007F59873A3F596731A6807F59873A3F5DC
:104B100098731B681B789B001A44B7F8623043F007
:104B20007F4343F47F0343F4004343F080039BB28D
:104B3000138007F59873A3F596731B68FB6507F55B
:104B40009873A3F596731B68B3F850309BB21A465E
:104B5000FB6D1344FB6507F59873A3F598731B6809
:104B60001B781A01FB6D134403F20443BB65D7F8AD
:104B70002C319AB2BB6D1A8007F59873A3F5987320
:104B80001B681B89A7F8963007F59873A3F59873EF
:104B90001B685969D7F82C319BB2B7F8962007F5F6
:104BA0009870A0F59670006801F004FAE5E307F547
:104BB0009873A3F596731A6807F59873A3F598731D
:104BC0001B681B789B0013441B889BB223F4E043B3
:104BD00023F07003A7F8A83007F59873A3F5967330
:104BE0001A6807F59873A3F598731B681B789B00E8
:104BF0001A44B7F8A83043F07F4343F47F0343F4EB
:104C0000014343F080039BB2138007F59873A3F52B
:104C100098731B681A6AD7F82C31D21A07F5987363
:104C2000A3F598731B681A6207F59873A3F596733A
:104C30001A6807F59873A3F598731B681B789B0097
:104C400013441B889BB203F04003002B00F0BC818F
:104C500007F59873A3F596731B68C7F8803007F5BE
:104C60009873A3F598731B685B78002B6DD107F5DB
:104C70009873A3F596731B68BB6707F59873A3F544
:104C800096731B68B3F850309BB21A46BB6F13443F
:104C9000BB6707F59873A3F598731B681B781A0117
:104CA000BB6F134403F20C437B67D7F82C31002B06
:104CB00012D17B6F1B889BB223F4F8439AB27B6FAF
:104CC0001A807B6F1B889BB26FEA43436FEA5343A2
:104CD0009AB27B6F1A8060E0D7F82C313E2B17D840
:104CE000D7F82C315B08C7F81831D7F82C3103F00E
:104CF0000103002B04D0D7F818310133C7F818315D
:104D0000D7F818319BB29B029AB27B6F1A8044E0AD
:104D1000D7F82C315B09C7F81831D7F82C3103F0DC
:104D20001F03002B04D1D7F81831013BC7F8183105
:104D3000D7F818319BB29B029BB26FEA43436FEAEC
:104D400053439AB27B6F1A8027E007F59873A3F557
:104D500098731B685B78012B1FD107F59873A3F537
:104D600096731B68B3F850309BB21A46D7F8803060
:104D70001344C7F8803007F59873A3F598731B6840
:104D80001B781A01D7F88030134403F20C43FB67F9
:104D9000D7F82C319AB2FB6F1A8007F59873A3F5F8
:104DA00098731B685B89A7F8963007F59873A3F58D
:104DB00098731B685969D7F82C319BB2B7F89620C5
:104DC00007F59870A0F59670006801F0F3F807F504
:104DD0009873A3F598731B685A69D7F82C311A4455
:104DE00007F59873A3F598731B685A6107F59873D4
:104DF000A3F598731B681A6A07F59873A3F598735F
:104E00001B681B699A420FD907F59873A3F598732D
:104E10001B681A6AD7F82C31D21A07F59873A3F5D4
:104E200098731B681A620EE007F59873A3F59873E0
:104E30001B681B6AC7F82C3107F59873A3F59873A4
:104E40001B6800221A62D7F82C31002B00F09582E3
:104E500007F59873A3F598731B685B78002B6DD1E9
:104E600007F59873A3F596731B68BB6607F59873EF
:104E7000A3F596731B68B3F850309BB21A46BB6E0D
:104E80001344BB6607F59873A3F598731B681B78EA
:104E90001A01BB6E134403F204437B66D7F82C312E
:104EA000002B12D17B6E1B889BB223F4F8439AB27D
:104EB0007B6E1A807B6E1B889BB26FEA43436FEA5E
:104EC00053439AB27B6E1A8063E0D7F82C313E2BA5
:104ED00017D8D7F82C315B08C7F81431D7F82C3124
:104EE00003F00103002B04D0D7F814310133C7F8C5
:104EF0001431D7F814319BB29B029AB27B6E1A80A0
:104F000047E0D7F82C315B09C7F81431D7F82C31BA
:104F100003F01F03002B04D1D7F81431013BC7F86D
:104F20001431D7F814319BB29B029BB26FEA434312
:104F30006FEA53439AB27B6E1A802AE007F59873A2
:104F4000A3F598731B685B78012B22D107F5987342
:104F5000A3F596731B683B6707F59873A3F59673E3
:104F60001B68B3F850309BB21A463B6F13443B6743
:104F700007F59873A3F598731B681B781A013B6FAC
:104F8000134403F20443FB66D7F82C319AB2FB6E4C
:104F90001A8007F59873A3F598731B681B89A7F807
:104FA000963007F59873A3F598731B685969D7F87D
:104FB0002C319BB2B7F8962007F59870A0F5967043
:104FC000006800F0F7FFD8E107F59873A3F5987330
:104FD0001B685B78002B78D107F59873A3F596735F
:104FE0001B68C7F89C3007F59873A3F596731B6888
:104FF000B3F850309BB21A46D7F89C301344C7F828
:105000009C3007F59873A3F598731B681B781A01F9
:10501000D7F89C30134403F20443C7F89830D7F80C
:105020002C31002B16D1D7F898301B889BB223F473
:10503000F8439AB2D7F898301A80D7F898301B887E
:105040009BB26FEA43436FEA53439AB2D7F8983062
:105050001A806BE0D7F82C313E2B18D8D7F82C31BA
:105060005B08C7F81031D7F82C3103F00103002B8F
:1050700004D0D7F810310133C7F81031D7F8103108
:105080009BB29B029AB2D7F898301A804EE0D7F8BC
:105090002C315B09C7F81031D7F82C3103F01F030E
:1050A000002B04D1D7F81031013BC7F81031D7F8E5
:1050B00010319BB29B029BB26FEA43436FEA5343AA
:1050C0009AB2D7F898301A8030E007F59873A3F5B4
:1050D00098731B685B78012B28D107F59873A3F5AB
:1050E00096731B68C7F8A43007F59873A3F59673F9
:1050F0001B68B3F850309BB21A46D7F8A43013445B
:10510000C7F8A43007F59873A3F598731B681B784C
:105110001A01D7F8A430134403F20443C7F8A030AF
:10512000D7F82C319AB2D7F8A0301A8007F59873C7
:10513000A3F598731B681B89A7F8963007F5987339
:10514000A3F598731B685969D7F82C319BB2B7F84F
:10515000962007F59870A0F59670006800F02AFF79
:1051600007F59873A3F598731B685A69D7F82C3123
:105170001A4407F59873A3F598731B685A6107F5ED
:105180009873A3F598731B681A6A07F59873A3F5CB
:1051900098731B681B699A420FD907F59873A3F59A
:1051A00098731B681A6AD7F82C31D21A07F59873CE
:1051B000A3F598731B681A620EE007F59873A3F5C0
:1051C00098731B681B6AC7F82C3107F59873A3F511
:1051D00098731B6800221A62D7F82C31002B00F05C
:1051E000CC8007F59873A3F596731B68C7F89030C9
:1051F00007F59873A3F598731B685B78002B78D13B
:1052000007F59873A3F596731B68C7F8883007F500
:105210009873A3F596731B68B3F850309BB21A4687
:10522000D7F888301344C7F8883007F59873A3F58A
:1052300098731B681B781A01D7F88830134403F25F
:105240000C43C7F88430D7F82C31002B16D1D7F88F
:1052500084301B889BB223F4F8439AB2D7F8843089
:105260001A80D7F884301B889BB26FEA43436FEAF9
:1052700053439AB2D7F884301A8064E0D7F82C31BF
:105280003E2B18D8D7F82C315B08C7F80C31D7F86B
:105290002C3103F00103002B04D0D7F80C3101337B
:1052A000C7F80C31D7F80C319BB29B029AB2D7F8F1
:1052B00084301A8047E0D7F82C315B09C7F80C31ED
:1052C000D7F82C3103F01F03002B04D1D7F80C3191
:1052D000013BC7F80C31D7F80C319BB29B029BB253
:1052E0006FEA43436FEA53439AB2D7F884301A8087
:1052F00029E007F59873A3F598731B685B78012B79
:1053000021D107F59873A3F596731B68B3F8503055
:105310009BB21A46D7F890301344C7F8903007F57F
:105320009873A3F598731B681B781A01D7F890300F
:10533000134403F20C43C7F88C30D7F82C319AB2DF
:10534000D7F88C301A8007F59873A3F598731B680B
:105350005B89A7F8963007F59873A3F598731B68D7
:105360005969D7F82C319BB2B7F8962007F5987099
:10537000A0F59670006800F01DFE07F59873A3F580
:1053800096731A6807F59873A3F598731B681B78D2
:105390009B0013441B889BB207F59872A2F5937289
:1053A00023F4E04323F04003138007F59873A3F53B
:1053B000937307F59872A2F59372128882F0100227
:1053C0001A8007F59873A3F5937307F59872A2F501
:1053D0009372128882F020021A8007F59873A3F561
:1053E00096731A6807F59873A3F598731B681B7872
:1053F0009B001A4407F59873A3F593731B8843F039
:105400007F4343F47F0343F4004343F080039BB2A4
:10541000138000F09FBC07F59873A3F598731B6881
:105420001B7B002B40F0AE8007F59873A3F59873B3
:105430001B689A6907F59873A3F598731B681B6935
:105440009A4217D907F59873A3F598731B681B69DF
:10545000C7F82C3107F59873A3F598731B689A6900
:10546000D7F82C31D21A07F59873A3F598731B68F7
:105470009A610EE007F59873A3F598731B689B6912
:10548000C7F82C3107F59873A3F598731B680022B1
:105490009A6107F59873A3F596731B68C7F8B03047
:1054A00007F59873A3F596731B68B3F850309BB259
:1054B0001A46D7F8B0301344C7F8B03007F59873E0
:1054C000A3F598731B681B781A01D7F8B030134402
:1054D00003F20C43C7F8AC30D7F82C31002B16D1AF
:1054E000D7F8AC301B889BB223F4F8439AB2D7F8B4
:1054F000AC301A80D7F8AC301B889BB26FEA4343BC
:105500006FEA53439AB2D7F8AC301A80E8E3D7F881
:105510002C313E2B18D8D7F82C315B08C7F808314E
:10552000D7F82C3103F00103002B04D0D7F8083151
:105530000133C7F80831D7F808319BB29B029AB201
:10554000D7F8AC301A80CBE3D7F82C315B09C7F819
:105550000831D7F82C3103F01F03002B04D1D7F802
:105560000831013BC7F80831D7F808319BB29B02DC
:105570009BB26FEA43436FEA53439AB2D7F8AC3019
:105580001A80ADE307F59873A3F598731B68DB7871
:10559000022B40F0008207F59873A3F598731B68FF
:1055A0005B78002B40F0918007F59873A3F5967314
:1055B0001B68C7F8CC3007F59873A3F596731B6882
:1055C000B3F850309BB21A46D7F8CC301344C7F822
:1055D000CC3007F59873A3F598731B681B781A01F4
:1055E000D7F8CC30134403F20443C7F8C83007F5AA
:1055F0009873A3F598731B681B69002B16D1D7F815
:10560000C8301B889BB223F4F8439AB2D7F8C8304D
:105610001A80D7F8C8301B889BB26FEA43436FEA01
:1056200053439AB2D7F8C8301A8083E007F59873CD
:10563000A3F598731B681B693E2B20D807F5987358
:10564000A3F598731B681B695B08C7F8043107F55D
:105650009873A3F598731B681B6903F00103002B73
:1056600004D0D7F804310133C7F80431D7F8043136
:105670009BB29B029AB2D7F8C8301A805AE007F55D
:105680009873A3F598731B681B695B09C7F804310D
:1056900007F59873A3F598731B681B6903F01F0344
:1056A000002B04D1D7F80431013BC7F80431D7F8F7
:1056B00004319BB29B029BB26FEA43436FEA5343B0
:1056C0009AB2D7F8C8301A8034E007F59873A3F57A
:1056D00098731B685B78012B2CD107F59873A3F5A1
:1056E00096731B68C7F8D43007F59873A3F59673C3
:1056F0001B68B3F850309BB21A46D7F8D430134425
:10570000C7F8D43007F59873A3F598731B681B7816
:105710001A01D7F8D430134403F20443C7F8D03049
:1057200007F59873A3F598731B681B699AB2D7F8AD
:10573000D0301A8007F59873A3F596731B68C7F8E5
:10574000C43007F59873A3F598731B685B78002B3A
:1057500040F0918007F59873A3F596731B68C7F81E
:10576000BC3007F59873A3F596731B68B3F85030F7
:105770009BB21A46D7F8BC301344C7F8BC3007F5C3
:105780009873A3F598731B681B781A01D7F8BC307F
:10579000134403F20C43C7F8B83007F59873A3F528
:1057A00098731B681B69002B16D1D7F8B8301B887B
:1057B0009BB223F4F8439AB2D7F8B8301A80D7F8DE
:1057C000B8301B889BB26FEA43436FEA53439AB2E7
:1057D000D7F8B8301A807CE007F59873A3F5987372
:1057E0001B681B693E2B20D807F59873A3F59873A7
:1057F0001B681B695B08C7F8003107F59873A3F5B0
:1058000098731B681B6903F00103002B04D0D7F8C1
:1058100000310133C7F80031D7F800319BB29B0249
:105820009AB2D7F8B8301A8053E007F59873A3F509
:1058300098731B681B695B09C7F8003107F59873FB
:10584000A3F598731B681B6903F01F03002B04D199
:10585000D7F80031013BC7F80031D7F800319BB2CF
:105860009B029BB26FEA43436FEA53439AB2D7F865
:10587000B8301A802DE007F59873A3F598731B686C
:105880005B78012B25D107F59873A3F596731B68F8
:10589000B3F850309BB21A46D7F8C4301344C7F857
:1058A000C43007F59873A3F598731B681B781A0129
:1058B000D7F8C430134403F20C43C7F8C03007F5DF
:1058C0009873A3F598731B681B699AB2D7F8C03018
:1058D0001A8007F59873A3F598731B68DB69002B92
:1058E00000F0FE8107F59873A3F596731A6807F523
:1058F0009873A3F598731B681B789B0013441B884F
:10590000A7F8B630B7F8B63003F48043002B05D0C3
:10591000B7F8B63003F04003002B0DD1B7F8B6301E
:1059200003F48043002B40F0DB81B7F8B63003F07E
:105930004003002B40F0D48107F59873A3F59673CC
:105940001A6807F59873A3F598731B681B789B007A
:1059500013441B889BB223F4E04323F07003A7F8A1
:10596000B43007F59873A3F596731A6807F5987322
:10597000A3F598731B681B789B001A44B7F8B430E2
:1059800043F07F4343F47F0343F4004343F0C003F9
:105990009BB21380A4E107F59873A3F598731B6875
:1059A000DB78012B40F09A8107F59873A3F5987383
:1059B0001B689A6907F59873A3F598731B681B69B0
:1059C0009A4217D907F59873A3F598731B681B695A
:1059D000C7F82C3107F59873A3F598731B689A697B
:1059E000D7F82C31D21A07F59873A3F598731B6872
:1059F0009A610EE007F59873A3F598731B689B698D
:105A0000C7F82C3107F59873A3F598731B6800222B
:105A10009A6107F59873A3F598731B685B78002B60
:105A200078D107F59873A3F596731B68C7F8EC3027
:105A300007F59873A3F596731B68B3F850309BB2C3
:105A40001A46D7F8EC301344C7F8EC3007F59873D2
:105A5000A3F598731B681B781A01D7F8EC30134430
:105A600003F20443C7F8E830D7F82C31002B16D1E5
:105A7000D7F8E8301B889BB223F4F8439AB2D7F8E2
:105A8000E8301A80D7F8E8301B889BB26FEA4343AE
:105A90006FEA53439AB2D7F8E8301A806BE0D7F830
:105AA0002C313E2B18D8D7F82C315B08C7F8FC30C6
:105AB000D7F82C3103F00103002B04D0D7F8FC30C9
:105AC0000133C7F8FC30D7F8FC309BB29B029AB286
:105AD000D7F8E8301A804EE0D7F82C315B09C7F8C8
